:020000040800F2
:1000000058080020DD010008790C0008F50B0008F5
:10001000750C00089D060008812200080000000001
:100020000000000000000000000000005111000866
:10003000A106000800000000750F0008B9120008B2
:10004000F7010008F7010008F7010008F7010008B0
:10005000F7010008F7010008F7010008F7010008A0
:10006000F7010008F7010008F7010008F701000890
:10007000F7010008F7010008F7010008F701000880
:10008000F7010008F7010008F7010008F701000870
:10009000F7010008F7010008F7010008F701000860
:1000A000F70100085D150008F7010008F7010008D6
:1000B000F7010008F7010008F7010008F701000840
:1000C000F7010008F7010008F7010008F701000830
:1000D000F7010008111C0008D51C0008CD1D000800
:1000E000F7010008F7010008F7010008F701000810
:1000F000F7010008F7010008F7010008F701000800
:10010000F7010008F7010008F7010008F7010008EF
:10011000B51B0008DD1B0008F7010008F701000807
:10012000F7010008F7010008F7010008F7010008CF
:1001300000F002F800F042F80AA090E8000C8244B7
:100140008344AAF10107DA4501D100F037F8AFF294
:10015000090EBAE80F0013F0010F18BFFB1A43F0A5
:1001600001031847DC2D0000FC2D0000103A24BFCD
:1001700078C878C1FAD8520724BF30C830C144BF0C
:1001800004680C607047000000230024002500264E
:10019000103A28BF78C1FBD8520728BF30C148BFEA
:1001A0000B607047642900F06F80782900F0A88008
:1001B000002070471FB51FBD10B510BD00F026FA16
:1001C0001146FFF7F7FF02F03BF900F044FA03B4E1
:1001D000FFF7F2FF03BC02F05CF80000094880471B
:1001E00009480047FEE7FEE7FEE7FEE7FEE7FEE719
:1001F000FEE7FEE7FEE7FEE704480549054A064B31
:1002000070470000BD1200083101000858020020AC
:1002100058080020580400205804002070470000AF
:100220000FB4044910B503AA029800F0C1F910BC3C
:100230005DF814FB3400002070B504468569006841
:10024000C10601D5302600E02026C00707D070BDCA
:10025000D4E9012130469047206A401C20626D1E7F
:10026000F6D570BD70B5044685690078C00707D122
:1002700070BDD4E9012120209047206A401C2062F3
:100280006D1EF6D570BD00002DE9F0410646002434
:1002900010687529314616A510D0AFF300800028EC
:1002A00002DA404213A507E031688A0701D512A59A
:1002B00002E0490704D511A5012401E0AFF3008055
:1002C00000210A2206F1240709E0B0FBF2FCB0FB92
:1002D000F2F302FB1C00303078541846491C002809
:1002E000F3D123462A463046BDE8F04100F006B976
:1002F000000000002D0000002B0000002000000086
:1003000070B504460D4621461068AFF30080218881
:10031000090502D50F4A7A4402E00E4A7A440E32A9
:10032000002104F1240305E000F00F060009965DAA
:100330005E54491C0028F7D120780023000704D51B
:10034000702D02D009B1022311322046BDE8704061
:1003500000F0D4B8EA2B00002DE9F05F894604468E
:100360004FF0000ADFF824B1FB44C0F820A020467B
:10037000E168884700287DD0252806D0D4E90121EE
:100380009047206A401C2062F1E700255F46204626
:10039000E16888472028064607DB312E05D2B819C8
:1003A00010F8200C08B10543F1E7A80701D525F0A6
:1003B0000405C4F81CA00027C4F818A02A2E09D0F0
:1003C000304601F05FFF38B304EB8708303EC8F8D1
:1003D000186019E059F8041B204604EB870291616C
:1003E000E1688847012F064618D1E069002820DA25
:1003F00025F020051DE0D8F8180000EB800006EB82
:1004000040003038C8F818002046E16888470646A2
:1004100001F038FF0028EED1012F0AD02E2E08D18E
:100420002046E16888477F1C0646022F45F02005DC
:10043000C4DBA069002803DA404245F00105A06151
:10044000E80701D025F01005A6B1A6F14100192852
:1004500002D8203645F400654A46314620462560DC
:100460004D46FFF79FFE60B1012807D0ED1D25F036
:10047000070000E007E000F1080978E705F104094A
:1004800075E730467AE7206ABDE8F09FC02B000090
:1004900010B5203AC0F00B80B1E81850203AA0E81F
:1004A0001850B1E81850A0E81850BFF4F5AF5FEA53
:1004B000027C24BFB1E81850A0E8185044BF18C906
:1004C00018C0BDE810405FEA827C24BF51F8043BAD
:1004D00040F8043B08BF7047D20728BF31F8023B01
:1004E00048BF11F8012B28BF20F8023B48BF00F895
:1004F000012B704770477047704770472DE9F047F0
:100500000D4699469246044600F124080168880683
:1005100004D5E06921F01001216000E00120A8422B
:1005200001DD471B00E00027A1697A1902EB0900F1
:10053000081AA0612078C00602D42046FFF77CFE8E
:10054000002608E0D4E901211AF806009047206A45
:10055000401C761C20624E45F4DB2078C0060AD58C
:100560002046FFF769FE06E0D4E9012130209047DC
:10057000206A401C2062381EA7F10107F4DC07E066
:10058000D4E9012118F805009047206A401C206238
:10059000281EA5F10105F3DC2046FFF763FE207855
:1005A000000602D50220BDE8F0870120FBE700002D
:1005B000074B70B50D467B4400F011F80446284601
:1005C00000F020F810B14FF0FF3070BD204670BD34
:1005D000631E000001694A1C02610878704700B57B
:1005E0008FB0CDE901310021059105497944CDE96C
:1005F000031011466846FFF7AFFE0FB000BD0000C4
:10060000E5FFFFFF007B00F080007047754600F0BB
:100610002BF8AE4605006946534620F00700854694
:1006200018B020B5FFF7E8FDBDE820404FF0000608
:100630004FF000074FF000084FF0000B21F00701CA
:10064000AC46ACE8C009ACE8C009ACE8C009ACE80D
:10065000C0098D46704710B50446AFF300802046B0
:10066000BDE81040FFF7B3BD00487047F801002017
:1006700008B50121802000F08FFC40F2FF30ADF87A
:10068000000010208DF8030003208DF80200694659
:10069000014800F0ACF908BD001C014000BFFEE7B6
:1006A000704700218184704700B587B0012108465A
:1006B00000F062FC0121052000F06EFC0121082001
:1006C00000F06AFC0121344800F01CFA0121334893
:1006D00000F018FA04208DF80F004003ADF80C006C
:1006E00003208DF80E0003A92D4800F080F90420A6
:1006F0008DF80F000820ADF80C0003208DF80E00D7
:1007000003A9284800F073F904A801F013FA0020A7
:10071000ADF81600ADF812004FF6FF70ADF81400FA
:100720000020ADF8100004A94FF0804001F0B0F9AE
:10073000684601F009F80020ADF800000F20ADF880
:10074000080069464FF0804000F0A8FF0420ADF893
:1007500000000F20ADF8080069464FF0804000F01F
:100760009DFF00231A4603214FF0804000F063FFF5
:100770000121880700F03EFF01221146900700F09A
:10078000ECFF00214FF0804001F054F9012188076F
:1007900000F036FF07B000BD000318000002300073
:1007A00000080140000C014000B587B00121022083
:1007B00000F0E2FB0121042000F0EEFB04208DF8A4
:1007C0000F00C020ADF80C0003208DF80E0003A927
:1007D000224800F00CF90020ADF81600ADF8120028
:1007E0004FF6FF70ADF814000020ADF810008DF842
:1007F000180004A91A4801F04BF9684600F0A4FF5C
:100800000020ADF800000F20ADF80800694614483C
:1008100000F044FF0420ADF800000F20ADF8080000
:1008200069460F4800F03AFF00231A4603210C489E
:1008300000F001FF01210A4800F0DCFE0122114610
:10084000074800F08AFF0021054801F0F3F8012174
:10085000034800F0D5FE07B000BD000000080140CD
:100860000004004000B587B00121042000F084FBA3
:100870000121092000F090FB04208DF80F00C0201A
:10088000ADF80C0003208DF80E0003A9224800F0FB
:10089000AEF804A801F04EF90020ADF81600ADF84E
:1008A00012004FF6FF70ADF814000020ADF81000F4
:1008B00004A91A4801F0ECF8684600F045FF002052
:1008C000ADF800000F20ADF808006946134800F0AD
:1008D000E5FE0420ADF800000F20ADF808006946E1
:1008E0000E4800F0DBFE00231A4603210B4800F0FF
:1008F000A2FE0121094800F07DFE012211460748B1
:1009000000F02BFF0021054801F094F80121034875
:1009100000F076FE07B000BD000C0140000800406A
:1009200000B587B00121082000F026FB012104203A
:1009300000F032FB48208DF80F000320ADF80C00CA
:100940008DF80E0003A9224800F051F80020ADF800
:100950001600ADF812004FF6FF70ADF8140000203D
:10096000ADF810008DF8180004A91A4801F090F8AD
:10097000684600F0E9FE0020ADF800000F20ADF859
:1009800008006946134800F089FE0420ADF8000015
:100990000F20ADF8080069460E4800F07FFE0023E6
:1009A0001A4603210B4800F046FE0121094800F0D9
:1009B00021FE01221146074800F0CFFE0021054824
:1009C00001F038F80121034800F01AFE07B000BD1D
:1009D00000080140000C004001460020888CC21332
:1009E00022B1C0F30E02A2F5FE40FF3870472DE998
:1009F000F0410246002500260020002300240027A5
:100A000091F803C00CF00F0591F803C00CF0100C26
:100A1000BCF1000F03D091F802C04CEA050591F833
:100A200000C0BCF1000F31D0146800202BE04FF063
:100A3000010C0CFA00F3B1F800C00CEA03069E4268
:100A400020D183004FF00F0C0CFA03F7BC4305FADA
:100A500003FC4CEA040491F803C0BCF1280F06D152
:100A60004FF0010C0CFA00FCC2F814C00AE091F837
:100A700003C0BCF1480F05D14FF0010C0CFA00FC8B
:100A8000C2F810C0401C0828D1D31460B1F800C0CF
:100A9000BCF1FF0F34DD546800202EE000F1080C9B
:100AA0004FF0010808FA0CF3B1F800C00CEA030695
:100AB0009E4221D183004FF00F0C0CFA03F7BC4388
:100AC00005FA03FC4CEA040491F803C0BCF1280FBA
:100AD00005D100F1080C08FA0CF8C2F8148091F85E
:100AE00003C0BCF1480F07D100F1080C4FF001081A
:100AF00008FA0CF8C2F81080401C0828CED35460C5
:100B0000BDE8F081F0B50A4600230024002100254D
:100B100000F00046B6F1004F02D11D4EF16901E030
:100B20001B4E7168C0F3034583B200F44016B6F55E
:100B3000401F08D121F07061154E766826F070666E
:100B4000134F7E6012E000F48016B6F5801F06D1C8
:100B5000032606FA05F4A14341F0706106E0460D54
:100B6000360103FA06F6B14341F0706122B1460D39
:100B7000360103FA06F6314300F00046B6F1004FA5
:100B800002D1034EF16101E0014E7160F0BD000041
:100B90000000014041617047016170472DE9F0415B
:100BA000ADF5007D04460E46FF27B8467A1C0F4976
:100BB00040A8FFF76DFC7A1C0D496846FFF768FCFA
:100BC00009E014F8010B80EA070540A8405D80EABF
:100BD00008071DF80580301EA6F10101CEB2F0D144
:100BE00048EA07200DF5007DBDE8F081042D0008DE
:100BF000042E000800BFFEE708B50121482000F0E0
:100C0000CBF92020ADF8000010208DF80300032060
:100C10008DF8020069460948FFF7E9FE20210748E0
:100C2000FFF7BAFF2020ADF8000069460448FFF73F
:100C3000DEFE20210248FFF7AFFF08BD000C014097
:100C40000018014010B510210348FFF7A5FF20212F
:100C50000148FFF79FFF10BD001C014010B50121A6
:100C60000348FFF799FF02210148FFF793FF10BDEA
:100C7000001C014000BFFEE77047000070B5002176
:100C800000230F22C47804B3154C246804F4E064F4
:100C9000C4F5E064210AC1F10403CA40447804FAAF
:100CA00003F184781440214309010E4C0678A155C4
:100CB000047804F01F050124AC4005786D11AD00E7
:100CC00005F1E025C5F8004109E0047804F01F05AE
:100CD0000124AC40044D0678761145F8264070BDDD
:100CE0000CED00E000E400E080E100E030B589B008
:100CF00005460C460121480300F04EF90121102061
:100D000000F04AF94020ADF8200018208DF82300AB
:100D100003208DF8220008A94748FFF768FE01214B
:100D2000102000F039F98020ADF8200018208DF84F
:100D3000230003208DF8220008A93F48FFF757FE43
:100D40000121102000F028F94FF48070ADF8200048
:100D500018208DF8230003208DF8220008A93648BA
:100D6000FFF745FE0121102000F016F94FF4007046
:100D7000ADF8200018208DF8230003208DF8220004
:100D800008A92D48FFF733FEADF81850ADF8144010
:100D90000020ADF81A00ADF8160005A9274800F0AC
:100DA00077FE6020ADF804000120ADF806000020B9
:100DB000ADF80A00ADF80C00ADF8100001A91F480D
:100DC00000F0D4FC01A91D4800F026FD01A91B4834
:100DD00000F082FD01A9194800F0D8FD0121174853
:100DE00000F01AFC0821154800F00CFD08211348FA
:100DF00000F064FD0821114800F0BEFD08210F48F5
:100E000000F002FE01210D4800F0E8FB01210B4833
:100E100000F0F6FB0021094800F003FE002107481E
:100E200000F001FE0021054800F0FFFD002103480D
:100E300000F0FDFD09B030BD00100140003401405C
:100E40002DE9F04704460F4694F800A094F801906D
:100E5000A67833464A46514621A0FFF7E1F9B9F199
:100E6000030F3BD1701D874206D03A46711D28A062
:100E7000FFF7D6F9BDE8F087304606EBD071C1F335
:100E800047012D4A117010460078242808DD2422DD
:100E90002948017829A0FFF7C3F9242026490870C2
:100EA000002510E0032000EB450000F0FF0808F1EA
:100EB0000100205C14F8081040EA01202A4921F8BA
:100EC0001500681CC5B21C4800788542EADB012089
:100ED000264908700020264981F8660000BFC9E74E
:100EE000B4D3BBFAB5D8D6B73A20307825303258CB
:100EF0002C20B9A6C4DCC2EB3A2030782530325819
:100F00002C20D7D6BDDACAFD3A2025640D0A000090
:100F1000CAFDBEDDB3A4B6C8B2BBC6A5C5E42120D8
:100F2000C6DACDFB3A2025642C20CAB5BCCA3A20CB
:100F300025640D0A0000000058000020BCC4B4E67F
:100F4000C6F7CAFDC1BFB3ACB9FDD7EEB4F3D6B591
:100F50002120BDD3CAD53A2025642C20D7EEB4F386
:100F60003A2025640D0A00000C01002059000020E1
:100F7000A40000207047000029B1064AD26902434C
:100F8000044BDA6104E0034AD2698243014BDA611F
:100F9000704700000010024029B1064A92690243DE
:100FA000044B9A6104E0034A92698243014B9A61BF
:100FB000704700000010024030B5002100220024DC
:100FC00000232D4D6D6805F00C0121B1042905D0D9
:100FD000082923D105E0294D056022E0274D056051
:100FE0001FE0254D6D6805F47012234D6D6805F402
:100FF0008034022505EB92421CB9214D5543056012
:101000000BE01D4D6D6805F400351DB11C4D5543B9
:10101000056002E0194D5543056002E0174D05607B
:1010200000BF00BF144D6D6805F0F0010909154DB2
:101030006B5C0568DD4045600F4D6D6805F4E0614F
:10104000090A104D6B5C4568DD4085600A4D6D688E
:1010500005F46051C90A0B4D6B5C4568DD40C56005
:10106000054D6D6805F44041890B074D6B5CC56803
:10107000B5FBF3F5056130BD0010024000127A00A7
:1010800000093D005E0000206E00002008B501212F
:101090002020FFF781FF8020ADF8000010208DF8A0
:1010A000030003208DF8020069460348FFF79FFC08
:1010B0000248006808BD0000001401409C812242E3
:1010C0002DE9FC4706460F4614461D468DF8006084
:1010D0008DF8017020128DF80200E0B28DF8030047
:1010E00028128DF80400E8B28DF805000621684644
:1010F000FFF754FD8046C8F3072A08F0FF098DF872
:1011000006A08DF807900821684600F023F801201A
:10111000024981F86600BDE8FC870000A4000020B9
:1011200010B540210348FFF737FD80210148FFF744
:1011300031FD10BD001C014010B504210348FFF72C
:101140002BFD08210148FFF725FD10BD001C0140C3
:101150007047000070B505460E4601200F49086033
:10116000052001F0BBF800240CE0295D0C4800F0DC
:10117000A2FF00BF40210A4800F0D0FE0028F9D0AD
:10118000601CC4B2B442F0DB052001F0A7F80020D7
:10119000044981F864000149086070BD9C812242C5
:1011A00000440040A400002010B500F001F810BD7C
:1011B0000CB50020019000903348006840F4803066
:1011C0003149086000BF3048006800F400300090EA
:1011D0000198401C0190009818B90198B0F5A06FD3
:1011E000F1D12948006800F4003010B101200090CE
:1011F00001E0002000900098012843D123480068B6
:1012000040F01000214908600846006820F0030003
:1012100008600846006840F0020008601A4840680C
:10122000194948600846406848600846406840F4EC
:10123000806048600846406820F47C10486008469A
:10124000406840F4E81048600846006840F080704C
:10125000086000BF0C48006800F000700028F9D05A
:101260000948406820F00300074948600846406884
:1012700040F00200486000BF0348406800F00C00E6
:101280000828F9D10CBD00000010024000200240E7
:10129000042808D14FF0E021096941F004014FF022
:1012A000E022116107E04FF0E021096921F004011B
:1012B0004FF0E022116170477047000010B51348ED
:1012C000006840F001001149086008464068104974
:1012D00008400E494860084600680E4908400B491E
:1012E00008600846006820F48020086008464068CE
:1012F00020F4FE0048604FF41F008860FFF754FFA1
:101300004FF000600449086010BD0000001002406A
:101310000000FFF8FFFFF6FE08ED00E0F0B50C4618
:10132000154600220021068C4FF6FE773E400684CB
:10133000028B018C4FF60C7632407E1C06EA0316B7
:101340002E433243104EB0420ED0104EB0420BD05E
:10135000B0F1804F08D00E4EB04205D00D4EB042D5
:1013600002D00D4EB04206D14FF6FD76314044F02A
:101370000106314305E04FF6F576314044F00106B1
:10138000314302830184F0BD002C01400034014050
:101390000004004000080040000C0040F0B50C467E
:1013A0001546002200210026078C4FF6EF7C07EA45
:1013B0000C070784028B018C4FF6FF7707EA0416AF
:1013C00040F6FF473A404FF6FF7707EA03373A43C4
:1013D0004FF6FF7707EA05273A43114FB8420ED080
:1013E000104FB8420BD0B0F1804F08D00E4FB8422A
:1013F00005D00E4FB84202D00D4FB84206D14FF67D
:10140000DF77394046F01007394305E04FF65F7744
:10141000394044F01007394302830184F0BD0000D5
:10142000002C01400034014000040040000800404E
:10143000000C0040F0B50C461546002200210026A5
:10144000078C4FF6FF6C07EA0C070784828B018C30
:101450004FF6FF7707EA04264FF60C773A404FF62F
:10146000FF7707EA03172F433A43114FB8420ED0D4
:10147000104FB8420BD0B0F1804F08D00E4FB84299
:1014800005D00E4FB84202D00D4FB84206D14FF6EC
:10149000FF57394046F48077394305E04FF2FF5754
:1014A000394044F48077394382830184F0BD0000E1
:1014B000002C0140003401400004004000080040BE
:1014C000000C0040F0B50C46154600220021002615
:1014D000078C4EF6FF7C07EA0C070784828B018C91
:1014E0004FF6FF7707EA043640F6FF473A404FF6DB
:1014F000FF7707EA05273A434FF6FF7707EA0337F6
:101500003A43114FB8420ED0104FB8420BD0B0F151
:10151000804F08D00E4FB84205D00E4FB84202D0CF
:101520000D4FB84206D14DF6FF77394046F480574B
:10153000394305E047F6FF57394044F480573943B3
:1015400082830184F0BD0000002C01400034014082
:101550000004004000080040000C004010B50121CC
:10156000194800F089F868B3012000F057FE1748C9
:101570000088401C1549088015480088401C144903
:10158000088012480088B0F5967F07DB00200F49DD
:10159000088000F0C9FE01200E4908700C48008840
:1015A000B0F5FA7F0ADB0020094908800A48006884
:1015B00008B9012000E00020074908600121024825
:1015C00000F01BF810BD0000002C0140520000206C
:1015D00054000020500000209401234221B10288D1
:1015E00042F08002028004E002884FF67F731A40C6
:1015F00002807047CA4302827047CA430282704722
:1016000021B1028842F00102028004E002884FF614
:10161000FE731A400280704731B1B0F8442042F4A2
:101620000042A0F8442005E0B0F84420C2F30E02C6
:10163000A0F844207047F0B50C4615461E46002120
:10164000002200230189028B038C4FF6F877394082
:1016500021434FF6FC473A4040F201173A434FF618
:10166000DD773B404FF6FF7707EA06172F433B43F2
:10167000018102830384F0BD30B5024600200023BF
:101680000024158A05EA0103958905EA010413B1CE
:101690000CB1012000E0002030BD000070B505460F
:1016A0000C46244885420ED0234885420BD0B5F124
:1016B000804F08D02148854205D02148854202D07C
:1016C0002048854200D100E000BF208850B923891E
:1016D000A28861882846FFF721FEE188284600F0AD
:1016E000ABF925E0208804280AD12389A2886188E3
:1016F0002846FFF753FEE188284600F0A6F917E0D8
:10170000208808280AD12389A28861882846FFF703
:1017100091FEE188284600F0A5F909E02389A28816
:1017200061882846FFF7CEFEE188284600F0A3F93D
:1017300070BD0000002C0140003401400004004056
:1017400000080040000C0040002101804180012180
:1017500081800021C180018170471AB183890B43C8
:10176000838102E083898B438381704770B50024B5
:1017700000220023058C4FF6FE7635400584028C4E
:101780008388048B4FF68F752C40B51E2C400D8836
:101790002C43751E2A400D892A434D882A43144D37
:1017A000A8420BD0134DA84208D0134DA84205D033
:1017B000124DA84202D0124DA84213D14FF6F77530
:1017C0002A404D892A434FF6FB752A408D882A43CB
:1017D0004FF6FF652B404FF6FF552B408D892B436D
:1017E000CD892B4383800483CD888586028470BD98
:1017F000002C014000340140004001400044014001
:10180000004801400A460021018B4FF6F77319404A
:10181000114301837047000070B5002400220023AB
:10182000058C4FF6EF7635400584028C8388048B57
:1018300048F6FF752C404FF6FF452C400D884FF6BB
:10184000FF7606EA05252C434FF6DF752A400D8901
:1018500006EA05152A434D8806EA05152A43154D63
:10186000A84202D0144DA8421DD14FF67F752A40E0
:101870004D894FF6FF7606EA05152A434FF6BF75E8
:101880002A408D8806EA05152A434FF6FF352B407E
:101890004FF2FF752B408D8906EA85052B43CD89D4
:1018A00006EA85052B4383800483CD88058702845F
:1018B00070BD0000002C0140003401400A460021A8
:1018C000018B4FF2FF7319404FF6FF7303EA0223B7
:1018D000194301837047000070B5002400220023E3
:1018E000058C4FF6FF6635400584028C8388848B17
:1018F0004FF68F752C404FF6FC752C400D882C430D
:101900004FF6FF552A400D894FF6FF7606EA05256A
:101910002A434D8806EA05252A43154DA84202D0E0
:10192000144DA8421DD14FF2FF752A404D894FF644
:10193000FF7606EA05252A434FF6FF352A408D88B3
:1019400006EA05252A434EF6FF752B404DF6FF7536
:101950002B408D8906EA05152B43CD8906EA05152E
:101960002B4383808483CD888587028470BD0000EB
:10197000002C0140003401400A460021818B4FF6C3
:10198000F7731940114381837047000070B500223E
:1019900000230024058C4EF6FF7635400584038C29
:1019A0008488828B48F6FF752A404FF6FF452A400F
:1019B0000D884FF6FF7606EA05252A434DF6FF759A
:1019C0002B400D8906EA05352B434D8806EA05357F
:1019D0002B430B4DA84202D00A4DA84208D14BF62A
:1019E000FF752C408D894FF6FF7606EA85152C434E
:1019F00084808283CD88A0F84050038470BD0000AD
:101A0000002C0140003401400A460021818B4FF236
:101A1000FF7319404FF6FF7303EA022319438183D2
:101A20007047818670470187704781877047A0F8AB
:101A30004010704781847047028B4FF6F3731A4051
:101A40000283028B0A4302837047028B4FF2FF33FB
:101A50001A400283028B4FF6FF7303EA01231A43F5
:101A600002837047828B4FF6F3731A408283828B16
:101A70000A4382837047828B4FF2FF331A4082837E
:101A8000828B4FF6FF7303EA01231A438283704768
:101A9000002202881D4B98420ED01D4B98420BD05D
:101AA000B0F1804F08D01B4B984205D01A4B98429A
:101AB00002D01A4B984204D14FF68F731A404B88CC
:101AC0001A43174B984207D0164B984204D04FF652
:101AD000FF431A40CB881A4302808B8883850B888A
:101AE00003850A4B98420BD0094B984208D00E4B05
:101AF000984205D00D4B984202D00D4B984201D12F
:101B00000B7A03860123838270470000002C01407A
:101B1000003401400004004000080040000C004078
:101B2000001000400014004000400140004401400B
:101B3000004801404FF6FF71818000210180C18083
:101B400041800172704700007FB504460D460121B7
:101B5000C802FFF721FAADF80840681E80B2ADF860
:101B600004000020ADF80A00ADF806008DF80C0066
:101B700001A90F48FFF78CFF01210D48FFF73AFD3F
:101B8000012241210A48FFF7E8FD19208DF80000E5
:101B900000208DF801008DF8020001208DF803006F
:101BA0006846FFF76BF801210148FFF729FD7FBD6B
:101BB000002C014010B540F22551074800F0BBF958
:101BC000012808D1044800F071FAC4B240F225514E
:101BD000014800F07FF910BD004C004010B540F204
:101BE00025510A4800F0A7F9012808D140F22551F3
:101BF000064800F06FF9054800F058FAC4B240F208
:101C00002551024800F066F910BD00000050004068
:101C100010B540F22551044800F08DF918B1024882
:101C200000F044FAC4B210BD0038014010B586B0CF
:101C30000446012144F20400FFF7AEF901210846F1
:101C4000FFF7AAF94FF40070ADF8140003208DF8E7
:101C5000160018208DF8170005A91C48FEF7C7FECE
:101C60004FF48060ADF8140004208DF8170005A92A
:101C70001648FEF7BCFE25208DF8000003208DF8E5
:101C800001008DF8020001208DF803006846FEF780
:101C9000F5FF01940020ADF80800ADF80A00ADF89A
:101CA0000C00ADF810000C20ADF80E0001A908489A
:101CB00000F090F9012240F22551054800F065F945
:101CC0000121034800F01EF906B010BD00080140D4
:101CD0000038014010B540F225510F4800F02BF9B3
:101CE000C0B10D4800F0E2F9C4B240F225510A48F3
:101CF00000F0F9F8094890F8640064280ADA074807
:101D000090F8640005490C54084690F86400401CA3
:101D100081F8640010BD000000440040A4000020D1
:101D200010B586B0044601210420FFF735F90121E2
:101D30004804FFF721F90420ADF8140003208DF8C2
:101D4000160018208DF8170005A91E48FEF74FFE53
:101D50000820ADF8140004208DF8170005A91948D3
:101D6000FEF745FE26208DF8000000208DF80100CA
:101D700001208DF802008DF803006846FEF77EFF13
:101D800001944FF48050ADF808000020ADF80A002F
:101D90004FF48060ADF80C000020ADF810000C206E
:101DA000ADF80E0001A9084800F014F9012240F234
:101DB0002551054800F0E9F80121034800F0A2F898
:101DC00006B010BD000801400044004010B540F2CC
:101DD0002551134800F0AFF800B3114800F066F940
:101DE000C4B21048007810B9552C00D010BD0D4871
:101DF00001780078401C0B4A10700B484454104680
:101E000000780B2805D1084800F046FB0020054962
:101E1000087040F22551024800F05CF800BFE5E789
:101E200000480040300000209800002010B586B027
:101E3000044601210820FFF7AFF801218804FFF7CD
:101E40009BF84FF48060ADF8140003208DF8160065
:101E500018208DF8170005A91C48FEF7C8FD4FF49F
:101E60000060ADF8140004208DF8170005A917488C
:101E7000FEF7BDFD27208DF8000003208DF801003E
:101E80008DF8020001208DF803006846FEF7F6FE8B
:101E900001940020ADF80800ADF80A00ADF80C0080
:101EA000ADF810000C20ADF80E0001A9084800F0B4
:101EB00091F8012240F22551054800F066F8012111
:101EC000034800F01FF806B010BD0000000C0140F0
:101ED0000048004001F40072B2F5007F00D100BF5D
:101EE000CA430280704710B50022002340F66A14EE
:101EF000A14200D100BF0A1201249440A3B2DC43E6
:101F0000048010BD21B1828942F40052828104E034
:101F100082894DF6FF731A40828170470246002085
:101F2000B1F5007F00D100BF13880B400BB1012039
:101F300000E00020704770B5024600240023002511
:101F4000002040F66A16B14200D100BFC1F342152D
:101F500001F01F03012606FA03F3012D02D1968931
:101F6000334006E0022D02D1168A334001E0968A02
:101F700033400C12012606FA04F41688344013B1DB
:101F80000CB1012000E0002070BDF0B50346002434
:101F900000260025002040F66A17B94200D100BF94
:101FA0001846C1F3421401F01F06012707FA06F58F
:101FB000012C01D10C3004E0022C01D1103000E0E2
:101FC00014301AB107682F43076002E00768AF4377
:101FD0000760F0BD2DE9F04786B005460E460024A7
:101FE000A24600BFA1460027B08900B100BF2F461E
:101FF0002C8A4CF6FF700440F08804432C82AC8994
:102000004EF6F3100440B0883189084371890843C3
:102010000443AC81AC8A4FF6FF400440B0890443CE
:10202000AC8201A8FEF7C8FF1F48874202D1DDF845
:1020300010A001E0DDF80CA0A88900F4004040B138
:102040000AEBCA0000EB0A1031684900B0FBF1F856
:1020500007E00AEBCA0000EB0A1031688900B0FB08
:10206000F1F86420B8FBF0F004012009642101FBC1
:102070001089A88900F4004040B1322000EBC9006B
:10208000B0FBF1F000F00700044308E0322000EB61
:1020900009106421B0FBF1F000F00F0004432C8123
:1020A00006B0BDE8F087000000380140014688888E
:1020B000C0F308007047C1F3080282807047000037
:1020C000F8B52A4890F8650001284ED1002027492C
:1020D00081F865006421264800F084F825490870DD
:1020E0000846017824A0FEF79BF8002406E020486B
:1020F000015D28A0FEF794F8601CC4B21D4800786A
:102100008442F4DB25A0FEF78BF81A480078801E85
:10211000C1B21748FEF742FD0546C5F30726EFB2E8
:1021200014480078801E1249085CB8420ED111484C
:102130000078401E085CB04208D119A0FEF770F884
:102140000C4801780A48FEF77BFE0EE0094800784B
:10215000401E0749085C009006480078801E0B5C12
:102160003A46314612A0FEF75BF8F8BDA400002005
:10217000940100205D0000200D0ACAD5B5BD4D6F49
:1021800064627573CFECD3A6282564D7D6BDDA294F
:102190003A20000025303258200000000D0A0000CF
:1021A000435243D0A3D1E9CDA8B9FD0D0A000000E8
:1021B000435243D0A3D1E9CAA7B0DC2120BCC6CB8F
:1021C000E34352433A2025303258253032582C20F0
:1021D000BDD3CAD54352433A202530325825303238
:1021E000580D0A0010B503460B4890F86400884269
:1021F00002DA094890F86410002205E00648805C85
:1022000018705B1C501CC2B28A42F7DB0020024CE3
:1022100084F86400084610BDA4000020154991F818
:102220006410002921DD134991F86410124A1278D4
:10223000914208D00F4991F864100F4A11700021A3
:102240000E4A117014E00D490978052910DA0B497E
:1022500009780144094A117011460978052907DBFC
:102260000121044A82F8651002E00021024A11703F
:1022700070470000A40000205A0000205B000020EE
:1022800000BFFEE730380A2801D201207047002045
:10229000704700BF7047000010B56FF00400FEF7F4
:1022A000F7FF0A4800680A49B0FBF1F009490870D5
:1022B0000846007800EB4001C1EBC0104FF6FF71FB
:1022C00001EAC0000449088010BD000000000020A1
:1022D00000127A0014000020160000200146114A66
:1022E00012784A434FF0E0235A6100229A611A465D
:1022F000126942F001021A6100BF4FF0E02210693A
:1023000000F001021AB100F48032002AF5D04FF03B
:10231000E022126922F001024FF0E0231A6100224C
:102320009A6170471400002010B53148FEF754FB45
:1023300000B2304908803048FEF74EFB00B22F490A
:1023400008802F48FEF748FB00B22E4908804FF066
:102350008040FEF741FB00B22B4908804FF08040DF
:10236000FEF79FF92448FEF79CF92548FEF799F9F6
:102370001F48FEF796F91F48B0F9000040F2EE2121
:10238000484340F2CB1190FBF1F4204600F09CFC56
:102390001E4908601948B0F9000040F2EE21484398
:1023A00040F2CB1190FBF1F4204600F08DFC18496F
:1023B00008601448B0F9000040F2EE21484340F2B2
:1023C000CB1190FBF1F4204600F07EFC114908602F
:1023D0000D48B0F9000040F2EE21484340F2CB1125
:1023E00090FBF1F4204600F06FFC0B49086010BD33
:1023F000000C004038000020000400403A0000209B
:10240000000800403C0000203E000020400000206A
:1024100044000020480000204C00002070B5044615
:102420000D46E1B20548FFF746FE00BF8021034894
:10243000FFF774FD0028F9D0204670BD0038014038
:10244000FFF72AFFFEF7D8FB4FF4E130FFF7EEFB72
:102450004FF41650FFF764FCFEF718FE4FF4E1301E
:10246000FFF7E4FC142140F60F60FFF76DFBFEF769
:10247000FFF800214FF4E150FEF738FCFEF714F9A5
:10248000FEF792F9FEF7EEF9FEF74AFA03E000F0E4
:1024900049F900F067F9FAE72DE9FC4782469AF816
:1024A0000000552801D0BDE8FC879AF801005128AA
:1024B0007DD19AF80200854908709AF80300844992
:1024C0000870084600788149097840EA012000B286
:1024D000804908800846B0F9000000F0DFFA0022C9
:1024E0007D4BCDE9000100F081F9804600227B4B55
:1024F00000F0ECFA06467A4A7A4B00F0E7FA044616
:1025000000F042F9784908609AF8040077490870A9
:102510009AF80500764908700846007873490978EA
:1025200040EA012000B26B4908800846B0F900007B
:1025300000F0B4FA80460022674B00F057F9002201
:10254000664BCDE9000100F0C1FA0646644A654BCE
:1025500000F0BCFA044600F017F9634948609AF8A5
:102560000600644908709AF8070063490870084635
:1025700000786049097840EA012000B25549088096
:102580000846B0F9000000F089FA06460022524BD6
:1025900000F02CF980460022504B00F097FA0446D8
:1025A0004F4A504B00F092FACDE9000100E017E0ED
:1025B00000F0EAF84C4988609AF809109AF8082067
:1025C00041EA022108B200F069FA064600224B4BAC
:1025D00000F00CF9044600F0D7F84949086072E0B1
:1025E0009AF8010053286ED19AF802004549087004
:1025F0009AF8030044490870084600784149097870
:1026000040EA012000B2334908800846B0F90000D2
:1026100000F044FA804600222F4B00F0E7F806460F
:1026200000223A4B00F052FA044600F0ADF8384967
:1026300008609AF80400374908709AF8050036498E
:102640000870084600783349097840EA012000B252
:10265000204908800846B0F9000000F01FFA8046C3
:1026600000221D4B00F0C2F806460022274B00F066
:102670002DFA044600F088F8254948609AF80600CB
:10268000264908709AF8070025490870084600781E
:102690002249097840EA012000B20E490880084624
:1026A000B0F9000000F0FAF9804600220A4B00F071
:1026B0009DF806460022154B00F008FA044600F08B
:1026C00063F81349886000BFEDE6000019000020A0
:1026D000180000202A0000200000E04000003040E8
:1026E0009A99999999992340740000201B00002021
:1026F0001A0000201D0000201C000020000059408E
:102700002C000020250000202400002000806640CE
:102710008C00002027000020260000202900002037
:102720002800002010B5FEF799FA4FF4B4610C4868
:10273000FFF777F9FEF700FD4FF4B4610848FFF7A3
:1027400072F9FEF77FFA4FF4B4610548FFF76DF9AF
:10275000FEF7E6FC4FF4B4610148FFF768F910BDDD
:102760000034014010B5FFF7ABFC0648007840B1DB
:102770002423102203210120FEF7A2FC002001499E
:10278000087010BD5000002021F00042A2F16052FC
:10279000B2F5801F01F0004328BFD2F17F6C0BD946
:1027A0005FEA001C43EAC20242EB507018BF704758
:1027B00028BF20F001007047B2F5801FBCBF18464B
:1027C00070474FEA410C1CF5001F02D2084600F08A
:1027D00093BA70B500F024FA00000089FFF7F6BF45
:1027E0004FF00040A0F58000704700002DE9C04187
:1027F00030B4DFF8A0C23CEA111418BF3CEA13144D
:1028000000F0EC8081EA03051CEA111444EAD57457
:1028100018BF1CEA131500F0C780A4EB05044FF0A5
:10282000004545EAC12145EAC32341EA505143EA44
:10283000525304F17F74994204F500344FEAC020EA
:102840004FEAC22208BF904200F09C804FEA136515
:102850000FF24016765D4FEA134506FB05F7C7F108
:10286000807706FB07F74FEAD737A7FB0368764266
:10287000C8F58038A7FB06CE38BFA8F1010807FBD2
:1028800008E64FF0000EA6FB028CE6FB03CEDCF15F
:10289000000CCEF1004E38BFAEF1010EA6FB0C5875
:1028A0004FF000074FF00005E6FB0E87A1FB08C6BE
:1028B000A0FB07CE16EB0E0645F10005E1FB076510
:1028C00015F1E04E7EBFA4F580345FEA46066D4107
:1028D00016F1800745F100054FEA17274FEA066613
:1028E00047EA0567A6F1DE46B6F1805F4FEA152597
:1028F0001FD9384624F0010C05EBC471BCF1FE6F02
:1029000001EB0C1102D8F0BCBDE8008124425CBF91
:1029100001F5801E9EEAC47F02D4F0BCBDE80081B0
:10292000244238D4F0BCA1F1C041BDE8004100F020
:10293000C5B94FEAD22242EA43524FEAD323A7FB5A
:1029400002864FEAD02040EA415007FB03661EEAA8
:102950000E0F4FEAD12105FB026658BFA6EB0056C9
:10296000B6EB00564FEA520E4EEAC37E18EB0E0E3F
:1029700056EB530EBDD518EB02085E417F1C55F196
:102980000005B6E74FF480154FF000074FF0000642
:102990004FF00008ADE7F0BC4FF0000001F1C0417E
:1029A00001F00041BDE8008111EA0C1F0CEA13158B
:1029B00000D00CE013EA0C1F00F025804FF000005F
:1029C000F0BC81EA030101F00041BDE80081F0BCE8
:1029D000BDE8004181EA030100F070B9F0BCBDE838
:1029E000004170B500F01CF9097EFC3E00F007B80C
:1029F00081EA03014FF0000001F00041704781EAD5
:102A0000030100F05BB9F0BCBDE800414FF00000ED
:102A100021497047FFFDFBF9F7F5F4F2F0EEEDEB1D
:102A2000E9E8E6E4E3E1E0DEDDDBDAD8D7D5D4D3CC
:102A3000D1D0CFCDCCCBCAC8C7C6C5C4C2C1C0BF18
:102A4000BEBDBCBBBAB9B8B7B6B5B4B3B2B1B0AF1E
:102A5000AEADACABAAA9A8A8A7A6A5A4A3A3A2A102
:102A6000A09F9F9E9D9C9C9B9A99999897979695BD
:102A700095949393929191908F8F8E8E8D8C8C8B59
:102A80008B8A8989888887878685858484838382E1
:102A9000828181800000FF070000F87F10F0004273
:102AA00048BF4042B0FA80F310FA03F10AD0C3F1F4
:102AB0001D0303F580634FEA415002EB035202EB22
:102AC000D12170474FF0000070470000DFF848C187
:102AD00070B51CEA111E1EBF1CEA13159EEA0C0FEE
:102AE00095EA0C0F00F06F8081EA030423EA4C138F
:102AF0004EEAD47E21EA4C1141F4801143F4801354
:102B0000AE44A1FB024CA0FB0365AEF17F7E3619FB
:102B100055EB0C05A1FB034C4CF10003A0FB021C80
:102B200016EB0C06654153F10003094218BF46F04D
:102B3000010613F4007F0BD14FEA03314FEA053051
:102B4000340341EA155140EA16506FF003020AE0DF
:102B50004FEAC3214FEAC520F40241EA555140EA49
:102B600056506FF0020202EB2E4201EB025585EA4D
:102B7000CE710AD05FEA440C18BF24F0004450F133
:102B8000000041F1000120EAD47040F2FE7C624571
:102B900000D270BDA84214BF4FF080444FF04044B3
:102BA000002E08BF0024BEF1806FA8BFA1F1C04174
:102BB000BDE8704080F282804FF0000001F1C0411A
:102BC00001F0004170479EEA0C0F0CEA131518BF84
:102BD00095EA0C0F06D04FF0000081EA030E0EF0CC
:102BE000004170BD00F01CF88900013E00F007B8FC
:102BF00000F009B84FEA430C5FEA5C5C08D081EA58
:102C0000030100F05BB84FEA410C5FEA5C5CF6D16F
:102C10004FF00000014970470000FF070000F87FF7
:102C20000EF1020E2EF0030E5EF8046B364205D450
:102C3000012A43EB030515F5001F12D8012841EBCB
:102C4000010C1CF5001F0CD80ED14FEAD17C15F5F4
:102C5000001F0CEB4C0C0CF1020C08BF4CEBD37CAE
:102C600004E04FF0080C01E04FEAD37C0CEB4C057C
:102C700026FA05F606F00706B6F1040C06D20EEBAE
:102C8000860CBDE870404CF0010C6047DFE80CF0AA
:102C9000090B02024FF000414FF00000A1F50021A6
:102CA00070BD19461046012851EB010418BFD4F538
:102CB000001484BF002001F0004170BD0808A0F599
:102CC00000114FEA3101704710F0004148BF404207
:102CD000B0FA80F310FA03F2C3F19D030BD051EA6E
:102CE000C35101EB1220530638BF704700F10100B9
:102CF00008BF20F001007047FF2141EAD050C00515
:102D00007047000000C1814001C0804101C0804186
:102D100000C1814001C0804100C1814000C18140AB
:102D200001C0804101C0804100C1814000C181409B
:102D300001C0804100C1814001C0804101C080418B
:102D400000C1814001C0804100C1814000C181407B
:102D500001C0804100C1814001C0804101C080416B
:102D600000C1814000C1814001C0804101C080415B
:102D700000C1814001C0804100C1814000C181404B
:102D800001C0804101C0804100C1814000C181403B
:102D900001C0804100C1814001C0804101C080412B
:102DA00000C1814000C1814001C0804101C080411B
:102DB00000C1814001C0804100C1814000C181400B
:102DC00001C0804100C1814001C0804101C08041FB
:102DD00000C1814001C0804100C1814000C18140EB
:102DE00001C0804101C0804100C1814000C18140DB
:102DF00001C0804100C1814001C0804101C08041CB
:102E000000C1814000C0C101C30302C2C60607C79A
:102E100005C5C404CC0C0DCD0FCFCE0E0ACACB0B0A
:102E2000C90908C8D81819D91BDBDA1A1EDEDF1F3A
:102E3000DD1D1CDC14D4D515D71716D6D21213D32A
:102E400011D1D010F03031F133F3F23236F6F737DA
:102E5000F53534F43CFCFD3DFF3F3EFEFA3A3BFBCA
:102E600039F9F83828E8E929EB2B2AEAEE2E2FEF7A
:102E70002DEDEC2CE42425E527E7E62622E2E323EA
:102E8000E12120E0A06061A163A3A26266A6A7671A
:102E9000A56564A46CACAD6DAF6F6EAEAA6A6BAB8A
:102EA00069A9A86878B8B979BB7B7ABABE7E7FBFBA
:102EB0007DBDBC7CB47475B577B7B67672B2B373AA
:102EC000B17170B05090915193535292965657975A
:102ED000559594549C5C5D9D5F9F9E5E5A9A9B5B4A
:102EE00099595898884849894B8B8A4A4E8E8F4FFA
:102EF0008D4D4C8C4484854587474686824243836A
:102F000041818040303132333435363738394142AF
:102F1000434445464030580030313233343536373B
:102F200038396162636465664030780004000008E7
:102F3000000000000000000200010000100000007E
:102F4000602F000800000020740000006C010008E1
:102F5000D42F000874000020E40700008801000856
:102F600000A24A0400000000000000000102030467
:102F70000607080900000000000000000000000033
:102F80000000000000000000000000000000000041
:102F90000000000000000000000000000000000031
:102FA0000000000000000000000000000000000021
:102FB0000000000000000000000000000000000011
:102FC00000000102030401020304060708090204C9
:042FD00006080000EF
:04000005080001DD11
:00000001FF
