:020000040800F2
:1000000070080020DD010008250B0008D10A000857
:10001000210B00087D0500089D1F0008000000005E
:10002000000000000000000000000000990E000821
:100030008105000800000000ED0C00080110000818
:10004000F7010008F7010008F7010008F7010008B0
:10005000F7010008F7010008F7010008F7010008A0
:10006000F7010008F7010008F7010008F701000890
:10007000F7010008F7010008F7010008F701000880
:10008000F7010008F7010008F7010008F701000870
:10009000F7010008F7010008F7010008F701000860
:1000A000F7010008A5120008F7010008F701000891
:1000B000F7010008F7010008F7010008F701000840
:1000C000F7010008F7010008F7010008F701000830
:1000D000F701000855190008191A0008091B000843
:1000E000F7010008F7010008F7010008F701000810
:1000F000F7010008F7010008F7010008F701000800
:10010000F7010008F7010008F7010008F7010008EF
:10011000F918000821190008F7010008F701000884
:10012000F7010008F7010008F7010008F7010008CF
:1001300000F002F800F042F80AA090E8000C8244B7
:100140008344AAF10107DA4501D100F037F8AFF294
:10015000090EBAE80F0013F0010F18BFFB1A43F0A5
:1001600001031847902A0000B02A0000103A24BF6B
:1001700078C878C1FAD8520724BF30C830C144BF0C
:1001800004680C607047000000230024002500264E
:10019000103A28BF78C1FBD8520728BF30C148BFEA
:1001A0000B607047642900F07B80782900F0B480F0
:1001B000002070471FB51FBD10B510BD00F096F9A7
:1001C0001146FFF7F7FF01F0C1FF00F0B4F903B4E7
:1001D000FFF7F2FF03BC01F0E3FE0000094880478F
:1001E00009480047FEE7FEE7FEE7FEE7FEE7FEE719
:1001F000FEE7FEE7FEE7FEE704480549054A064B31
:10020000704700000510000831010008700200204E
:100210007008002070040020700400207047000067
:100220000FB4044910B503AA029800F031F910BCCC
:100230005DF814FB340000202DE9F0410E46044621
:10024000002020622046E168884730B3252805D089
:10025000D4E901219047206A401CF2E7E16820467A
:1002600000278847050018D0A5F14100192802D8B9
:1002700020354FF400673246294620462760FFF7B5
:1002800091FF40B1012804D0F61D26F0070608367C
:10029000D8E7361DD6E72846DAE7206ABDE8F081C0
:1002A0002DE9F0410646002410687529314616A54F
:1002B00010D0AFF30080002802DA404213A507E017
:1002C00031688A0701D512A502E0490704D511A5B6
:1002D000012401E0AFF3008000210A2206F1240787
:1002E00009E0B0FBF2FCB0FBF2F302FB1C00303083
:1002F00078541846491C0028F3D123462A46304634
:10030000BDE8F04100F06AB8000000002D000000D8
:100310002B0000002000000070B504460D46214669
:100320001068AFF300802188090502D50F4A7A448E
:1003300002E00E4A7A440E32002104F1240305E063
:1003400000F00F060009965D5E54491C0028F7D1A5
:1003500020780023000704D5702D02D009B10223B4
:1003600011322046BDE8704000F038B89A280000ED
:1003700010B5203AC0F00B80B1E81850203AA0E840
:100380001850B1E81850A0E81850BFF4F5AF5FEA74
:10039000027C24BFB1E81850A0E8185044BF18C927
:1003A00018C0BDE810405FEA827C24BF51F8043BCE
:1003B00040F8043B08BF7047D20728BF31F8023B22
:1003C00048BF11F8012B28BF20F8023B48BF00F8B6
:1003D000012B704770477047704770472DE9F04711
:1003E0000D4699469246044600F1240801688806A5
:1003F00004D5E06921F01001216000E00120A8424D
:1004000001DD471B00E00027A1697A1902EB090012
:10041000081AA0612078C00602D42046AFF30080FD
:10042000002608E0D4E901211AF806009047206A66
:10043000401C761C20624E45F4DB2078C0060AD5AD
:100440002046AFF3008006E0D4E901213020904738
:10045000206A401C2062381EA7F10107F4DC07E087
:10046000D4E9012118F805009047206A401C206259
:10047000281EA5F10105F3DC2046AFF300802078AB
:10048000000602D50220BDE8F0870120FBE700004E
:10049000074B70B50D467B4400F011F80446284622
:1004A00000F020F810B14FF0FF3070BD204670BD55
:1004B0008F1C000001694A1C02610878704700B572
:1004C0008FB0CDE901310021059105497944CDE98D
:1004D000031011466846FFF7AFFE0FB000BD0000E5
:1004E000E5FFFFFF007B00F080007047754600F0DD
:1004F0002BF8AE4605006946534620F007008546B6
:1005000018B020B5FFF778FEBDE820404FF0000698
:100510004FF000074FF000084FF0000B21F00701EB
:10052000AC46ACE8C009ACE8C009ACE8C009ACE82E
:10053000C0098D46704710B50446AFF300802046D1
:10054000BDE81040FFF743BE00487047100200208E
:1005500008B50121802000F0DBFB40F2FF30ADF850
:10056000000010208DF8030003208DF8020069467A
:10057000014800F0ACF908BD001C014000BFFEE7D7
:10058000704700218184704700B587B0012108467B
:1005900000F0AEFB0121052000F0BAFB012108208C
:1005A00000F0B6FB0121344800F01CFA0121334869
:1005B00000F018FA04208DF80F004003ADF80C008D
:1005C00003208DF80E0003A92D4800F080F90420C7
:1005D0008DF80F000820ADF80C0003208DF80E00F8
:1005E00003A9284800F073F904A801F045F9002098
:1005F000ADF81600ADF812004FF6FF70ADF814001C
:100600000020ADF8100004A94FF0804001F0E2F89E
:10061000684600F03BFF0020ADF800000F20ADF869
:10062000080069464FF0804000F0DAFE0420ADF883
:1006300000000F20ADF8080069464FF0804000F040
:10064000CFFE00231A4603214FF0804000F095FEB4
:100650000121880700F070FE01221146900700F08A
:100660001EFF00214FF0804001F086F8012188072D
:1006700000F068FE07B000BD000318000002300063
:1006800000080140000C014000B587B001210220A4
:1006900000F02EFB0121042000F03AFB04208DF82D
:1006A0000F00C020ADF80C0003208DF80E0003A948
:1006B000224800F00CF90020ADF81600ADF8120049
:1006C0004FF6FF70ADF814000020ADF810008DF863
:1006D000180004A91A4801F07DF8684600F0D6FE1B
:1006E0000020ADF800000F20ADF80800694614485E
:1006F00000F076FE0420ADF800000F20ADF80800F1
:1007000069460F4800F06CFE00231A4603210C488E
:1007100000F033FE01210A4800F00EFE01221146CE
:10072000074800F0BCFE0021054801F025F8012132
:10073000034800F007FE07B000BD000000080140BC
:100740000004004000B587B00121042000F0D0FA79
:100750000121092000F0DCFA04208DF80F00C020F0
:10076000ADF80C0003208DF80E0003A9224800F01C
:10077000AEF804A801F080F80020ADF81600ADF83E
:1007800012004FF6FF70ADF814000020ADF8100015
:1007900004A91A4801F01EF8684600F077FE002010
:1007A000ADF800000F20ADF808006946134800F0CE
:1007B00017FE0420ADF800000F20ADF808006946D0
:1007C0000E4800F00DFE00231A4603210B4800F0EE
:1007D000D4FD0121094800F0AFFD01221146074870
:1007E00000F05DFE0021054800F0C6FF012103482E
:1007F00000F0A8FD07B000BD000C0140000800405B
:1008000000B587B00121082000F072FA0121042010
:1008100000F07EFA48208DF80F000320ADF80C00A0
:100820008DF80E0003A9224800F051F80020ADF821
:100830001600ADF812004FF6FF70ADF8140000205E
:10084000ADF810008DF8180004A91A4800F0C2FF96
:10085000684600F01BFE0020ADF800000F20ADF848
:1008600008006946134800F0BBFD0420ADF8000005
:100870000F20ADF8080069460E4800F0B1FD0023D6
:100880001A4603210B4800F078FD0121094800F0C9
:1008900053FD01221146074800F001FE00210548E2
:1008A00000F06AFF0121034800F04CFD07B000BDD5
:1008B00000080140000C004001460020888CC21353
:1008C00022B1C0F30E02A2F5FE40FF3870472DE9B9
:1008D000F0410246002500260020002300240027C6
:1008E00091F803C00CF00F0591F803C00CF0100C48
:1008F000BCF1000F03D091F802C04CEA050591F855
:1009000000C0BCF1000F31D0146800202BE04FF084
:10091000010C0CFA00F3B1F800C00CEA03069E4289
:1009200020D183004FF00F0C0CFA03F7BC4305FAFB
:1009300003FC4CEA040491F803C0BCF1280F06D173
:100940004FF0010C0CFA00FCC2F814C00AE091F858
:1009500003C0BCF1480F05D14FF0010C0CFA00FCAC
:10096000C2F810C0401C0828D1D31460B1F800C0F0
:10097000BCF1FF0F34DD546800202EE000F1080CBC
:100980004FF0010808FA0CF3B1F800C00CEA0306B6
:100990009E4221D183004FF00F0C0CFA03F7BC43A9
:1009A00005FA03FC4CEA040491F803C0BCF1280FDB
:1009B00005D100F1080C08FA0CF8C2F8148091F87F
:1009C00003C0BCF1480F07D100F1080C4FF001083B
:1009D00008FA0CF8C2F81080401C0828CED35460E6
:1009E000BDE8F081F0B50A4600230024002100256F
:1009F00000F00046B6F1004F02D11D4EF16901E052
:100A00001B4E7168C0F3034583B200F44016B6F57F
:100A1000401F08D121F07061154E766826F070668F
:100A2000134F7E6012E000F48016B6F5801F06D1E9
:100A3000032606FA05F4A14341F0706106E0460D75
:100A4000360103FA06F6B14341F0706122B1460D5A
:100A5000360103FA06F6314300F00046B6F1004FC6
:100A600002D1034EF16101E0014E7160F0BD000062
:100A700000000140016170472DE9F041ADF5007DB6
:100A800004460E46FF27B8467A1C0F4940A8FFF7D8
:100A90006FFC7A1C0D496846FFF76AFC09E014F800
:100AA000010B80EA070540A8405D80EA08071DF8B1
:100AB0000580301EA6F10101CEB2F0D148EA072030
:100AC0000DF5007DBDE8F081CC290008CC2A000896
:100AD00000BFFEE708B50121482000F019F92020E9
:100AE000ADF8000010208DF8030003208DF80200FF
:100AF00069460948FFF7EBFE20210748FFF7BAFFD8
:100B00002020ADF8000069460448FFF7E0FE2021F0
:100B10000248FFF7AFFF08BD000C0140001801407C
:100B200000BFFEE77047000070B5002100230F22D0
:100B3000C47804B3154C246804F4E064C4F5E0649C
:100B4000210AC1F10403CA40447804FA03F184780D
:100B50001440214309010E4C0678A155047804F095
:100B60001F050124AC4005786D11AD0005F1E025AD
:100B7000C5F8004109E0047804F01F050124AC40E9
:100B8000044D0678761145F8264070BD0CED00E066
:100B900000E400E080E100E030B589B005460C4695
:100BA0000121480300F0B4F80121102000F0B0F852
:100BB0004020ADF8200018208DF8230003208DF888
:100BC000220008A94748FFF782FE0121102000F00B
:100BD0009FF88020ADF8200018208DF82300032016
:100BE0008DF8220008A93F48FFF771FE012110206F
:100BF00000F08EF84FF48070ADF8200018208DF8CA
:100C0000230003208DF8220008A93648FFF75FFE75
:100C10000121102000F07CF84FF40070ADF82000A6
:100C200018208DF8230003208DF8220008A92D48F4
:100C3000FFF74DFEADF81850ADF814400020ADF8A8
:100C40001A00ADF8160005A9274800F0C3FD602082
:100C5000ADF804000120ADF806000020ADF80A0050
:100C6000ADF80C00ADF8100001A91F4800F020FC01
:100C700001A91D4800F072FC01A91B4800F0CEFC40
:100C800001A9194800F024FD0121174800F066FB76
:100C90000821154800F058FC0821134800F0B0FC6A
:100CA0000821114800F00AFD08210F4800F04EFD10
:100CB00001210D4800F034FB01210B4800F042FBFC
:100CC0000021094800F04FFD0021074800F04DFDCC
:100CD0000021054800F04BFD0021034800F049FDCC
:100CE00009B030BD001001400034014070470000E1
:100CF00029B1064AD2690243044BDA6104E0034A8F
:100D0000D2698243014BDA61704700000010024053
:100D100029B1064A92690243044B9A6104E0034AEE
:100D200092698243014B9A617047000000100240B3
:100D300030B500210022002400232D4D6D6805F000
:100D40000C0121B1042905D0082923D105E0294D42
:100D5000056022E0274D05601FE0254D6D6805F414
:100D60007012234D6D6805F48034022505EB924224
:100D70001CB9214D554305600BE01D4D6D6805F410
:100D800000351DB11C4D5543056002E0194D55431A
:100D9000056002E0174D056000BF00BF144D6D688F
:100DA00005F0F0010909154D6B5C0568DD404560F3
:100DB0000F4D6D6805F4E061090A104D6B5C4568E4
:100DC000DD4085600A4D6D6805F46051C90A0B4D20
:100DD0006B5C4568DD40C560054D6D6805F44041BC
:100DE000890B074D6B5CC568B5FBF3F5056130BD3C
:100DF0000010024000127A0000093D005900002056
:100E00006900002008B501212020FFF781FF802024
:100E1000ADF8000010208DF8030003208DF80200CB
:100E200069460348FFF753FD0248006808BD00000B
:100E3000001401409C8122422DE9FC4706460F46E2
:100E400014461D468DF800608DF8017020128DF853
:100E50000200E0B28DF8030028128DF80400E8B219
:100E60008DF8050006216846FFF706FE8046C8F3A8
:100E7000072A08F0FF098DF806A08DF807900821D1
:100E8000684600F00BF80120024981F86600BDE8D1
:100E9000FC870000A00000207047000070B50546E8
:100EA0000E4601200F490860052001F09DF800243E
:100EB0000CE0295D0C4800F09CFF00BF40210A486F
:100EC00000F0CAFE0028F9D0601CC4B2B442F0DBC6
:100ED000052001F089F80020044981F864000149E7
:100EE000086070BD9C81224200440040A0000020A8
:100EF00010B500F001F810BD0CB500200190009075
:100F00003348006840F480303149086000BF304801
:100F1000006800F4003000900198401C0190009897
:100F200018B90198B0F5A06FF1D12948006800F414
:100F3000003010B10120009001E0002000900098E6
:100F4000012843D12348006840F01000214908607F
:100F50000846006820F0030008600846006840F07A
:100F6000020008601A48406819494860084640680D
:100F700048600846406840F4806048600846406821
:100F800020F47C1048600846406840F4E81048604F
:100F90000846006840F08070086000BF0C48006898
:100FA00000F000700028F9D00948406820F00300E4
:100FB000074948600846406840F00200486000BFAA
:100FC0000348406800F00C000828F9D10CBD00006F
:100FD0000010024000200240042808D14FF0E02118
:100FE000096941F004014FF0E022116107E04FF080
:100FF000E021096921F004014FF0E02211617047FE
:101000007047000010B51348006840F00100114916
:10101000086008464068104908400E494860084684
:1010200000680E4908400B4908600846006820F433
:10103000802008600846406820F4FE0048604FF4B5
:101040001F008860FFF754FF4FF0006004490860FC
:1010500010BD0000001002400000FFF8FFFFF6FE88
:1010600008ED00E0F0B50C46154600220021068C84
:101070004FF6FE773E400684028B018C4FF60C76CD
:1010800032407E1C06EA03162E433243104EB04215
:101090000ED0104EB0420BD0B0F1804F08D00E4EA3
:1010A000B04205D00D4EB04202D00D4EB04206D136
:1010B0004FF6FD76314044F00106314305E04FF62E
:1010C000F576314044F00106314302830184F0BDDE
:1010D000002C0140003401400004004000080040A2
:1010E000000C0040F0B50C461546002200210026F9
:1010F000078C4FF6EF7C07EA0C070784028B018C04
:101100004FF6FF7707EA041640F6FF473A404FF6DE
:10111000FF7707EA03373A434FF6FF7707EA0527D9
:101120003A43114FB8420ED0104FB8420BD0B0F135
:10113000804F08D00E4FB84205D00E4FB84202D0B3
:101140000D4FB84206D14FF6DF77394046F0100711
:10115000394305E04FF65F77394044F010073943D3
:1011600002830184F0BD0000002C014000340140E6
:101170000004004000080040000C0040F0B50C46A0
:101180001546002200210026078C4FF6FF6C07EA67
:101190000C070784828B018C4FF6FF7707EA042641
:1011A0004FF60C773A404FF6FF7707EA03172F43C5
:1011B0003A43114FB8420ED0104FB8420BD0B0F1A5
:1011C000804F08D00E4FB84205D00E4FB84202D023
:1011D0000D4FB84206D14FF6FF57394046F480779D
:1011E000394305E04FF2FF57394044F480773943E3
:1011F00082830184F0BD0000002C014000340140D6
:101200000004004000080040000C0040F0B50C460F
:101210001546002200210026078C4EF6FF7C07EAC7
:101220000C070784828B018C4FF6FF7707EA0436A0
:1012300040F6FF473A404FF6FF7707EA05273A4363
:101240004FF6FF7707EA03373A43114FB8420ED003
:10125000104FB8420BD0B0F1804F08D00E4FB842BB
:1012600005D00E4FB84202D00D4FB84206D14DF610
:10127000FF77394046F48057394305E047F6FF577A
:10128000394044F48057394382830184F0BD000023
:10129000002C0140003401400004004000080040E0
:1012A000000C004010B50121184800F087F860B329
:1012B000012000F041FE16480078401C14490870D7
:1012C00014480088401C13490880114800781428ED
:1012D00004DB00200E49087000F0ACFE0D480088C9
:1012E000B0F5FA6F0DDB00200A4908800A48006853
:1012F00008B9012000E000200749086001200749E3
:1013000008700121014800F01AF810BD002C0140BE
:101310005100002052000020940123425000002080
:1013200021B1028842F08002028004E002884FF678
:101330007F731A4002807047CA4302827047CA43D3
:101340000282704721B1028842F00102028004E06B
:1013500002884FF6FE731A400280704731B1B0F830
:10136000442042F40042A0F8442005E0B0F84420B4
:10137000C2F30E02A0F844207047F0B50C461546A3
:101380001E460021002200230189028B038C4FF6A8
:10139000F877394021434FF6FC473A4040F20117B5
:1013A0003A434FF6DD773B404FF6FF7707EA0617E3
:1013B0002F433B43018102830384F0BD30B50246D5
:1013C000002000230024158A05EA0103958905EA17
:1013D000010413B10CB1012000E0002030BD000079
:1013E00070B505460C46244885420ED023488542F8
:1013F0000BD0B5F1804F08D02148854205D0214857
:10140000854202D02048854200D100E000BF2088FC
:1014100050B92389A28861882846FFF723FEE18816
:10142000284600F0ABF925E0208804280AD123895A
:10143000A28861882846FFF755FEE188284600F01B
:10144000A6F917E0208808280AD12389A288618894
:101450002846FFF793FEE188284600F0A5F909E049
:101460002389A28861882846FFF7D0FEE1882846B4
:1014700000F0A3F970BD0000002C014000340140D1
:101480000004004000080040000C004000210180E2
:101490004180012181800021C180018170471AB102
:1014A00083890B43838102E083898B438381704767
:1014B00070B5002400220023058C4FF6FE763540DF
:1014C0000584028C8388048B4FF68F752C40B51EE3
:1014D0002C400D882C43751E2A400D892A434D88C7
:1014E0002A43144DA8420BD0134DA84208D0134DE7
:1014F000A84205D0124DA84202D0124DA84213D1E5
:101500004FF6F7752A404D892A434FF6FB752A405E
:101510008D882A434FF6FF652B404FF6FF552B4031
:101520008D892B43CD892B4383800483CD88858689
:10153000028470BD002C0140003401400040014095
:1015400000440140004801400A460021018B4FF64B
:10155000F7731940114301837047000070B50024F0
:1015600000220023058C4FF6EF7635400584028C6F
:101570008388048B48F6FF752C404FF6FF452C40BE
:101580000D884FF6FF7606EA05252C434FF6DF75EA
:101590002A400D8906EA05152A434D8806EA0515F5
:1015A0002A43154DA84202D0144DA8421DD14FF632
:1015B0007F752A404D894FF6FF7606EA05152A43C6
:1015C0004FF6BF752A408D8806EA05152A434FF667
:1015D000FF352B404FF2FF752B408D8906EA8505BC
:1015E0002B43CD8906EA85052B4383800483CD8870
:1015F0000587028470BD0000002C014000340140CA
:101600000A460021018B4FF2FF7319404FF6FF731A
:1016100003EA0223194301837047000070B50024D8
:1016200000220023058C4FF6FF6635400584028CAE
:101630008388848B4FF68F752C404FF6FC752C40B9
:101640000D882C434FF6FF552A400D894FF6FF7643
:1016500006EA05252A434D8806EA05252A43154D45
:10166000A84202D0144DA8421DD14FF2FF752A4066
:101670004D894FF6FF7606EA05252A434FF6FF35DA
:101680002A408D8806EA05252A434EF6FF752B4031
:101690004DF6FF752B408D8906EA05152B43CD8944
:1016A00006EA05152B4383808483CD8885870284D1
:1016B00070BD0000002C0140003401400A460021AA
:1016C000818B4FF6F77319401143818370470000F7
:1016D00070B5002200230024058C4EF6FF763540BD
:1016E0000584038C8488828B48F6FF752A404FF668
:1016F000FF452A400D884FF6FF7606EA05252A4366
:101700004DF6FF752B400D8906EA05352B434D88B4
:1017100006EA05352B430B4DA84202D00A4DA842DC
:1017200008D14BF6FF752C408D894FF6FF7606EAFF
:1017300085152C4384808283CD88A0F84050038493
:1017400070BD0000002C0140003401400A46002119
:10175000818B4FF2FF7319404FF6FF7303EA0223A8
:10176000194381837047818670470187704781875D
:101770007047A0F84010704781847047028B4FF685
:10178000F3731A400283028B0A4302837047028B71
:101790004FF2FF331A400283028B4FF6FF7303EAC6
:1017A00001231A4302837047828B4FF6F3731A406A
:1017B0008283828B0A4382837047828B4FF2FF338E
:1017C0001A408283828B4FF6FF7303EA01231A4388
:1017D00082837047002202881D4B98420ED01D4B19
:1017E00098420BD0B0F1804F08D01B4B984205D0E7
:1017F0001A4B984202D01A4B984204D14FF68F737D
:101800001A404B881A43174B984207D0164B984200
:1018100004D04FF6FF431A40CB881A4302808B88CE
:1018200083850B8803850A4B98420BD0094B98425D
:1018300008D00E4B984205D00D4B984202D00D4B6C
:10184000984201D10B7A03860123838270470000FE
:10185000002C01400034014000040040000800401A
:10186000000C004000100040001400400040014007
:1018700000440140004801404FF6FF718180002183
:101880000180C18041800172704700007FB504462D
:101890000D460121C802FFF73BFAADF80840681E6B
:1018A00080B2ADF804000020ADF80A00ADF80600E3
:1018B0008DF80C0001A90F48FFF78CFF01210D489E
:1018C000FFF73AFD012241210A48FFF7E8FD192000
:1018D0008DF8000000208DF801008DF80200012035
:1018E0008DF803006846FFF71FF901210148FFF753
:1018F00029FD7FBD002C014010B540F2255107485D
:1019000000F0B7F9012808D1044800F06DFAC4B21C
:1019100040F22551014800F07BF910BD004C004019
:1019200010B540F225510A4800F0A3F9012808D16A
:1019300040F22551064800F06BF9054800F054FAD2
:10194000C4B240F22551024800F062F910BD000017
:101950000050004010B540F22551044800F089F9CC
:1019600018B1024800F040FAC4B210BD003801407E
:1019700010B586B00446012144F20400FFF7C8F90F
:1019800001210846FFF7C4F94FF40070ADF81400C8
:1019900003208DF8160018208DF8170005A91C48A3
:1019A000FEF795FF4FF48060ADF8140004208DF829
:1019B000170005A91648FEF78AFF25208DF80000BC
:1019C00003208DF801008DF8020001208DF803003E
:1019D0006846FFF7A9F801940020ADF80800ADF8BB
:1019E0000A00ADF80C00ADF810000C20ADF80E00A8
:1019F00001A9084800F08CF9012240F22551054860
:101A000000F061F90121034800F01AF906B010BD99
:101A1000000801400038014010B540F225510F4840
:101A200000F027F9C0B10D4800F0DEF9C4B240F271
:101A300025510A4800F0F5F8094890F86400642838
:101A40000ADA074890F8640005490C54084690F8F3
:101A50006400401C81F8640010BD00000044004098
:101A6000A000002010B586B0044601210420FFF735
:101A70004FF901214804FFF73BF90420ADF81400A9
:101A800003208DF8160018208DF8170005A91C48B2
:101A9000FEF71DFF0820ADF8140004208DF8170094
:101AA00005A91748FEF713FF26208DF80000032034
:101AB0008DF801008DF8020001208DF803006846C2
:101AC000FFF732F801940020ADF80800ADF80A00E5
:101AD000ADF80C00ADF810000C20ADF80E0001A917
:101AE000084800F015F9012240F22551054800F0A0
:101AF000EAF80121034800F0A3F806B010BD000089
:101B0000000801400044004010B540F22551134840
:101B100000F0AFF800B3114800F066F9C4B2104805
:101B2000007810B9552C00D010BD0D480178007810
:101B3000401C0B4A10700B484454104600780B2888
:101B400005D1084800F02CFB00200549087040F240
:101B50002551024800F05CF800BFE5E7004800406E
:101B6000300000209400002010B586B0044601210A
:101B70000820FFF7CDF801218804FFF7B9F84FF4EA
:101B80008060ADF8140003208DF8160018208DF841
:101B9000170005A91C48FEF79AFE4FF40060ADF847
:101BA000140004208DF8170005A91748FEF78FFED2
:101BB00027208DF8000003208DF801008DF8020029
:101BC00001208DF803006846FEF7AEFF0194002067
:101BD000ADF80800ADF80A00ADF80C00ADF8100043
:101BE0000C20ADF80E0001A9084800F091F8012280
:101BF00040F22551054800F066F80121034800F045
:101C00001FF806B010BD0000000C01400048004065
:101C100001F40072B2F5007F00D100BFCA43028018
:101C2000704710B50022002340F66A14A14200D18B
:101C300000BF0A1201249440A3B2DC43048010BD0B
:101C400021B1828942F40052828104E082894DF6FA
:101C5000FF731A408281704702460020B1F5007F71
:101C600000D100BF13880B400BB1012000E0002021
:101C7000704770B50246002400230025002040F67E
:101C80006A16B14200D100BFC1F3421501F01F0333
:101C9000012606FA03F3012D02D19689334006E0AE
:101CA000022D02D1168A334001E0968A33400C128D
:101CB000012606FA04F41688344013B10CB1012051
:101CC00000E0002070BDF0B503460024002600258A
:101CD000002040F66A17B94200D100BF1846C1F390
:101CE000421401F01F06012707FA06F5012C01D165
:101CF0000C3004E0022C01D1103000E014301AB195
:101D000007682F43076002E00768AF430760F0BD34
:101D10002DE9F04786B005460E460024A24600BFD6
:101D2000A1460027B08900B100BF2F462C8A4CF68F
:101D3000FF700440F08804432C82AC894EF6F31007
:101D40000440B08831890843718908430443AC8159
:101D5000AC8A4FF6FF400440B0890443AC8201A82E
:101D6000FEF7E6FF1F48874202D1DDF810A001E030
:101D7000DDF80CA0A88900F4004040B10AEBCA00CD
:101D800000EB0A1031684900B0FBF1F807E00AEBFC
:101D9000CA0000EB0A1031688900B0FBF1F864203A
:101DA000B8FBF0F004012009642101FB1089A88927
:101DB00000F4004040B1322000EBC900B0FBF1F06C
:101DC00000F00700044308E0322000EB0910642112
:101DD000B0FBF1F000F00F0004432C8106B0BDE829
:101DE000F08700000038014001468888C0F30800F1
:101DF0007047C1F308028280704700002DE9F0416E
:101E0000284890F8650001284AD10020254981F82A
:101E100065004021244800F073F824490870084602
:101E20000078801EC1B22048FEF726FE0546C5F3A5
:101E30000726EFB21EA0FEF7F3F9002407E01A48C8
:101E4000025D21461EA0FEF7EBF9601CC4B21748E4
:101E500000788442F3DB15480078801E1249085C44
:101E6000B0421AD111480078401E085CB84214D123
:101E70000846407803280BD108460179C07801EB69
:101E80000020174908800846018816A0FEF7C8F907
:101E90000020044981F8660002E015A0FEF7C0F9B1
:101EA000BDE8F081A0000020D001002058000020F3
:101EB000343835BDD3CAD5CAFDBEDD0D0A000000D9
:101EC000343835BDD3CAD5B5C4D6B5203D206275EA
:101ED000665B25645D203D202578200D0A0000000A
:101EE00054000020CAFDBEDDCEAAA3BA25640000BE
:101EF000BDD3CAD5B3F6CFD6B4EDCEF30D0A0000EC
:101F000010B503460B4890F86400884202DA09488D
:101F100090F86410002205E00648805C18705B1C95
:101F2000501CC2B28A42F7DB0020024C84F86400E5
:101F3000084610BDA0000020154991F86410002942
:101F400021DD134991F86410124A1278914208D0A9
:101F50000F4991F864100F4A117000210E4A117058
:101F600014E00D490978032910DA0B490978014476
:101F7000094A117011460978032907DB0121044A37
:101F800082F8651002E00021024A117070470000DB
:101F9000A0000020560000205700002000BFFEE7F0
:101FA00000BF704710B56FF00400FFF715F80A483E
:101FB00000680A49B0FBF1F009490870084600784A
:101FC00000EB4001C1EBC0104FF6FF7101EAC00009
:101FD0000449088010BD00000000002000127A00B3
:101FE00014000020160000200146114A12784A43CE
:101FF0004FF0E0235A6100229A611A46126942F0BA
:1020000001021A6100BF4FF0E022106900F00102E6
:102010001AB100F48032002AF5D04FF0E0221269A4
:1020200022F001024FF0E0231A6100229A6170470A
:102030001400002010B53148FEF73EFC00B23049D4
:1020400008803048FEF738FC00B22F4908802F483E
:10205000FEF732FC00B22E4908804FF08040FEF7B8
:102060002BFC00B22B4908804FF08040FEF789FA24
:102070002448FEF786FA2548FEF783FA1F48FEF744
:1020800080FA1F48B0F9000040F2EE21484340F2C8
:10209000CB1190FBF1F4204600F07AFC1E49086059
:1020A0001948B0F9000040F2EE21484340F2CB114C
:1020B00090FBF1F4204600F06BFC184908601448CE
:1020C000B0F9000040F2EE21484340F2CB1190FB02
:1020D000F1F4204600F05CFC114908600D48B0F9AD
:1020E000000040F2EE21484340F2CB1190FBF1F4A6
:1020F000204600F04DFC0B49086010BD000C00406C
:1021000038000020000400403A0000200008004091
:102110003C0000203E000020400000204400002041
:10212000480000204C00002070B504460D46E1B286
:102130000548FFF75EFE00BF80210348FFF78CFDD6
:102140000028F9D0204670BD00380140FFF72AFF73
:10215000FEF7C0FC4FF4E130FFF70AFC4FF41650D5
:10216000FFF780FCFEF74EFE4FF4E130FFF7FCFC7A
:10217000142140F60F60FFF789FBFEF7E9F9002113
:102180004FF4E150FEF708FDFEF7FEF9FEF77CFA8A
:10219000FEF7D8FAFEF734FB01E000F047F9FCE760
:1021A0002DE9FC4782469AF80000552801D0BDE889
:1021B000FC879AF8010051287DD19AF802008549E0
:1021C00008709AF80300844908700846007881492D
:1021D000097840EA012000B2804908800846B0F939
:1021E000000000F0BFFA00227D4BCDE9000100F0B5
:1021F00061F9804600227B4B00F0CCFA06467A4A11
:102200007A4B00F0C7FA044600F022F978490860DA
:102210009AF80400774908709AF805007649087022
:10222000084600787349097840EA012000B26B49FA
:1022300008800846B0F9000000F094FA80460022B9
:10224000674B00F037F90022664BCDE9000100F042
:10225000A1FA0646644A654B00F09CFA044600F079
:10226000F7F8634948609AF80600644908709AF8DC
:10227000070063490870084600786049097840EA19
:10228000012000B2554908800846B0F9000000F06E
:1022900069FA06460022524B00F00CF980460022F3
:1022A000504B00F077FA04464F4A504B00F072FA58
:1022B000CDE9000100E017E000F0CAF84C49886061
:1022C0009AF809109AF8082041EA022108B200F0B1
:1022D00049FA064600224B4B00F0ECF8044600F0A9
:1022E000B7F84949086072E09AF8010053286ED1A6
:1022F0009AF80200454908709AF8030044490870AA
:10230000084600784149097840EA012000B2334983
:1023100008800846B0F9000000F024FA8046002248
:102320002F4B00F0C7F8064600223A4B00F032FA75
:10233000044600F08DF8384908609AF804003749DF
:1023400008709AF805003649087008460078334945
:10235000097840EA012000B2204908800846B0F917
:10236000000000F0FFF9804600221D4B00F0A2F8AB
:1023700006460022274B00F00DFA044600F068F8EC
:10238000254948609AF80600264908709AF807001F
:1023900025490870084600782249097840EA01205A
:1023A00000B20E4908800846B0F9000000F0DAF9E2
:1023B000804600220A4B00F07DF806460022154BAD
:1023C00000F0E8F9044600F043F81349886000BFC4
:1023D000EDE6000019000020180000202A0000206F
:1023E0000000E040000030409A9999999999234063
:1023F000700000201B0000201A0000201D0000209B
:102400001C000020000059402C0000202500002066
:102410002400002000806640880000202700002063
:1024200026000020290000202800002010B5FFF71A
:10243000E5FC0648007840B101231A4603211846FE
:10244000FEF7FAFC00200149087010BD5000002082
:1024500021F00042A2F16052B2F5801F01F000436A
:1024600028BFD2F17F6C0BD95FEA001C43EAC2029D
:1024700042EB507018BF704728BF20F00100704732
:10248000B2F5801FBCBF184670474FEA410C1CF5DF
:10249000001F02D2084600F093BA70B500F024FA8B
:1024A00000000089FFF7F6BF4FF00040A0F5800064
:1024B000704700002DE9C04130B4DFF8A0C23CEA0B
:1024C000111418BF3CEA131400F0EC8081EA0305F4
:1024D0001CEA111444EAD57418BF1CEA131500F065
:1024E000C780A4EB05044FF0004545EAC12145EA49
:1024F000C32341EA505143EA525304F17F74994295
:1025000004F500344FEAC0204FEAC22208BF9042CF
:1025100000F09C804FEA13650FF24016765D4FEA9B
:10252000134506FB05F7C7F1807706FB07F74FEA6F
:10253000D737A7FB03687642C8F58038A7FB06CEDD
:1025400038BFA8F1010807FB08E64FF0000EA6FB14
:10255000028CE6FB03CEDCF1000CCEF1004E38BF5E
:10256000AEF1010EA6FB0C584FF000074FF000052E
:10257000E6FB0E87A1FB08C6A0FB07CE16EB0E06F6
:1025800045F10005E1FB076515F1E04E7EBFA4F5BE
:1025900080345FEA46066D4116F1800745F100057B
:1025A0004FEA17274FEA066647EA0567A6F1DE46B7
:1025B000B6F1805F4FEA15251FD9384624F0010C8B
:1025C00005EBC471BCF1FE6F01EB0C1102D8F0BC3D
:1025D000BDE8008124425CBF01F5801E9EEAC47FF5
:1025E00002D4F0BCBDE80081244238D4F0BCA1F193
:1025F000C041BDE8004100F0C5B94FEAD22242EA2D
:1026000043524FEAD323A7FB02864FEAD02040EA89
:10261000415007FB03661EEA0E0F4FEAD12105FB6E
:10262000026658BFA6EB0056B6EB00564FEA520EB4
:102630004EEAC37E18EB0E0E56EB530EBDD518EBCB
:1026400002085E417F1C55F10005B6E74FF4801586
:102650004FF000074FF000064FF00008ADE7F0BC68
:102660004FF0000001F1C04101F00041BDE80081E0
:1026700011EA0C1F0CEA131500D00CE013EA0C1F32
:1026800000F025804FF00000F0BC81EA030101F06A
:102690000041BDE80081F0BCBDE8004181EA0301D2
:1026A00000F070B9F0BCBDE8004170B500F01CF955
:1026B000097EFC3E00F007B881EA03014FF00000FC
:1026C00001F00041704781EA030100F05BB9F0BC02
:1026D000BDE800414FF0000021497047FFFDFBF9C4
:1026E000F7F5F4F2F0EEEDEBE9E8E6E4E3E1E0DE45
:1026F000DDDBDAD8D7D5D4D3D1D0CFCDCCCBCAC8B7
:10270000C7C6C5C4C2C1C0BFBEBDBCBBBAB9B8B7DD
:10271000B6B5B4B3B2B1B0AFAEADACABAAA9A8A8D0
:10272000A7A6A5A4A3A3A2A1A09F9F9E9D9C9C9B9E
:102730009A99999897979695959493939291919049
:102740008F8F8E8E8D8C8C8B8B8A898988888787DA
:102750008685858484838382828181800000FF074F
:102760000000F87F10F0004248BF4042B0FA80F30A
:1027700010FA03F10AD0C3F11D0303F580634FEA99
:10278000415002EB035202EBD12170474FF00000A1
:1027900070470000DFF848C170B51CEA111E1EBF6B
:1027A0001CEA13159EEA0C0F95EA0C0F00F06F80DF
:1027B00081EA030423EA4C134EEAD47E21EA4C1149
:1027C00041F4801143F48013AE44A1FB024CA0FB02
:1027D0000365AEF17F7E361955EB0C05A1FB034C6A
:1027E0004CF10003A0FB021C16EB0C06654153F1F3
:1027F0000003094218BF46F0010613F4007F0BD115
:102800004FEA03314FEA0530340341EA155140EAFB
:1028100016506FF003020AE04FEAC3214FEAC520C9
:10282000F40241EA555140EA56506FF0020202EBC1
:102830002E4201EB025585EACE710AD05FEA440CC4
:1028400018BF24F0004450F1000041F1000120EADB
:10285000D47040F2FE7C624500D270BDA84214BF25
:102860004FF080444FF04044002E08BF0024BEF1DA
:10287000806FA8BFA1F1C041BDE8704080F28280A6
:102880004FF0000001F1C04101F0004170479EEAA5
:102890000C0F0CEA131518BF95EA0C0F06D04FF079
:1028A000000081EA030E0EF0004170BD00F01CF83C
:1028B0008900013E00F007B800F009B84FEA430C68
:1028C0005FEA5C5C08D081EA030100F05BB84FEA84
:1028D000410C5FEA5C5CF6D14FF0000001497047A3
:1028E0000000FF070000F87F0EF1020E2EF0030E2D
:1028F0005EF8046B364205D4012A43EB030515F557
:10290000001F12D8012841EB010C1CF5001F0CD848
:102910000ED14FEAD17C15F5001F0CEB4C0C0CF1DD
:10292000020C08BF4CEBD37C04E04FF0080C01E034
:102930004FEAD37C0CEB4C0526FA05F606F00706A9
:10294000B6F1040C06D20EEB860CBDE870404CF0DC
:10295000010C6047DFE80CF0090B02024FF0004168
:102960004FF00000A1F5002170BD19461046012866
:1029700051EB010418BFD4F5001484BF002001F00E
:10298000004170BD0808A0F500114FEA3101704701
:1029900010F0004148BF4042B0FA80F310FA03F251
:1029A000C3F19D030BD051EAC35101EB1220530632
:1029B00038BF704700F1010008BF20F001007047E8
:1029C000FF2141EAD050C0057047000000C181409E
:1029D00001C0804101C0804100C1814001C08041EF
:1029E00000C1814000C1814001C0804101C08041DF
:1029F00000C1814000C1814001C0804100C18140CF
:102A000001C0804101C0804100C1814001C08041BE
:102A100000C1814000C1814001C0804100C18140AE
:102A200001C0804101C0804100C1814000C181409E
:102A300001C0804101C0804100C1814001C080418E
:102A400000C1814000C1814001C0804101C080417E
:102A500000C1814000C1814001C0804100C181406E
:102A600001C0804101C0804100C1814000C181405E
:102A700001C0804101C0804100C1814001C080414E
:102A800000C1814000C1814001C0804100C181403E
:102A900001C0804101C0804100C1814001C080412E
:102AA00000C1814000C1814001C0804101C080411E
:102AB00000C1814000C1814001C0804100C181400E
:102AC00001C0804101C0804100C1814000C0C101FE
:102AD000C30302C2C60607C705C5C404CC0C0DCD8E
:102AE0000FCFCE0E0ACACB0BC90908C8D81819D9FE
:102AF0001BDBDA1A1EDEDF1FDD1D1CDC14D4D5152E
:102B0000D71716D6D21213D311D1D010F03031F11D
:102B100033F3F23236F6F737F53534F43CFCFD3D4D
:102B2000FF3F3EFEFA3A3BFB39F9F83828E8E9293D
:102B3000EB2B2AEAEE2E2FEF2DEDEC2CE42425E5ED
:102B400027E7E62622E2E323E12120E0A06061A15D
:102B500063A3A26266A6A767A56564A46CACAD6D0D
:102B6000AF6F6EAEAA6A6BAB69A9A86878B8B9797D
:102B7000BB7B7ABABE7E7FBF7DBDBC7CB47475B5AD
:102B800077B7B67672B2B373B17170B0509091519D
:102B90009353529296565797559594549C5C5D9DCD
:102BA0005F9F9E5E5A9A9B5B9959589888484989BD
:102BB0004B8B8A4A4E8E8F4F8D4D4C8C448485456D
:102BC0008747468682424383418180403031323399
:102BD0003435363738394142434445464030580051
:102BE0003031323334353637383961626364656683
:102BF00040307800142C0008000000207000000015
:102C00006C010008842C00087000002000080000FF
:102C10008801000800A24A04000000000000000033
:102C2000010203040607080900000000000000007C
:102C30000000000000000000000000000000000094
:102C40000000000000000000000000000000000084
:102C50000000000000000000000000000000000074
:102C60000000000000000000000000000000000064
:102C70000001020304010203040607080902040616
:042C80000800000048
:04000005080001DD11
:00000001FF
