:020000040800F2
:10000000C0090020F1010008E91A0008651A00087B
:10001000E51A0008251500088933000800000000D3
:10002000000000000000000000000000C5220008E1
:100030002915000800000000E92000082D24000810
:100040000B0200080B0200080B0200080B0200085C
:100050000B0200080B0200080B0200080B0200084C
:100060000B0200080B0200080B0200080B0200083C
:100070000B0200080B0200080B0200080B0200082C
:100080000B0200080B0200080B0200080B0200081C
:100090000B0200080B0200080B0200080B0200080C
:1000A0000B020008D12600080B0200080B02000812
:1000B0000B0200080B0200080B0200080B020008EC
:1000C0000B0200080B0200080B0200080B020008DC
:1000D0000B0200087D2D0008412E0008392F000872
:1000E0000B0200080B0200080B0200080B020008BC
:1000F0000B0200080B0200080B0200080B020008AC
:100100000B0200080B0200080B0200080B0200089B
:10011000212D0008492D00080B0200080B020008E1
:100120000B0200080B0200080B0200080B0200087B
:1001300000F002F800F04DF80AA090E8000C8244AC
:100140008344AAF10107DA4501D100F042F8AFF289
:10015000090EBAE80F0013F0010F18BFFB1A43F0A5
:1001600001031847D8420000F8420000103A24BFAB
:1001700078C878C1FAD8520724BF30C830C144BF0C
:1001800004680C607047000000230024002500264E
:10019000103A28BF78C1FBD8520728BF30C148BFEA
:1001A0000B607047662903F0DF87642900F07680D2
:1001B000782900F0AF80002070471FB500F04AFC9E
:1001C00004000020002103F033FBE0601FBD10B5E8
:1001D00010BD00F05BFD1146FFF7EFFF03F04EF995
:1001E00000F079FD03B4FFF7F2FF03BC03F0E9F878
:1001F0000948804709480047FEE7FEE7FEE7FEE7BB
:10020000FEE7FEE7FEE7FEE7FEE7FEE704480549F6
:10021000054A064B704700003124000831010008F0
:10022000C0030020C0090020C0050020C005002038
:10023000704700000FB4044910B503AA029800F0FB
:10024000F7FB10BC5DF814FB3400002070B50446C9
:1002500085690068C10601D5302600E02026C00768
:1002600007D070BDD4E9012130469047206A401C78
:1002700020626D1EF6D570BD70B5044685690078A4
:10028000C00707D170BDD4E9012120209047206A22
:10029000401C20626D1EF6D570BD00002DE9F041B6
:1002A0000646002410687529314616A510D0AFF314
:1002B0000080002802DA404213A507E031688A076F
:1002C00001D512A502E0490704D511A5012401E0DA
:1002D000AFF3008000210A2206F1240709E0B0FBF9
:1002E000F2FCB0FBF2F302FB1C00303078541846ED
:1002F000491C0028F3D123462A463046BDE8F04188
:1003000000F02EB9000000002D0000002B000000BE
:100310002000000070B504460D4621461068AFF37A
:1003200000802188090502D50F4A7A4402E00E4A6E
:100330007A440E32002104F1240305E000F00F0698
:100340000009965D5E54491C0028F7D120780023EF
:10035000000704D5702D02D009B1022311322046C6
:10036000BDE8704000F0FCB83E4000002DE9F05FB1
:10037000894604464FF0000ADFF874B1FB44C0F828
:1003800020A02046E1688847002874D0252806D0A0
:10039000D4E901219047206A401C2062F1E7002641
:1003A0005F462046E16888472028054607DB312D57
:1003B00005D2781910F8200C08B10643F1E7B00710
:1003C00001D526F00406C4F81CA00027C4F818A024
:1003D0002A2D09D0284602F0EDFF38B304EB870838
:1003E000303DC8F8185019E059F8041B204604EBBA
:1003F00087029161E1688847012F054618D1E069BD
:10040000002820DA26F020061DE0D8F8180000EBBE
:10041000800005EB40003038C8F818002046E1683D
:100420008847054602F0C6FF0028EED1012F0AD00A
:100430002E2D08D12046E16888477F1C0546022FF3
:1004400046F02006C4DBA069002803DA404246F0EB
:100450000106A061F00701D026F010066C2D0BD02C
:10046000682D09D04C2D39D06A2D35D0742D35D05A
:100470007A2D33D016E038E0E1682F4620468847D1
:10048000B842054609D16C2F26D04FF48060E16850
:10049000064320468847054604E06C2F1AD04FF4E7
:1004A000807006430DB3A5F14100192802D820350C
:1004B00046F400664A462946204626604E46FFF727
:1004C00071FE80B101280BD0F61D26F0070000F167
:1004D000080956E74020E4E78020D8E70020D6E767
:1004E00006F104094DE7284652E7206ABDE8F09F6F
:1004F0001440000010B5203AC0F00B80B1E818504D
:10050000203AA0E81850B1E81850A0E81850BFF4FD
:10051000F5AF5FEA027C24BFB1E81850A0E818509C
:1005200044BF18C918C0BDE810405FEA827C24BFF0
:1005300051F8043B40F8043B08BF7047D20728BF7E
:1005400031F8023B48BF11F8012B28BF20F8023BCD
:1005500048BF00F8012B70477047704770477047DD
:100560002DE9F0470D4699469246044600F12408CD
:100570000168880604D5E06921F01001216000E0DF
:100580000120A84201DD471B00E00027A1697A197C
:1005900002EB0900081AA0612078C00602D42046A8
:1005A000FFF754FE002608E0D4E901211AF80600FE
:1005B0009047206A401C761C20624E45F4DB207870
:1005C000C0060AD52046FFF741FE06E0D4E9012126
:1005D00030209047206A401C2062381EA7F1010796
:1005E000F4DC07E0D4E9012118F805009047206AFF
:1005F000401C2062281EA5F10105F3DC2046FFF710
:100600003BFE2078000602D50220BDE8F0870120DD
:10061000FBE770472DE9FF4F0C461E464FF0FF37B2
:100620008BB0D2E90001DDF860800A908A46C1F300
:100630000A5505B93D46002108464FF00000BAF1C1
:10064000000F00F4400005DA00EB80004FF4400199
:1006500001EA50004FEA9059B9F1010F00DDB946A7
:100660000A9850EA4A000ED044F61050A5F2FF3521
:1006700045432F14B8F1000F1ED07542291E1EDD10
:10068000C9F100021CE0B8F1010F4FF0000001D0E9
:10069000302103E0F24305E02154401CB042FBDB73
:1006A00030460022002121540B99C1F80880C1E98D
:1006B00000200FB0BDE8F08FBD1B6D1CDEE74A4681
:1006C00000DA694206A800F067FA06AB93E8070073
:1006D00003AB83E8070050460A9900F045FB8DE81C
:1006E0000700A0F500501F3800900398002D0ADD88
:1006F00042F21F014A460844002303A903906846BA
:1007000000F0AEFD09E0A0F500504A461F38002376
:1007100003A90390684600F0B8FD8DE807000004C7
:10072000000C03D04FF0FF30410800E01046B8F154
:10073000000F03D00022009215461EE0751E05D45E
:1007400000F08CF9303262556D1EF9D5B3460122A6
:10075000084302D000227F1C04E02078302801D119
:1007600000227F1E002A099784D01DE0112D07DA90
:1007700000F074F9303262556D1C50EA0102F5D177
:10078000084302D00098C8B10EE00021681E05E0C1
:10079000235C625C63542254401E491C8142F7DB97
:1007A000AB46A81B401E0990002004F80B000B98D4
:1007B000099AC0F80880C0E9002B7AE711264FF0AB
:1007C000000857E72DE9F04F88460446D21D22F075
:1007D000070191B0D1E90001CDE90A0102F0D6FD8F
:1007E00002460B98C00F01D02D2007E0206881073A
:1007F00001D52B2002E0202101EAC000032A099044
:1008000001D0072A05DB03464146204600F084F963
:100810000BE12078800601D5E06900E00620B8F100
:10082000650F814606D0B8F1660F18D0B8F1670F92
:1008300070D131E00020B9F1110F009001DB1123DC
:1008400001E009F101030AAA01A90CA8FFF7E2FEE1
:10085000DDE90C70002609F10105834647E001201F
:100860004B4600904FF000470AAA01A90CA8FFF7D9
:10087000D1FEDDE90DB00C995D46002610B909F1F5
:1008800001000D18B9EB050003D4C0F1FF3609F1E2
:100890000105A5EB09002BE0B9F1010F01DA4FF0DA
:1008A00001090020B9F1110F0090484601DD112324
:1008B00000E003460AAA01A90CA8FFF7ABFEDDE998
:1008C0000C704D4600268346207800070AD4AB45BD
:1008D00000DA5D4601A8012D04DD411911F8011C63
:1008E000302907D04F4502DA17F1040F04DA01204E
:1008F00082460FE06D1EEEE7002F02DCED1B3E444A
:1009000003E0781CA84200DD7D1CB81B00F1010A41
:100910004FF000472078000703D4AA4501DB4FF0D1
:10092000FF3A0021B7F1004F0DF143088DF8431055
:1009300024D002202B23002F01DA7F422D230A210D
:10094000021EA0F1010000DC5FB197FBF1FC97FBF8
:10095000F1F201FB1C7C17460CF1300C08F801CDBC
:10096000EEE7A8F1010003702188090501D54521B2
:1009700000E06521A0F1010800F8011C09980FA909
:10098000A1EB0807FF1D00B10120411901EBEA703E
:10099000A1693844081A401EA0612078C00602D41C
:1009A0002046FFF753FC099828B1D4E9012190476C
:1009B000206A401C20622078C00622D52046FFF71E
:1009C00045FC1EE0002E04DBB34502DD01A8805D7E
:1009D00000E03020D4E901219047206A401C2062C9
:1009E000761CAAF101005FEA000A0AD100F032F891
:1009F000C0680168405CD4E901219047206A401C2E
:100A00002062281EA5F10105DCDC07E0D4E9012104
:100A100018F8010B9047206A401C2062381EA7F18D
:100A20000107F3DC2046FFF727FC032011B041E665
:100A3000074B70B50D467B4400F05BF80446284632
:100A400000F01CF910B14FF0FF3070BD204670BDB2
:100A50001F2A0000004870478003002030B5B0F125
:100A60000A024FEA900E71F100034EEA817EB0EB6C
:100A70000E0061EB91014FEA101E4EEA017E10EB71
:100A80000E0041EB11114FEA102E4EEA016E10EBF1
:100A90000E0041EB11214FEA104E4EEA014E10EBD1
:100AA0000E0041EB1141401841F100014FEAD00026
:100AB00040EA41704FEAD10110EB80054FEA810412
:100AC00044EA907444EB01046D1944EB0404521B96
:100AD000A3414FF0000348BF0A3200D530BD401C8F
:100AE00041F1000130BD000001694A1C0261087833
:100AF000704700B58FB0CDE901310021059105495E
:100B00007944CDE9031011466846FFF72FFC0FB07A
:100B100000BD0000E5FFFFFF2DE9F0411F46044640
:100B200003260168072A01F4006004DB08B116A55A
:100B300005E016A503E008B115A500E015A521F014
:100B400010002060A069C01EA0610FB1401EA0610E
:100B50002046FFF77BFB4FB1D4E90121384690478F
:100B6000206A401C2062C01C206206E0206AFAE76E
:100B7000D4E9012115F8010B9047761EF8D22046E2
:100B8000FFF77AFBBDE8F0814E414E006E616E00CA
:100B9000494E4600696E66002DE9F04781461646CB
:100BA0008AB0354878440DC88DE80D003248784445
:100BB000801C03AC0DC884E80D0041F69B3008444E
:100BC000372190FBF1F290FBF1F5A5F1800501FBD7
:100BD00012041B3C02D56442012000E00020DFF833
:100BE00098A080460027FA44AAF1BE0A0EE0E0076A
:100BF0000AD03246684607EB470101230AEB810120
:100C000000F043FB8DE8070064107F1C002CEED140
:100C1000194F7F44AE3F19E0E80715D007EB0410E9
:100C20000DF1180A90E80E008AE80E00C068F04244
:100C300001D1981908903246012306A903A800F0B3
:100C400024FB03AB83E807006D10641C002DE3D187
:100C50004FF0010332466946B8F1000F03A802D0F5
:100C600000F0FEFA01E000F010FBC9E90001C9F84C
:100C700008200AB0BDE8F0877C380000007B00F057
:100C80008000704700487047600300207546FFF7FA
:100C9000F9FFAE4605006946534620F00700854639
:100CA00018B020B5FFF7B2FABDE820404FF00006BB
:100CB0004FF000074FF000084FF0000B21F0070144
:100CC000AC46ACE8C009ACE8C009ACE8C009ACE887
:100CD000C0098D46704710B50446AFF3008020462A
:100CE000BDE81040FFF77EBA4FF0013C50F8042BEE
:100CF00051F8043B9A4221D1A2EB0C03934313EA2F
:100D0000CC1317D150F8042B51F8043B9A4215D15B
:100D1000A2EB0C03934313EACC130BD150F8042B32
:100D200051F8043B9A4209D1A2EB0C03934313EA16
:100D3000CC13DBD04FF00000704700BFD01A01BACF
:100D4000B1FA81F101F0180122FA01F0CB40C1F1B2
:100D50002001DBB2C0B2C01A2CFA01F3D11A9143C0
:100D600011EAC311E6D170475FEA400C08BF91F069
:100D7000000F4FEA8C234FEAC12243EA51514FEA58
:100D80001C5018BF00F5F0404FEA300018BF41F08A
:100D900000415FEA6C5C00F02980BCF1FF3F08BFB6
:100DA00040F080407047130C06BF12044FF0100C47
:100DB0004FF0000C130E04BF12020CF1080C130FBD
:100DC00004BF12010CF1040C930F04BF92000CF14C
:100DD000020CD30F04BF52000CF1010C11464FF06E
:100DE0000002A0F11F00A0EB0C00704711F0004FB3
:100DF00008BF704731F000413FF4D5AF0B0C06BF80
:100E000009044FF0100C4FF0000C0B0E04BF090248
:100E10000CF1080C0B0F04BF09010CF1040C8B0F33
:100E200004BF89000CF1020CCB0F04BF49000CF188
:100E3000010CCCF12003A0EB0C0022FA03F302FA20
:100E40000CF241EA030100F10100704720F07F4CF1
:100E500080EA030023F07F47ACEB070303F57C53E4
:100E600000F0004003F1FF032DE980494FEA154BE4
:100E700009B44FEA144325EA0B4E24EA03480FF263
:100E8000042606EB132749083E785FEA320203FB8B
:100E90000667C7F5000707FB06F64FEA54374FEA27
:100EA000D64606F1020607FB066CCCF1005C4FEA61
:100EB0001C472CEA074C07FB06F40CFB06F504EB79
:100EC00015464FEA961634BF00204FF000404FEA17
:100ED000D13706FB07FC4FEA1C4C0CFB0BF7D21B6F
:100EE00003FB0CF761EB07010CFB0EF7B0EB0740BF
:100EF00072EB17420CFB08F734BFA2EB0742B2EBD0
:100F0000074261EB17414FEA0C444FEA910706FB99
:100F100007FC4FEA1C4C0CFB0BF7B0EBC74072EB25
:100F2000573203FB0CF734BFA2EBC742B2EBC74208
:100F300061EB57310CFB0EF7B0EBC70072EB577249
:100F40000CFB08F734BFA2EBC702B2EBC70261EBA0
:100F50005771039F4FEA816141EA921104EBCC047F
:100F60004FEAD1374FEA826206FB07FC42EA901251
:100F70004FEA80604FEA1C4C0CFB0BF7D21B03FBC3
:100F80000CF761EB07010CFB0EF7B0EB074072EBBF
:100F900017420CFB08F734BFA2EB0742B2EB074243
:100FA00061EB17414FEA8C554FEA910704EB9C2403
:100FB00006FB07FC4FEA1C4C0CFB0BF7B0EBC740E1
:100FC00072EB573203FB0CF734BFA2EBC742B2EB14
:100FD000C74261EB57310CFB0EF7B0EBC70072EB69
:100FE00057720CFB08F734BFA2EBC702B2EBC70283
:100FF00061EB577115EB4C254FEA816141EA921183
:101000004FEA82624FEAD13742EA901206FB07FCB0
:1010100044F100044FEA80604FEA1C4C0CFB0BF7D4
:10102000D21B03FB0CF761EB07010CFB0EF7B0EBD7
:10103000074072EB17420CFB08F734BFA2EB0742E4
:10104000B2EB074261EB174115EB1C154FEA8131FA
:1010500041EA92414FEA823242EA90424FEA8030BE
:101060004FEA0C7644F1000448EA03434EEA0B4889
:101070004FF0000EB2EB080C71EB030724BF624681
:1010800039464EEB0E0E4FF0000B0018524149410D
:101090004BEB0B0BB2EB080C71EB03077BF1000B76
:1010A00024BF624639464EEB0E0E4FF0000B00187F
:1010B000524149414BEB0B0BB2EB080C71EB0307B0
:1010C0007BF1000B24BF624639464EEB0E0E51EA0F
:1010D000020718BF46F0010616EB0E7655F1000226
:1010E00054F1000103D5BDE88901BDE80088BDE8E1
:1010F0008901BDE80048B619524141EB0101A3F155
:101100000103704780807F7E7D7C7B7A797877765B
:1011100076757473727171706F6E6E6D6C6C6B6AD4
:101120006A69686867666665646463636261616072
:10113000605F5F5E5E5D5D5C5C5B5B5A5A595958EF
:101140005857575656555555545453535252525159
:10115000515050504F4F4F4E4E4D4D4D4C4C4C4BAF
:101160004B4B4A4A4A4949494848484747474746F6
:101170004646454545444444444343434342424232
:1011800042414141002B9C4630D477002BD01CB506
:101190004FEA370703B44FF010004FF01001BAF1D7
:1011A000000F06D0BCF1000FDCBF40F0080040F09B
:1011B00008014FF000000FBCBDE810400BF1010B1F
:1011C000BBF1010F08BF5FEA170722BF12F101024E
:1011D00011F101014FF0004143F1000300F0004024
:1011E00043EA00007047F9D35708D0E746EA0646BD
:1011F00013F1400F4FEA16461FDD13F1200FDFBF3A
:1012000016430A46002120335B42BED0C3F12007BB
:1012100046EA064602FA07F74FEA164646EA070686
:10122000C3F1200722FA03F201FA07F721FA03F1CA
:101230004FF0000342EA0702A7E746EA020646EA41
:1012400006464FEA164646EA0106BCBF46EA06468F
:10125000360C4FF000034FF000024FF0000194E70E
:101260002DE9804C9A46934670B491E8380007C83F
:1012700031EA400C48BF34EA430C03D5FFF7E6FDE2
:10128000FFF780FFF0BCBDE8008C2DE9804C9A464A
:10129000934670B491E8380007C810F0804F08BF3B
:1012A00013F0804F03D100F005F8FFF76BFFF0BC9F
:1012B000BDE8008C20F07F4780EA030023F07F4CDC
:1012C00007EB0C03A3F57C5300F00040A3F1FE03F1
:1012D00092F0000F00F0B38095F0000F00F07780DF
:1012E0002DE901494FEA11404FEA144621EA00482E
:1012F00000FB06FC24EA064708FB06F607FB08F895
:1013000000FB07F718EB06484CEB164C4FEA124B64
:1013100018EB07484FEA15464CEB174022EA0B4EF4
:101320000BFB06FC25EA06470EFB06F607FB0EFE46
:101330000BFB07F71EEB064E4CEB164C4FF000066E
:101340001EEB074E4CEB174B18EB0B0840F100005F
:1013500018EB0E0B58EB000840F100008F1A4FF00D
:1013600000013CBFC943661B14BFB5EB040C002150
:101370003CBFC943F61B4FEA17444EEA8E0E27EADC
:1013800004454FEA1C4704FB07622CEA074C05FBA7
:1013900007F70CFB05F604FB0CFC16EB074642EBCB
:1013A000174216EB0C4642EB1C421BEB060658EBB1
:1013B0000202414146EA9E0601D5BDE80189B619FF
:1013C000524141EB0101A3F10103BDE801894FEA5C
:1013D00014454FEA114724EA054621EA074C05FB6C
:1013E00007F406FB07F70CFB06F105FB0CFC11EB01
:1013F000074144EB17444FEA124711EB0C4144EB11
:101400001C4422EA074C05FB07F206FB07F70CFB1E
:1014100006F605FB0CFC16EB074642EB174216EBF3
:101420000C4642EB1C456A1854F1000148BF704756
:10143000B619524141EB0101A3F10103704795F048
:10144000000F37D04FEA11424FEA144721EA024613
:1014500024EA074C02FB07F106FB07F70CFB06F436
:1014600002FB0CFC14EB074441EB17414FEA154714
:1014700014EB0C4441EB1C4125EA074C02FB07F539
:1014800006FB07F70CFB06F602FB0CFC16EB074607
:1014900045EB174516EB0C4645EB1C42121951F172
:1014A000000148BF7047B619524141EB0101A3F159
:1014B000010370474FEA14454FEA114724EA0546F5
:1014C00021EA074C05FB07F106FB07F70CFB06F2C8
:1014D0004FF0000605FB0CFC12EB074241EB1741F5
:1014E00012EB0C4251EB1C4148BF7047921841EB84
:1014F0000101A3F10103704708B50121802000F02C
:1015000005FE40F2FF30ADF8000010208DF803001A
:1015100003208DF802006946014800F09FF908BDDC
:10152000001C014000BFFEE77047000000B587B017
:101530000121084600F0DAFD0121052000F0E6FD5A
:101540000121082000F0E2FD0121344800F012FAE8
:101550000121334800F00EFA04208DF80F004003FB
:10156000ADF80C0003208DF80E0003A92D4800F003
:1015700075F904208DF80F000820ADF80C00032049
:101580008DF80E0003A9284800F068F904A801F0BE
:1015900087FB0020ADF81600ADF812004FF6FF7083
:1015A000ADF814000020ADF8100004A94FF0804001
:1015B00001F024FB684601F07DF90020ADF8000041
:1015C0000F20ADF8080069464FF0804001F01CF98B
:1015D0000420ADF800000F20ADF8080069464FF078
:1015E000804001F011F900231A4603214FF080409A
:1015F00001F0D7F80121880701F0B2F80122114665
:10160000900701F060F900214FF0804001F0C8FA26
:101610000121880701F0AAF807B000BD00031800F7
:101620000002300000080140000C014000B587B006
:101630000121022000F05AFD0121042000F066FD86
:1016400004208DF80F00C020ADF80C0003208DF8A9
:101650000E0003A9224800F001F90020ADF81600A1
:10166000ADF812004FF6FF70ADF814000020ADF891
:1016700010008DF8180004A91A4801F0BFFA684656
:1016800001F018F90020ADF800000F20ADF80800B7
:101690006946144801F0B8F80420ADF800000F20A6
:1016A000ADF8080069460F4801F0AEF800231A466D
:1016B00003210C4801F075F801210A4801F050F8A7
:1016C00001221146074801F0FEF80021054801F00B
:1016D00067FA0121034801F049F807B000BD000096
:1016E000000801400004004000B587B0012104203B
:1016F00000F0FCFC0121092000F008FD04208DF819
:101700000F00C020ADF80C0003208DF80E0003A9D7
:10171000224800F0A3F804A801F0C2FA0020ADF8B6
:101720001600ADF812004FF6FF70ADF8140000205F
:10173000ADF8100004A91A4801F060FA684601F0FB
:10174000B9F80020ADF800000F20ADF80800694698
:10175000134801F059F80420ADF800000F20ADF84F
:10176000080069460E4801F04FF800231A4603218D
:101770000B4801F016F80121094800F0F1FF0122A1
:101780001146074801F09FF80021054801F008FACA
:101790000121034800F0EAFF07B000BD000C014042
:1017A0000008004000B587B00121082000F09EFC31
:1017B0000121042000F0AAFC48208DF80F0003202E
:1017C000ADF80C008DF80E0003A9224800F046F891
:1017D0000020ADF81600ADF812004FF6FF70ADF81E
:1017E00014000020ADF810008DF8180004A91A4864
:1017F00001F004FA684601F05DF80020ADF8000041
:101800000F20ADF808006946134800F0FDFF0420E2
:10181000ADF800000F20ADF8080069460E4800F052
:10182000F3FF00231A4603210B4800F0BAFF012101
:10183000094800F095FF01221146074801F043F8DE
:101840000021054801F0ACF90121034800F08EFFAA
:1018500007B000BD00080140000C00402DE9F04138
:10186000024600250026002000230024002791F8CE
:1018700003C00CF00F0591F803C00CF0100CBCF184
:10188000000F03D091F802C04CEA050591F800C0A2
:10189000BCF1000F31D0146800202BE04FF0010C98
:1018A0000CFA00F3B1F800C00CEA03069E4220D106
:1018B00083004FF00F0C0CFA03F7BC4305FA03FC4E
:1018C0004CEA040491F803C0BCF1280F06D14FF094
:1018D000010C0CFA00FCC2F814C00AE091F803C035
:1018E000BCF1480F05D14FF0010C0CFA00FCC2F816
:1018F00010C0401C0828D1D31460B1F800C0BCF15E
:10190000FF0F34DD546800202EE000F1080C4FF08A
:10191000010808FA0CF3B1F800C00CEA03069E4275
:1019200021D183004FF00F0C0CFA03F7BC4305FAEA
:1019300003FC4CEA040491F803C0BCF1280F05D164
:1019400000F1080C08FA0CF8C2F8148091F803C0F2
:10195000BCF1480F07D100F1080C4FF0010808FA5C
:101960000CF8C2F81080401C0828CED35460BDE8A3
:10197000F0810000F0B50A46002300240021002574
:1019800000F00046B6F1004F02D11D4EF16901E0B2
:101990001B4E7168C0F3034583B200F44016B6F5E0
:1019A000401F08D121F07061154E766826F07066F0
:1019B000134F7E6012E000F48016B6F5801F06D14A
:1019C000032606FA05F4A14341F0706106E0460DD6
:1019D000360103FA06F6B14341F0706122B1460DBB
:1019E000360103FA06F6314300F00046B6F1004F27
:1019F00002D1034EF16101E0014E7160F0BD0000C3
:101A00000000014041617047016170472DE9F041DC
:101A1000ADF5007D04460E46FF27B8467A1C0F49F7
:101A200040A8FEF767FD7A1C0D496846FEF762FD87
:101A300009E014F8010B80EA070540A8405D80EA40
:101A400008071DF80580301EA6F10101CEB2F0D1C5
:101A500048EA07200DF5007DBDE8F0816C410008E3
:101A60006C42000800BFFEE708B50121482000F0E5
:101A70004DFB2020ADF8000010208DF8030003205E
:101A80008DF8020069460948FFF7E8FE2021074863
:101A9000FFF7BAFF2020ADF8000069460448FFF7C1
:101AA000DDFE20210248FFF7AFFF08BD000C01401A
:101AB0000018014010B510210348FFF7A3FF2021B3
:101AC0000148FFF7A1FF10BD001C014010B5012126
:101AD0000348FFF797FF02210148FFF795FF10BD6C
:101AE000001C014000BFFEE77047000070B50021F8
:101AF00000230F22C47804B3154C246804F4E06476
:101B0000C4F5E064210AC1F10403CA40447804FA30
:101B100003F184781440214309010E4C0678A15545
:101B2000047804F01F050124AC4005786D11AD0068
:101B300005F1E025C5F8004109E0047804F01F052F
:101B40000124AC40044D0678761145F8264070BD5E
:101B50000CED00E000E400E080E100E030B589B089
:101B600005460C460121480300F0D0FA012110205F
:101B700000F0CCFA4020ADF8200018208DF82300AA
:101B800003208DF8220008A94748FFF767FE0121CE
:101B9000102000F0BBFA8020ADF8200018208DF84E
:101BA000230003208DF8220008A93F48FFF756FEC6
:101BB0000121102000F0AAFA4FF48070ADF8200047
:101BC00018208DF8230003208DF8220008A936483C
:101BD000FFF744FE0121102000F098FA4FF4007046
:101BE000ADF8200018208DF8230003208DF8220086
:101BF00008A92D48FFF732FEADF81850ADF8144093
:101C00000020ADF81A00ADF8160005A9274800F02D
:101C1000F5FF6020ADF804000120ADF806000020BB
:101C2000ADF80A00ADF80C00ADF8100001A91F488E
:101C300000F052FE01A91D4800F0A4FE01A91B48B6
:101C400000F000FF01A9194800F056FF01211748D4
:101C500000F098FD0821154800F08AFE082113487D
:101C600000F0E2FE0821114800F03CFF08210F4877
:101C700000F080FF01210D4800F066FD01210B48B6
:101C800000F074FD0021094800F081FF00210748A1
:101C900000F07FFF0021054800F07DFF0021034890
:101CA00000F07BFF09B030BD00100140003401405E
:101CB0002DE9F04704460F4694F800A094F80190EF
:101CC000A678B9F1030F3BD1701D874206D03A4682
:101CD000711D1CA0FEF7AEFABDE8F087304606EB9A
:101CE000D071C1F34701234A1170104600782428AF
:101CF00008DD24221F4801781FA0FEF79BFA24204C
:101D00001C490870002510E0032000EB450000F09E
:101D1000FF0808F10100205C14F8081040EA0120D7
:101D2000204921F81500681CC5B212480078854288
:101D3000EADB01201C49087000201C4981F866007C
:101D400000BFC9E764617461206C656E67746820C8
:101D50006E6F742073616D652120746172676574A4
:101D60003A2025642C20666163743A2025640D0AAC
:101D70000000000042000020636F756E74206F76D3
:101D80006572666C6F77206D61782120726563657E
:101D90006976653A2025642C206D61783A202564A7
:101DA0000D0A0000F4000020430000208C000020F9
:101DB0002DE9FC5F05468B46164605B11EB94FF06E
:101DC000FF30BDE8FC9FABF11004002C02DA4FF0AD
:101DD000FF30F6E735F81400B0F57A7F09DC35F806
:101DE000140002F0E1F8BB49009002F0F1F8306015
:101DF00001E000203060601C35F81000B0F57A7FFB
:101E00000ADC611C35F8110002F0CEF8B2490090EE
:101E100002F0DEF8706001E000207060A01C35F870
:101E200010003081E01C35F81000022803DCE01CB3
:101E300015F8100000E00020B072201D35F81000E9
:101E4000B0F5A57F0ADC211D35F8110002F0ACF8D1
:101E5000A249009001F0CEFFF06001E00020F060A8
:101E6000601D35F81000B0F5A57F0ADC611D35F85E
:101E7000110002F099F89949009001F0BBFF306120
:101E800001E000203061A01D35F8100007B217F501
:101E9000A57F0BDBB7F5A57F08DC384602F06CF8B0
:101EA0008E49009001F0A6FF706101E00020706192
:101EB000E01D35F810000B2803DCE01D15F81000BC
:101EC00000E00020307604F1080035F81000012809
:101ED00000D100E00020707604F1090035F8100010
:101EE000012800D100E00020B07604F10A0035F8A6
:101EF0001000012800D100E00020F07604F10B0072
:101F000035F81000B0F5A57F0BDC04F10B0135F8B6
:101F1000110002F049F87149009001F06BFFF06187
:101F200001E00020F06104F10C0035F810000FFA18
:101F300080F818F5C87F0CDB40F2E240804508DCF1
:101F4000404602F019F86649009001F053FF3062F4
:101F500001E06448306204F10D0035F81000B0F57E
:101F6000967F0BDC04F10D0135F8110002F01CF82E
:101F70005B49009001F03EFF706201E0002070625A
:101F800004F10F0035F81010401E35F8100041EA3A
:101F9000004001900198B06204F1100035F8100083
:101FA000B08504F1110035F810000FFA80F919F529
:101FB0007A7F0BDBB9F57A7F08DC484601F0DCFF5D
:101FC0004749009001F016FF306301E000203063C4
:101FD00004F1130035F81010401E35F8100041EAE6
:101FE0000040706304F1150035F81010401E35F8FC
:101FF000100041EA0040B06304F1160035F810000B
:10200000B0F57A7F0BDC04F1160135F8110001F010
:10201000CBFF3149009001F0DBFFF06301E00020CD
:10202000F06304F1170035F810000FFA80FA1AF582
:102030007A7F0BDBBAF57A7F08DC504601F09CFF13
:102040002749009001F0D6FE306401E000203064A2
:1020500004F1190035F81010401E35F8100041EA5F
:102060000040706404F11B0035F81010401E35F874
:10207000100041EA0040B06404F11D0035F8101072
:10208000401E35F8100041EA0040F06404F11E00E3
:1020900035F81000306504F11F0035F81000706548
:1020A00004F1210035F81010401E35F8100041EA07
:1020B0000040B06504F1220035F81000022804DC6D
:1020C00004F1220015F8100000E0002086F85C0002
:1020D000002076E6CDCCCC3D0AD7233C0000C84298
:1020E00000002041000020C27047000029B1064ACC
:1020F000D2690243044BDA6104E0034AD2698243A5
:10210000014BDA61704700000010024029B1064A15
:1021100092690243044B9A6104E0034A9269824344
:10212000014B9A61704700000010024030B5002159
:102130000022002400232D4D6D6805F00C0121B113
:10214000042905D0082923D105E0294D056022E0A6
:10215000274D05601FE0254D6D6805F47012234D75
:102160006D6805F48034022505EB92421CB9214DBF
:10217000554305600BE01D4D6D6805F400351DB13C
:102180001C4D5543056002E0194D5543056002E0C2
:10219000174D056000BF00BF144D6D6805F0F001DC
:1021A0000909154D6B5C0568DD4045600F4D6D6894
:1021B00005F4E061090A104D6B5C4568DD408560FF
:1021C0000A4D6D6805F46051C90A0B4D6B5C45689A
:1021D000DD40C560054D6D6805F44041890B074D34
:1021E0006B5CC568B5FBF3F5056130BD00100240BE
:1021F00000127A0000093D0048000020580000202D
:1022000008B501212020FFF781FF8020ADF80000F4
:1022100010208DF8030003208DF802006946034862
:10222000FFF71CFB0248006808BD000000140140D5
:102230009C8122422DE9FC4706460F4614461D4666
:102240008DF800608DF8017020128DF80200E0B268
:102250008DF8030028128DF80400E8B28DF805000F
:1022600006216846FFF7D2FB8046C8F3072A08F02C
:10227000FF098DF806A08DF807900821684600F048
:1022800023F80120024981F86600BDE8FC870000C0
:102290008C00002010B540210348FFF7B3FB8021DC
:1022A0000148FFF7B1FB10BD001C014010B504212F
:1022B0000348FFF7A7FB08210148FFF7A5FB10BD66
:1022C000001C01407047000070B505460E46012015
:1022D0000F490860052001F099F800240CE0295D01
:1022E0000C4800F09EFF00BF40210A4800F0CCFEE1
:1022F0000028F9D0601CC4B2B442F0DB052001F024
:1023000085F80020044981F864000149086070BD27
:102310009C812242004400408C00002010B500F057
:1023200001F810BD0CB50020019000903348006802
:1023300040F480303149086000BF3048006800F444
:10234000003000900198401C0190009818B9019845
:10235000B0F5A06FF1D12948006800F4003010B149
:102360000120009001E0002000900098012843D156
:102370002348006840F010002149086008460068C2
:1023800020F0030008600846006840F00200086082
:102390001A4840681949486008464068486008463D
:1023A000406840F4806048600846406820F47C1033
:1023B00048600846406840F4E810486008460068F5
:1023C00040F08070086000BF0C48006800F00070AA
:1023D0000028F9D00948406820F003000749486008
:1023E0000846406840F00200486000BF034840686B
:1023F00000F00C000828F9D10CBD000000100240CC
:1024000000200240042808D14FF0E021096941F082
:1024100004014FF0E022116107E04FF0E02109696B
:1024200021F004014FF0E022116170477047000075
:1024300010B51348006840F00100114908600846D3
:102440004068104908400E494860084600680E4937
:1024500008400B4908600846006820F480200860A6
:102460000846406820F4FE0048604FF41F00886072
:10247000FFF754FF4FF000600449086010BD0000F2
:10248000001002400000FFF8FFFFF6FE08ED00E03C
:10249000F0B50C46154600220021068C4FF6FE775B
:1024A0003E400684028B018C4FF60C7632407E1C37
:1024B00006EA03162E433243104EB0420ED0104EA1
:1024C000B0420BD0B0F1804F08D00E4EB04205D0D4
:1024D0000D4EB04202D00D4EB04206D14FF6FD7601
:1024E000314044F00106314305E04FF6F5763140C6
:1024F00044F00106314302830184F0BD002C014009
:10250000003401400004004000080040000C00407E
:10251000F0B50C461546002200210026078C4FF628
:10252000EF7C07EA0C070784028B018C4FF6FF77DC
:1025300007EA041640F6FF473A404FF6FF7707EAEE
:1025400003373A434FF6FF7707EA05273A43114F1F
:10255000B8420ED0104FB8420BD0B0F1804F08D027
:102560000E4FB84205D00E4FB84202D00D4FB842C0
:1025700006D14FF6DF77394046F01007394305E0C2
:102580004FF65F77394044F01007394302830184E6
:10259000F0BD0000002C0140003401400004004068
:1025A00000080040000C0040F0B50C461546002223
:1025B00000210026078C4FF6FF6C07EA0C07078402
:1025C000828B018C4FF6FF7707EA04264FF60C77D3
:1025D0003A404FF6FF7707EA03172F433A43114F6C
:1025E000B8420ED0104FB8420BD0B0F1804F08D097
:1025F0000E4FB84205D00E4FB84202D00D4FB84230
:1026000006D14FF6FF57394046F48077394305E04D
:102610004FF2FF57394044F4807739438283018475
:10262000F0BD0000002C01400034014000040040D7
:1026300000080040000C0040F0B50C461546002292
:1026400000210026078C4EF6FF7C07EA0C07078462
:10265000828B018C4FF6FF7707EA043640F6FF477E
:102660003A404FF6FF7707EA05273A434FF6FF77E0
:1026700007EA03373A43114FB8420ED0104FB84221
:102680000BD0B0F1804F08D00E4FB84205D00E4F9E
:10269000B84202D00D4FB84206D14DF6FF7739400F
:1026A00046F48057394305E047F6FF57394044F474
:1026B0008057394382830184F0BD0000002C014023
:1026C000003401400004004000080040000C0040BD
:1026D00010B50121174800F085F848B3012000F03B
:1026E00021FE15480088401C1349088013480088C3
:1026F000401C1249088010480088C82805DB0020CB
:102700000D49088001200E4908700C480088C8282F
:102710000ADB0020094908800A48006808B901203E
:1027200000E00020074908600121024800F01BF882
:1027300010BD0000002C01403A0000203C000020A9
:10274000380000209401234221B1028842F0800227
:10275000028004E002884FF67F731A4002807047BF
:10276000CA4302827047CA430282704721B102887D
:1027700042F00102028004E002884FF6FE731A4024
:102780000280704731B1B0F8442042F40042A0F812
:10279000442005E0B0F84420C2F30E02A0F8442023
:1027A0007047F0B50C4615461E4600210022002356
:1027B0000189028B038C4FF6F877394021434FF69D
:1027C000FC473A4040F201173A434FF6DD773B4071
:1027D0004FF6FF7707EA06172F433B430181028339
:1027E0000384F0BD30B50246002000230024158A82
:1027F00005EA0103958905EA010413B10CB1012032
:1028000000E0002030BD000070B505460C462448AD
:1028100085420ED0234885420BD0B5F1804F08D0B9
:102820002148854205D02148854202D02048854272
:1028300000D100E000BF208850B92389A2886188B8
:102840002846FFF725FEE188284600F0ABF925E091
:10285000208804280AD12389A28861882846FFF7A6
:1028600057FEE188284600F0A6F917E020880828DE
:102870000AD12389A28861882846FFF795FEE1885E
:10288000284600F0A5F909E02389A2886188284636
:10289000FFF7D2FEE188284600F0A3F970BD0000E2
:1028A000002C0140003401400004004000080040BA
:1028B000000C004000210180418001218180002125
:1028C000C180018170471AB183890B43838102E083
:1028D00083898B438381704770B5002400220023D5
:1028E000058C4FF6FE7635400584028C8388048B78
:1028F0004FF68F752C40B51E2C400D882C43751E4D
:102900002A400D892A434D882A43144DA8420BD0F2
:10291000134DA84208D0134DA84205D0124DA8422D
:1029200002D0124DA84213D14FF6F7752A404D89B7
:102930002A434FF6FB752A408D882A434FF6FF65E0
:102940002B404FF6FF552B408D892B43CD892B43D0
:1029500083800483CD888586028470BD002C01406D
:102960000034014000400140004401400048014063
:102970000A460021018B4FF6F7731940114301837A
:102980007047000070B5002400220023058C4FF62C
:10299000EF7635400584028C8388048B48F6FF75FA
:1029A0002C404FF6FF452C400D884FF6FF7606EA87
:1029B00005252C434FF6DF752A400D8906EA0515DB
:1029C0002A434D8806EA05152A43154DA84202D030
:1029D000144DA8421DD14FF67F752A404D894FF600
:1029E000FF7606EA05152A434FF6BF752A408D8803
:1029F00006EA05152A434FF6FF352B404FF2FF75C7
:102A00002B408D8906EA85052B43CD8906EA85058D
:102A10002B4383800483CD880587028470BD00002A
:102A2000002C0140003401400A460021018B4FF286
:102A3000FF7319404FF6FF7303EA02231943018322
:102A40007047000070B5002400220023058C4FF66B
:102A5000FF6635400584028C8388848B4FF68F7522
:102A60002C404FF6FC752C400D882C434FF6FF553B
:102A70002A400D894FF6FF7606EA05252A434D8840
:102A800006EA05252A43154DA84202D0144DA84256
:102A90001DD14FF2FF752A404D894FF6FF7606EAA9
:102AA00005252A434FF6FF352A408D8806EA05257D
:102AB0002A434EF6FF752B404DF6FF752B408D894E
:102AC00006EA05152B43CD8906EA05152B438380BD
:102AD0008483CD888587028470BD0000002C01406E
:102AE000003401400A460021818B4FF6F7731940EC
:102AF000114381837047000070B500220023002439
:102B0000058C4EF6FF7635400584038C8488828BD5
:102B100048F6FF752A404FF6FF452A400D884FF6CC
:102B2000FF7606EA05252A434DF6FF752B400D89F1
:102B300006EA05352B434D8806EA05352B430B4D38
:102B4000A84202D00A4DA84208D14BF6FF752C408E
:102B50008D894FF6FF7606EA85152C4384808283A3
:102B6000CD88A0F84050038470BD0000002C0140C7
:102B7000003401400A460021818B4FF2FF73194057
:102B80004FF6FF7303EA022319438183704781865E
:102B900070470187704781877047A0F840107047E1
:102BA00081847047028B4FF6F3731A400283028BC5
:102BB0000A4302837047028B4FF2FF331A400283AD
:102BC000028B4FF6FF7303EA01231A430283704717
:102BD000828B4FF6F3731A408283828B0A4382837F
:102BE0007047828B4FF2FF331A408283828B4FF6FD
:102BF000FF7303EA01231A4382837047002202888D
:102C00001D4B98420ED01D4B98420BD0B0F1804F17
:102C100008D01B4B984205D01A4B984202D01A4B51
:102C2000984204D14FF68F731A404B881A43174BC2
:102C3000984207D0164B984204D04FF6FF431A40F3
:102C4000CB881A4302808B8883850B8803850A4BC7
:102C500098420BD0094B984208D00E4B984205D0B1
:102C60000D4B984202D00D4B984201D10B7A03864E
:102C70000123838270470000002C01400034014092
:102C80000004004000080040000C0040001000401C
:102C90000014004000400140004401400048014051
:102CA0004FF6FF71818000210180C1804180017257
:102CB000704700007FB504460D460121C802FFF7AA
:102CC00025FAADF80840681E80B2ADF80400002077
:102CD000ADF80A00ADF806008DF80C0001A90F4808
:102CE000FFF78CFF01210D48FFF73AFD012241213A
:102CF0000A48FFF7E8FD19208DF8000000208DF844
:102D000001008DF8020001208DF803006846FEF7EF
:102D1000EDFE01210148FFF729FD7FBD002C014098
:102D200010B540F22551074800F0BBF9012808D141
:102D3000044800F071FAC4B240F22551014800F095
:102D40007FF910BD004C004010B540F225510A48F3
:102D500000F0A7F9012808D140F22551064800F0FB
:102D60006FF9054800F058FAC4B240F22551024804
:102D700000F066F910BD00000050004010B540F2B0
:102D80002551044800F08DF918B1024800F044FACA
:102D9000C4B210BD0038014010B586B00446012110
:102DA00044F20400FFF7B2F901210846FFF7AEF93B
:102DB0004FF40070ADF8140003208DF816001820B1
:102DC0008DF8170005A91C48FEF748FD4FF48060F8
:102DD000ADF8140004208DF8170005A91648FEF779
:102DE0003DFD25208DF8000003208DF801008DF8B1
:102DF000020001208DF803006846FEF777FE01947B
:102E00000020ADF80800ADF80A00ADF80C00ADF8F0
:102E100010000C20ADF80E0001A9084800F090F950
:102E2000012240F22551054800F065F901210348CF
:102E300000F01EF906B010BD000801400038014046
:102E400010B540F225510F4800F02BF9C0B10D48E4
:102E500000F0E2F9C4B240F225510A4800F0F9F856
:102E6000094890F8640064280ADA074890F864007A
:102E700005490C54084690F86400401C81F8640031
:102E800010BD0000004400408C00002010B586B04A
:102E9000044601210420FFF739F901214804FFF716
:102EA00025F90420ADF8140003208DF81600182031
:102EB0008DF8170005A91E48FEF7D0FC0820ADF8D4
:102EC000140004208DF8170005A91948FEF7C6FC68
:102ED00026208DF8000000208DF8010001208DF8DB
:102EE00002008DF803006846FEF700FE01944FF4DF
:102EF0008050ADF808000020ADF80A004FF4806063
:102F0000ADF80C000020ADF810000C20ADF80E005C
:102F100001A9084800F014F9012240F225510548A2
:102F200000F0E9F80121034800F0A2F806B010BD56
:102F3000000801400044004010B540F225511348FC
:102F400000F0AFF800B3114800F066F9C4B21048C1
:102F5000007810B9552C00D010BD0D4801780078CC
:102F6000401C0B4A10700B484454104600780B2844
:102F700005D1084800F0AEFA00200549087040F27B
:102F80002551024800F05CF800BFE5E7004800402A
:102F9000300000208000002010B586B004460121DA
:102FA0000820FFF7B3F801218804FFF79FF84FF4DA
:102FB0008060ADF8140003208DF8160018208DF8FD
:102FC000170005A91C48FEF749FC4FF40060ADF856
:102FD000140004208DF8170005A91748FEF73EFCE1
:102FE00027208DF8000003208DF801008DF80200E5
:102FF00001208DF803006846FEF778FD019400205B
:10300000ADF80800ADF80A00ADF80C00ADF81000FE
:103010000C20ADF80E0001A9084800F091F801223B
:1030200040F22551054800F066F80121034800F000
:103030001FF806B010BD0000000C01400048004021
:1030400001F40072B2F5007F00D100BFCA430280D4
:10305000704710B50022002340F66A14A14200D147
:1030600000BF0A1201249440A3B2DC43048010BDC7
:1030700021B1828942F40052828104E082894DF6B6
:10308000FF731A408281704702460020B1F5007F2D
:1030900000D100BF13880B400BB1012000E00020DD
:1030A000704770B50246002400230025002040F63A
:1030B0006A16B14200D100BFC1F3421501F01F03EF
:1030C000012606FA03F3012D02D19689334006E06A
:1030D000022D02D1168A334001E0968A33400C1249
:1030E000012606FA04F41688344013B10CB101200D
:1030F00000E0002070BDF0B5034600240026002546
:10310000002040F66A17B94200D100BF1846C1F34B
:10311000421401F01F06012707FA06F5012C01D120
:103120000C3004E0022C01D1103000E014301AB150
:1031300007682F43076002E00768AF430760F0BDF0
:103140002DE9F04786B005460E460024A24600BF92
:10315000A1460027B08900B100BF2F462C8A4CF64B
:10316000FF700440F08804432C82AC894EF6F310C3
:103170000440B08831890843718908430443AC8115
:10318000AC8A4FF6FF400440B0890443AC8201A8EA
:10319000FEF7CCFF1F48874202D1DDF810A001E006
:1031A000DDF80CA0A88900F4004040B10AEBCA0089
:1031B00000EB0A1031684900B0FBF1F807E00AEBB8
:1031C000CA0000EB0A1031688900B0FBF1F86420F6
:1031D000B8FBF0F004012009642101FB1089A889E3
:1031E00000F4004040B1322000EBC900B0FBF1F028
:1031F00000F00700044308E0322000EB09106421CE
:10320000B0FBF1F000F00F0004432C8106B0BDE8E4
:10321000F08700000038014001468888C0F30800AC
:103220007047C1F30802828070470000F8B51E485D
:1032300090F86500012836D100201B4981F865000F
:1032400064211A4800F052F81949087008460078BD
:10325000801EC1B21548FEF7D9FB0446C4F307250A
:10326000E6B213480078801E1049085CA8420BD1D2
:103270000F480078401E085CB04205D10C48017828
:103280000A48FEF715FD0EE009480078401E074980
:10329000085C009006480078801E0B5C3246294688
:1032A00004A0FCF7C7FFF8BD8C0000207C010020C3
:1032B000470000204352432D6572726F72206E6F7B
:1032C000772D4352433A2025303258253032582C3E
:1032D00020726563656976652D4352433A20253037
:1032E0003258253032580D0A0000000010B5034650
:1032F0000B4890F86400884202DA094890F864109C
:10330000002205E00648805C18705B1C501CC2B2AD
:103310008A42F7DB0020024C84F86400084610BDA6
:103320008C000020154991F86410002921DD134913
:1033300091F86410124A1278914208D00F4991F81E
:1033400064100F4A117000210E4A117014E00D49EB
:103350000978052910DA0B4909780144094A1170E6
:1033600011460978052907DB0121044A82F8651016
:1033700002E00021024A1170704700008C0000201A
:10338000440000204500002000BFFEE7490050EA4D
:10339000C12018BF04204A0D18BF40F0010040F2C0
:1033A000FF72B2EB515F08BF40F00200012808BF76
:1033B0000520704730380A2801D2012070470020CC
:1033C000704700BF7047000010B56FF00400FFF7B2
:1033D00019F80A4800680A49B0FBF1F00949087079
:1033E0000846007800EB4001C1EBC0104FF6FF71BA
:1033F00001EAC0000449088010BD00000000002060
:1034000000127A0014000020160000200146114A24
:1034100012784A434FF0E0235A6100229A611A461B
:10342000126942F001021A6100BF4FF0E0221069F8
:1034300000F001021AB100F48032002AF5D04FF0FA
:10344000E022126922F001024FF0E0231A6100220B
:103450009A6170471400002070B504460D46E1B231
:103460000548FFF7DEFE00BF80210348FFF70CFE92
:103470000028F9D0204670BD00380140FFF7A4FFB6
:10348000FEF7F2FA4FF4E130FFF786FC4FF41650E6
:10349000FFF7FCFCFEF7B4FE4FF4E130FFF77CFDD4
:1034A000142140F60F60FFF705FCFEF725F8002118
:1034B0004FF4E150FEF752FBFEF738F8FEF7B6F88E
:1034C000FEF712F9FEF76EF903E000F049F900F09B
:1034D00067F9FAE72DE9FC4782469AF8000055287B
:1034E00001D0BDE8FC879AF8010051287DD19AF8F7
:1034F0000200854908709AF803008449087008465C
:1035000000788149097840EA012000B280490880AA
:103510000846B0F9000000F02BFB00227D4BCDE9FE
:10352000000100F0CDF9804600227B4B00F038FB13
:1035300006467A4A7A4B00F033FB044600F08EF9D7
:10354000784908609AF80400774908709AF80500ED
:1035500076490870084600787349097840EA0120E6
:1035600000B26B4908800846B0F9000000F000FB8B
:1035700080460022674B00F0A3F90022664BCDE99C
:10358000000100F00DFB0646644A654B00F008FBA5
:10359000044600F063F9634948609AF806006449FC
:1035A00008709AF807006349087008460078604977
:1035B000097840EA012000B2554908800846B0F970
:1035C000000000F0D5FA06460022524B00F078F9D0
:1035D00080460022504B00F0E3FA04464F4A504B1D
:1035E00000F0DEFACDE9000100E017E000F036F966
:1035F0004C4988609AF809109AF8082041EA02219B
:1036000008B200F0B5FA064600224B4B00F058F91C
:10361000044600F023F94949086072E09AF8010075
:1036200053286ED19AF80200454908709AF80300B1
:1036300044490870084600784149097840EA012069
:1036400000B2334908800846B0F9000000F090FA53
:10365000804600222F4B00F033F9064600223A4BF9
:1036600000F09EFA044600F0F9F8384908609AF82C
:103670000400374908709AF8050036490870084672
:1036800000783349097840EA012000B220490880D7
:103690000846B0F9000000F06BFA804600221D4B8E
:1036A00000F00EF906460022274B00F079FA044696
:1036B00000F0D4F8254948609AF8060026490870B9
:1036C0009AF80700254908700846007822490978C9
:1036D00040EA012000B20E4908800846B0F9000017
:1036E00000F046FA804600220A4B00F0E9F8064650
:1036F0000022154B00F054FA044600F0AFF81349CD
:10370000886000BFEDE600001900002018000020CE
:103710002A0000200000E040000030409A9999996A
:10372000999923405C0000201B0000201A00002013
:103730001D0000201C000020000059402C0000202B
:103740002500002024000020008066407400002036
:10375000270000202600002029000020280000204B
:1037600010B5FEF7B3F94FF4B4610C48FFF70FFA48
:10377000FEF79CFD4FF4B4610848FFF70AFAFEF724
:1037800099F94FF4B4610548FFF705FAFEF782FD99
:103790004FF4B4610148FFF700FA10BD0034014056
:1037A00070B5FFF743FD15480078012819D10020B6
:1037B00012490870124A10211248FEF7F9FA10490E
:1037C000086B00F0EBFA044622460B460EA0FCF70D
:1037D00031FD0B48816A10A0FCF72CFD12A0FCF70C
:1037E00029FD1248007840B1242310220321012032
:1037F000FEF720FD00200D49087070BD4300002039
:10380000E0010020F400002050574D3A20252E31D1
:103810006625250A0000000073706565643A20255E
:10382000642052504D0A00000D0A000038000020AC
:1038300010B500290AD00878002807D00548784438
:10384000FDF752FA002801D0002010BD024878444C
:1038500010BD00001E0C0000160C000021F00042FC
:10386000A2F16052B2F5801F01F0004328BFD2F1EF
:103870007F6C0BD95FEA001C43EAC20242EB507036
:1038800018BF704728BF20F001007047B2F5801FB5
:10389000BCBF184670474FEA410C1CF5001F02D20E
:1038A000084600F05CBC70B500F024FA0000008906
:1038B000FFF7F6BF4FF00040A0F580007047000012
:1038C0002DE9C04130B4DFF8A0C23CEA111418BFA2
:1038D0003CEA131400F0EC8081EA03051CEA1114A1
:1038E00044EAD57418BF1CEA131500F0C780A4EB96
:1038F00005044FF0004545EAC12145EAC32341EAEA
:10390000505143EA525304F17F74994204F5003454
:103910004FEAC0204FEAC22208BF904200F09C80CC
:103920004FEA13650FF24016765D4FEA134506FB2A
:1039300005F7C7F1807706FB07F74FEAD737A7FBF4
:1039400003687642C8F58038A7FB06CE38BFA8F1D9
:10395000010807FB08E64FF0000EA6FB028CE6FB11
:1039600003CEDCF1000CCEF1004E38BFAEF1010EFB
:10397000A6FB0C584FF000074FF00005E6FB0E8742
:10398000A1FB08C6A0FB07CE16EB0E0645F100050D
:10399000E1FB076515F1E04E7EBFA4F580345FEAD8
:1039A00046066D4116F1800745F100054FEA1727DD
:1039B0004FEA066647EA0567A6F1DE46B6F1805F84
:1039C0004FEA15251FD9384624F0010C05EBC471C8
:1039D000BCF1FE6F01EB0C1102D8F0BCBDE8008118
:1039E00024425CBF01F5801E9EEAC47F02D4F0BC75
:1039F000BDE80081244238D4F0BCA1F1C041BDE84B
:103A0000004100F0C5B94FEAD22242EA43524FEAE0
:103A1000D323A7FB02864FEAD02040EA415007FBA0
:103A200003661EEA0E0F4FEAD12105FB026658BF5E
:103A3000A6EB0056B6EB00564FEA520E4EEAC37E96
:103A400018EB0E0E56EB530EBDD518EB02085E4177
:103A50007F1C55F10005B6E74FF480154FF00007C5
:103A60004FF000064FF00008ADE7F0BC4FF000004B
:103A700001F1C04101F00041BDE8008111EA0C1FD5
:103A80000CEA131500D00CE013EA0C1F00F025809F
:103A90004FF00000F0BC81EA030101F00041BDE8F5
:103AA0000081F0BCBDE8004181EA030100F070B97B
:103AB000F0BCBDE8004170B500F01CF9097EFC3E89
:103AC00000F007B881EA03014FF0000001F0004167
:103AD000704781EA030100F05BB9F0BCBDE800412A
:103AE0004FF0000021497047FFFDFBF9F7F5F4F2B4
:103AF000F0EEEDEBE9E8E6E4E3E1E0DEDDDBDAD889
:103B0000D7D5D4D3D1D0CFCDCCCBCAC8C7C6C5C4E6
:103B1000C2C1C0BFBEBDBCBBBAB9B8B7B6B5B4B3FD
:103B2000B2B1B0AFAEADACABAAA9A8A8A7A6A5A4E8
:103B3000A3A3A2A1A09F9F9E9D9C9C9B9A999998AC
:103B40009797969595949393929191908F8F8E8E4F
:103B50008D8C8C8B8B8A89898888878786858584DC
:103B600084838382828181800000FF070000F87FC8
:103B700010F0004248BF4042B0FA80F310FA03F15F
:103B80000AD0C3F11D0303F580634FEA415002EBF5
:103B9000035202EBD12170474FF000007047000044
:103BA000DFF848C170B51CEA111E1EBF1CEA1315D0
:103BB0009EEA0C0F95EA0C0F00F06F8081EA030477
:103BC00023EA4C134EEAD47E21EA4C1141F48011D1
:103BD00043F48013AE44A1FB024CA0FB0365AEF19D
:103BE0007F7E361955EB0C05A1FB034C4CF100030D
:103BF000A0FB021C16EB0C06654153F100030942C1
:103C000018BF46F0010613F4007F0BD14FEA0331D1
:103C10004FEA0530340341EA155140EA16506FF07F
:103C200003020AE04FEAC3214FEAC520F40241EA49
:103C3000555140EA56506FF0020202EB2E4201EB62
:103C4000025585EACE710AD05FEA440C18BF24F011
:103C5000004450F1000041F1000120EAD47040F22C
:103C6000FE7C624500D270BDA84214BF4FF0804474
:103C70004FF04044002E08BF0024BEF1806FA8BF63
:103C8000A1F1C041BDE8704080F282804FF0000099
:103C900001F1C04101F0004170479EEA0C0F0CEAAF
:103CA000131518BF95EA0C0F06D04FF0000081EAFB
:103CB000030E0EF0004170BD00F01CF88900013EBB
:103CC00000F007B800F009B84FEA430C5FEA5C5C0B
:103CD00008D081EA030100F05BB84FEA410C5FEACB
:103CE0005C5CF6D14FF00000014970470000FF070F
:103CF0000000F87F0EF1020E2EF0030E5EF8046B4A
:103D0000364205D4012A43EB030515F5001F12D8EE
:103D1000012841EB010C1CF5001F0CD80ED14FEA15
:103D2000D17C15F5001F0CEB4C0C0CF1020C08BFFC
:103D30004CEBD37C04E04FF0080C01E04FEAD37C5D
:103D40000CEB4C0526FA05F606F00706B6F1040C56
:103D500006D20EEB860CBDE870404CF0010C6047BB
:103D6000DFE80CF0090B02024FF000414FF00000B9
:103D7000A1F5002170BD19461046012851EB010440
:103D800018BFD4F5001484BF002001F0004170BDBD
:103D90000808A0F500114FEA3101704743004FEACF
:103DA000D30C4FEA3C0C43401FBF40070CF160515D
:103DB00013F0FE4F70471CF0006F03D100200CF091
:103DC000004170470CF0004343EA507010B540EAE0
:103DD000CC0000F07EF900BF000000924FEA000125
:103DE000FFF7D6BF4FF000414FF00000A1F50021D2
:103DF000704700004FF47F0C1CEAD0121EBF1CEA73
:103E0000D11392EA0C0F93EA0C0F00F0858090EA30
:103E1000010F48BF42F4807240F4000C41F40000EE
:103E20002CF07F4120F07F4000B58142A2EB0302DD
:103E30000FF2081CACEB504EC0F100009EF800E001
:103E40004FEA4E0E00FB0EFC38BF49004FEA2C1C17
:103E500002F5FA020CFB0EF34FEACE1E4FEA112CCC
:103E60004FEAC1210EEB635E42EB22420EFB0CFCDB
:103E70004FEA1C5300FB03114FEA112C4FEA0131AA
:103E80000EFB0CFC4FEADC4C00FB0C11C14228BFBE
:103E900009184CEB03335DF804EB10EB410143EBE5
:103EA000C250B2F57C0F38BF704729D512F0F00F21
:103EB0001CBF00F1C04000F00040704700818283C9
:103EC0008485868788898B8C8D8E8F919293959629
:103ED00097999A9C9D9FA0A2A3A5A7A8AAACAEB0B3
:103EE000B2B3B5B7B9BCBEC0C2C5C7C9CCCED1D4B8
:103EF000D7D9DCDFE2E6E9ECF0F3F7FAFE000000E8
:103F00004FEA400C0CF1807CBCF17E4F28BF70471B
:103F1000B0F1C04000F023B990EA010F0CEAD113D0
:103F200048BF42F48072624538BF634507D213F43C
:103F30007F0F16D080EA010000F00040704710B5F6
:103F400000F0C7F8097EFC3E00F005B880EA0100E9
:103F500000F00040704780EA010000F0004000F0EF
:103F6000FEB812F47F0F04BF0248704780EA0100D8
:103F700000F0F5B80000C07F10F0004148BF40429B
:103F8000B0FA80F310FA03F2C3F19D030BD051EAAB
:103F9000C35101EB1220530638BF704700F10100F6
:103FA00008BF20F001007047B0FA80F310FA03F266
:103FB000C3F19D030AD0D90501EB1220530638BF87
:103FC000704700F1010008BF20F0010070470000B9
:103FD0004FF47F0C1CEAD0121EBF1CEAD11392EAE8
:103FE0000C0F93EA0C0F00F0478090EA010F48BFD6
:103FF00042F480724FF0004C4CEA00204CEA012160
:1040000002EB0302A0FB0113A2F50002002918BF76
:1040100043F001035B0028BF4FEA330342EB224227
:104020005FEA132C4CEBC2502EBFBCEB436FB2F5D2
:104030007C0F70474FEA036CBCF1004F08BF20F0C3
:104040000100B2F57C0F38BF70470BD582F0FF023C
:1040500012F5803FC8BF704700F1C040D8BF00F0E4
:104060000040704700F5000C5FEA4C0C48BF7047F9
:10407000B0F1C04000F073B890EA010F0CEAD11320
:1040800048BF42F48072624538BF634504D280EA7B
:10409000010000F00040704710B500F01AF800BFB2
:1040A0008900013E00F007B800F009B85FEA410C52
:1040B0005FEA1C6C08D080EA010000F050B85FEAAB
:1040C000400C5FEA1C6CF6D14FF00040A0F5800078
:1040D00070470EF1020E2EF0030E5EF8044B2442E0
:1040E00004D44FEA4102B2F17F4F11D84FEA4003A6
:1040F000B3F17F4F0CD80ED14FEAD07CB2F17F4F95
:104100000CEB4C0C0CF1020C08BF4CEBD17C04E026
:104110004FF0080C01E04FEAD17C0CEB4C0324FA81
:1041200003F404F00704B4F1040C06D20EEB840C83
:10413000BDE810404CF0010C6047DFE80CF00708C8
:1041400002024FF00040A0F5800010BD084642007A
:1041500018BFD2F1807288BF00F0004010BDFF216F
:1041600041EAD050C0057047FCF72CBB00C181402C
:1041700001C0804101C0804100C1814001C0804137
:1041800000C1814000C1814001C0804101C0804127
:1041900000C1814000C1814001C0804100C1814017
:1041A00001C0804101C0804100C1814001C0804107
:1041B00000C1814000C1814001C0804100C18140F7
:1041C00001C0804101C0804100C1814000C18140E7
:1041D00001C0804101C0804100C1814001C08041D7
:1041E00000C1814000C1814001C0804101C08041C7
:1041F00000C1814000C1814001C0804100C18140B7
:1042000001C0804101C0804100C1814000C18140A6
:1042100001C0804101C0804100C1814001C0804196
:1042200000C1814000C1814001C0804100C1814086
:1042300001C0804101C0804100C1814001C0804176
:1042400000C1814000C1814001C0804101C0804166
:1042500000C1814000C1814001C0804100C1814056
:1042600001C0804101C0804100C1814000C0C10146
:10427000C30302C2C60607C705C5C404CC0C0DCDD6
:104280000FCFCE0E0ACACB0BC90908C8D81819D946
:104290001BDBDA1A1EDEDF1FDD1D1CDC14D4D51576
:1042A000D71716D6D21213D311D1D010F03031F166
:1042B00033F3F23236F6F737F53534F43CFCFD3D96
:1042C000FF3F3EFEFA3A3BFB39F9F83828E8E92986
:1042D000EB2B2AEAEE2E2FEF2DEDEC2CE42425E536
:1042E00027E7E62622E2E323E12120E0A06061A1A6
:1042F00063A3A26266A6A767A56564A46CACAD6D56
:10430000AF6F6EAEAA6A6BAB69A9A86878B8B979C5
:10431000BB7B7ABABE7E7FBF7DBDBC7CB47475B5F5
:1043200077B7B67672B2B373B17170B050909151E5
:104330009353529296565797559594549C5C5D9D15
:104340005F9F9E5E5A9A9B5B995958988848498905
:104350004B8B8A4A4E8E8F4F8D4D4C8C44848545B5
:1043600087474686824243834181804030313233E1
:104370003435363738394142434445464030580099
:1043800030313233343536373839616263646566CB
:104390004030780004000008000000000000000227
:1043A000000100001000000002400000000000A01A
:1043B0000000000005400000000000C800000000F0
:1043C0000C4000000000409C00000000194000006C
:1043D0000020BCBE0000000034400000BFC91B8E9E
:1043E00000000004B5400000504BCFD06607E2CF7C
:1043F000010000006C4100003E8251AADFEEA734AC
:1044000001000000D9420000DCB5A0E23A301F975D
:10441000FFFFFFFFB4450000FD25A0C8E9A3C14F81
:10442000FFFFFFFFFF3F00000000008000000000D2
:10443000FF3F0000000000800000000078440008FA
:10444000000000205C0000006C010008D44400085B
:104450005C00002064090000880100081C000000C6
:1044600043000000F8FFFFFF0C0000000E000000FA
:104470000F0000002E00000000A24A04000000000F
:104480000000000001020304060708090000000004
:10449000000000000000000000000000000000001C
:1044A000000000000000000000000000000000000C
:1044B00000000000000000000000000000000000FC
:1044C00000000000010203040102030406070809BA
:0444D00002040608D4
:04000005080001F1FD
:00000001FF
