:020000040800F2
:1000000090080020390200082109000801080008B2
:100010001D09000821070008EF110008000000007A
:10002000000000000000000000000000490C000873
:100030002507000800000000B1090008610D000854
:10004000530200085302000853020008530200083C
:10005000530200085302000853020008530200082C
:10006000530200085302000853020008530200081C
:10007000530200085302000853020008530200080C
:1000800053020008530200085302000853020008FC
:1000900053020008530200085302000853020008EC
:1000A00053020008530200085302000853020008DC
:1000B00053020008530200085302000853020008CC
:1000C00053020008530200085302000853020008BC
:1000D00053020008310F0008B90F0008530200084E
:1000E000530200085302000853020008530200089C
:1000F000530200085302000853020008530200088C
:100100005302000853020008CD0D000853020008F6
:10011000530200085302000853020008530200086B
:10012000530200085302000853020008530200085B
:10013000530200085302000853020008530200084B
:10014000530200085302000853020008530200083B
:10015000530200085302000853020008530200082B
:10016000530200085302000853020008530200081B
:10017000530200085302000853020008530200080B
:10018000530200085302000800F002F800F044F89F
:100190000AA090E8000C82448344AAF10107DA45E2
:1001A00001D100F039F8AFF2090EBAE80F0013F0F0
:1001B000010F18BFFB1A43F001031847C0150000D8
:1001C000E0150000103A24BF78C878C1FAD8520769
:1001D00024BF30C830C144BF04680C6070470000C1
:1001E0000023002400250026103A28BF78C1FBD840
:1001F000520728BF30C148BF0B607047642900F028
:100200009980732900F0FF81002070471FB501F02D
:100210009FF91FBD10B510BD00F050FA1146FFF751
:10022000F5FF01F077F800F06EFA03B4FFF7F2FF84
:1002300003BC00F0FEFF0000094880470948004762
:10024000FEE7FEE7FEE7FEE7FEE7FEE7FEE7FEE786
:10025000FEE7FEE704480549054A064B70470000E3
:10026000650D000889010008900200209008002018
:100270009004002090040020704700000FB404494F
:1002800010B503AA029800F0C3F910BC5DF814FB86
:100290001000002070B5044685690068C10601D5CC
:1002A000302600E02026C00707D070BDD4E9012128
:1002B00030469047206A401C20626D1EF6D570BD06
:1002C00070B5044685690078C00707D170BDD4E9D0
:1002D000012120209047206A401C20626D1EF6D527
:1002E00070BD70B50C460546012A05D028788006F9
:1002F00000D5EA69002302E0012305E05B1C93427C
:1003000002D2E05C0028F9D1A869E618C01AA861F9
:10031000286A184428622846FFF7BCFF04E0D5E9A4
:10032000012114F8010B9047B442F8D32846FFF797
:10033000C7FF70BD2DE9F0410646002410687529FD
:10034000314616A510D0AFF30080002802DA4042F3
:1003500013A507E031688A0701D512A502E0490715
:1003600004D511A5012401E0AFF3008000210A2289
:1003700006F1240709E0B0FBF2FCB0FBF2F302FB4C
:100380001C00303078541846491C0028F3D123460D
:100390002A463046BDE8F04100F0CAB8000000002F
:1003A0002D0000002B000000200000002DE9F05F70
:1003B000894604464FF0000ADFF824B1FB44C0F838
:1003C00020A02046E168884700287DD0252806D057
:1003D000D4E901219047206A401C2062F1E7002502
:1003E0005F462046E16888472028064607DB312E15
:1003F00005D2B81910F8200C08B10543F1E7A80799
:1004000001D525F00405C4F81CA00027C4F818A0E5
:100410002A2E09D0304600F005FF38B304EB8708D8
:10042000303EC8F8186019E059F8041B204604EB68
:1004300087029161E1688847012F064618D1E0697B
:10044000002820DA25F020051DE0D8F8180000EB80
:10045000800006EB40003038C8F818002046E168FC
:100460008847064600F0DEFE0028EED1012F0AD0B4
:100470002E2E08D12046E16888477F1C0646022FB1
:1004800045F02005C4DBA069002803DA404245F0AE
:100490000105A061E80701D025F01005A6B1A6F17D
:1004A0004100192802D8203645F400654A463146F5
:1004B000204625604D46FFF7A1FE60B1012807D018
:1004C000ED1D25F0070000E007E000F1080978E7DE
:1004D00005F1040975E730467AE7206ABDE8F09F28
:1004E000A81300004FF000020429C0F0128010F0A1
:1004F000030C00F0A180CCF1040CBCF1020F18BF7A
:1005000000F8012BA8BF20F8022BA1EB0C0100F092
:1005100093B85FEAC17C24BF00F8012B00F8012BDF
:1005200048BF00F8012B704770477047704770470D
:100530002DE9F0470D4699469246044600F12408FD
:100540000168880604D5E06921F01001216000E00F
:100550000120A84201DD471B00E00027A1697A19AC
:1005600002EB0900081AA0612078C00602D42046D8
:10057000FFF790FE002608E0D4E901211AF80600F2
:100580009047206A401C761C20624E45F4DB2078A0
:10059000C0060AD52046FFF77DFE06E0D4E901211A
:1005A00030209047206A401C2062381EA7F10107C6
:1005B000F4DC07E0D4E9012118F805009047206A2F
:1005C000401C2062281EA5F10105F3DC2046FFF740
:1005D00077FE2078000602D50220BDE8F0870120D2
:1005E000FBE710B5436913B1AFF3008001E0FFF7FB
:1005F00078FE012010BD127800F124010A7000225B
:100600004A700122EDE711684FF0FF32E9E7000080
:10061000074B70B50D467B4400F039F80446284678
:1006200000F048F810B14FF0FF3070BD204670BDAB
:10063000DF0C00004FF0000200B5134694469646CA
:10064000203922BFA0E80C50A0E80C50B1F12001E5
:10065000BFF4F7AF090728BFA0E80C5048BF0CC093
:100660005DF804EB890028BF40F8042B08BF7047F1
:1006700048BF20F8022B11F0804F18BF00F8012B63
:100680007047000001694A1C02610878704700B594
:100690008FB0CDE901310021059105497944CDE9BB
:1006A000031011466846FFF781FE0FB000BD000041
:1006B000E5FFFFFF007B00F080007047754600F00B
:1006C0002BF8AE4605006946534620F007008546E4
:1006D00018B020B5FFF7BEFDBDE820404FF0000682
:1006E0004FF000074FF000084FF0000B21F007011A
:1006F000AC46ACE8C009ACE8C009ACE8C009ACE85D
:10070000C0098D46704710B50446AFF300802046FF
:10071000BDE81040FFF789BD004870473002002057
:1007200000BFFEE77047F0B50A4600210023002411
:1007300000BF3DE0012505FA01F3156805EA030451
:100740009C4234D105684F000326BE40B543056086
:1007500015794E00B5400668354305601579012DC1
:1007600002D01579022D16D185684F000326BE40B0
:10077000B543856055794E00B54086683543856040
:10078000456801268E40B5434560456896798E40A0
:10079000B6B235434560C5684F000326BE40B54339
:1007A000C560D5794E00B540C6683543C560491C63
:1007B0001029BFD3F0BDF0B5002300244D07ED0E86
:1007C00002FA05F3CE1000F1200555F826504E0729
:1007D000F70E0F26BE40B543CF1000F1200646F8B5
:1007E0002750CE1000F1200555F8265045EA0304A5
:1007F000CE1000F1200545F82640F0BD018370477A
:1008000000BFFEE71CB50121102000F0D3F8012144
:10081000402000F0CFF81820009001208DF804004F
:1008200000208DF8060003208DF8050001208DF8CA
:10083000070069460F48FFF776FF18210D48FFF7BC
:10084000DDFF4FF40070009001208DF804000020BF
:100850008DF8060003208DF8050001208DF80700B3
:1008600069460548FFF75FFF4FF400710248FFF744
:10087000C5FF1CBD001002400018024070B50246C2
:100880000D460021FF23FF2409E012F8010B80EA46
:1008900004010748405C80EA03040648435C281EC4
:1008A000A5F10106F5B2F0D144EA032070BD0000C5
:1008B0005A1500085A1600082DE9F04107460D4662
:1008C00016460024A0462146641C134847540522BE
:1008D0002146641C42542A122146641C425421467B
:1008E000641C455432122146641C42542146641C47
:1008F00046542146FFF7C2FF80462146641C064845
:1009000000F801804FEA28222146641C4254214607
:1009100000F0F4F8BDE8F081E400002000BFFEE73D
:100920007047000070B5002100230F22C4781CB36B
:10093000174C246804F4E064C4F5E064C4F30721B0
:10094000C1F10404E3B20A4144789C40E1B28478E6
:10095000144021430C07210E0E4C05786155047894
:1009600004F01F050124AC4005786D11AD0005F1C0
:10097000E025C5F8004109E0047804F01F050124D2
:10098000AC40054D0678761145F8264070BD000054
:100990000CED00E000E400E080E100E002490143EA
:1009A000024A1160704700000000FA050CED00E0FB
:1009B0007047000029B1064A12680243044B1A60CE
:1009C00004E0034A12688243014B1A60704700003A
:1009D0003038024029B1064A12680243044B1A60BB
:1009E00004E0034A12688243014B1A60704700001A
:1009F0004038024029B1064A12680243044B1A608B
:100A000004E0034A12688243014B1A6070470000F9
:100A100044380240F0B500210022002402250026BF
:100A20000223324F3F6807F00C0121B1042905D0A1
:100A3000082937D105E02E4F076036E02D4F0760BB
:100A400033E02A4F3F1F3F68C7F38056274F3F1FB1
:100A50003F6807F03F036EB1264FB7FBF3F7DFF8AF
:100A60008CC0ACF1040CDCF800C0CCF3881C07FB94
:100A70000CF40CE01E4FB7FBF3F7DFF870C0ACF1DD
:100A8000040CDCF800C0CCF3881C07FB0CF4174FF7
:100A90003F1F3F68C7F301477F1C7D00B4FBF5F79C
:100AA000076002E0124F076000BF00BF0F4F3F68B2
:100AB00007F0F0010909104F7A5C0768D7404760DA
:100AC0000A4F3F6807F4E051890A0B4F7A5C476888
:100AD000D7408760054F3F6807F46041490B064FD8
:100AE0007A5C4768D740C760F0BD00000838024014
:100AF0000024F40000127A000000002070B50546C2
:100B00000E46002401200F49086000BF0CE000BF22
:100B100040210D4800F09BFA0028F9D0295D0A48D1
:100B200000F061FB601CC4B2B442F0DB00BF4021A6
:100B3000054800F08CFA0028F9D00020014908602F
:100B400070BD0000980243420044004010B588B0D8
:100B5000044601210846FFF72DFF01214804FFF755
:100B600039FF01214020FFF725FF072202213248EB
:100B7000FFF721FE072203212F48FFF71CFE0C2060
:100B8000069002208DF81C0003208DF81D00002027
:100B90008DF81E0001208DF81F0006A92648FFF7DA
:100BA000C2FD4020069001208DF81C0003208DF826
:100BB0001D0000208DF81E0001208DF81F0006A9E1
:100BC0001E48FFF7B0FD00201D4908600294ADF8F3
:100BD0000C00ADF80E00ADF81000ADF814000C20BC
:100BE000ADF8120002A9174800F08EFA012115484D
:100BF00000F021FA4021134800F014FA012240F2DB
:100C00002551104800F05AFA012240F224410D48C3
:100C100000F054FA26208DF8040002208DF805001B
:100C200000208DF8060001208DF8070001A8FFF7CD
:100C300079FE08B010BD000000000240001802401C
:100C40009802434200440040704700000CB5002069
:100C5000019000903448006840F4803032490860C8
:100C600000BF3148006800F4003000900198401C3B
:100C70000190009818B90198B0F5A04FF1D12A4819
:100C8000006800F4003010B10120009001E0002065
:100C900000900098012846D123484030006840F079
:100CA00080502149403108602048006840F44040AD
:100CB0001E4908601C48083000681B49083108605C
:100CC0000846006840F4004008600846006840F4A8
:100CD000A05008601648091F0860081F006840F00F
:100CE0008070091F086000BF0F48006800F00070A6
:100CF0000028F9D040F205700E4908600A48083013
:100D0000006820F0030008490831086008460068C0
:100D100040F00200086000BF03480830006800F09F
:100D20000C000828F8D10CBD0038024000700040CB
:100D300008544007003C0240042808D14FF0E0214D
:100D4000096941F004014FF0E022116107E04FF022
:100D5000E021096921F004014FF0E02211617047A0
:100D60007047000010B51548006840F47000134942
:100D700008601348006840F0010011490860002035
:100D80000F49083108600E4800680E4908400C49B8
:100D900008600D48091D0860081F006820F48020C5
:100DA000091F0860002006490C310860FFF74EFF5C
:100DB0004FF0006001498039086010BD88ED00E007
:100DC00000380240FFFFF6FE1030002410B501216C
:100DD000084800F050F858B10748006808B90120E9
:100DE00000E00020044908600121024800F034F8C6
:100DF00010BD0000000C0040A40243427FB5054630
:100E00000C4601210820FFF7E5FD0295ADF80440EE
:100E10000020ADF80600ADF80C0001A90D4800F067
:100E200045F8012211460B4800F036F80121094827
:100E300000F015F832208DF8000005208DF8010033
:100E400000208DF8020001208DF803006846FFF7AE
:100E500069FD7FBD000C0040CA430282704721B18A
:100E6000028842F00102028004E002884FF6FE731D
:100E70001A400280704730B502460020002300244B
:100E8000158A05EA0103958905EA010413B10CB13D
:100E9000012000E0002030BD1AB183890B4383811B
:100EA00002E083898B43838170470000002202881F
:100EB000184B98420ED0184B98420BD0B0F1804F8F
:100EC00008D0164B984205D0154B984202D0154BCE
:100ED000984204D14FF68F731A404B881A43124B35
:100EE000984207D0114B984204D04FF6FF431A4066
:100EF0000B891A4302804B68C3620B880385054B3C
:100F0000984202D0044B984201D18B7A0386012388
:100F1000838270470000014000040140000400404B
:100F200000080040000C0040001000400014004089
:100F300010B540F225511D4800F096F810B31B483B
:100F400000F04CF9C4B21A48008800F40040C8B957
:100F50001748008800F4804060B10A2C03D00020BC
:100F60001349088020E01248008840F400401049EE
:100F7000088019E00D2C06D10D48008840F480400F
:100F80000B49088010E00A480088C0F30D000949A9
:100F90000C5407480088401C054908800846008812
:100FA000C72801DD0020088010BD000000100140AE
:100FB000140000201C00002010B500241648007802
:100FC00000F0800030BB40F22551144800F04CF88E
:100FD00060B1124800F002F9C4B20F4801780078FD
:100FE000401C0D4A10700E48445413E040F2244156
:100FF0000A4800F039F801280CD10748007840F081
:1010000080000549087005480088C4B20348001DE7
:101010000088C4B210BD00001A0000200044004047
:101020006401002001F40072B2F5007F00D100BF1E
:10103000CA430280704721B1828942F40052828102
:1010400004E082894DF6FF731A40828170470246A0
:101050000020B1F5007F00D100BF13880B400BB119
:10106000012000E00020704770B5024600240023F4
:101070000025002040F66A16B14200D100BFC1F33E
:10108000421501F01F03012606FA03F3012D02D1D8
:101090009689334006E0022D02D1168A334001E0E2
:1010A000968A33400C12012606FA04F4168834405E
:1010B00013B10CB1012000E0002070BDF0B5034673
:1010C000002400260025002040F66A17B94200D10E
:1010D00000BF1846C1F3421401F01F06012707FAAA
:1010E00006F5012C01D10C3004E0022C01D11030A6
:1010F00000E014301AB107682F43076002E0076868
:10110000AF430760F0BD00002DE9FF4705460E46DE
:101110000024A14600BFA046B08900B100BF2C8AC0
:1011200024F44054F08804432C82AC8941F20C60D2
:101130008443B08831890843718908430443AC81F2
:10114000AC8A24F44074B0890443AC826846FFF74B
:1011500061FC2048854202D01F48854202D1DDF85B
:101160000C9001E0DDF80890A88900F4004040B13F
:1011700009EBC90000EB091031684900B0FBF1F739
:1011800007E009EBC90000EB091031688900B0FBEA
:10119000F1F76420B7FBF0F004012009642101FBA2
:1011A0001078A88900F4004040B1322000EBC8005C
:1011B000B0FBF1F000F00700044308E0322000EB40
:1011C00008106421B0FBF1F000F00F0004432C8103
:1011D000BDE8FF87001001400014014001468888E7
:1011E000C0F308007047C1F308028280704700BF57
:1011F000FEE7000010B50024642408E0012000F0A0
:1012000039F8201EA4F101018CB200D110BD0448B0
:10121000007800F080000028F0D000BFF6E7000062
:101220001A00002030380A2801D20120704700201F
:10123000704700BF7047000010B504466FF004000F
:10124000FFF77AFDE11704EB5171C1F3C701074ABB
:1012500011701046007800EB4001C1EBC0104FF652
:10126000FF7101EAC0000249088010BD160000208D
:101270001800002070B504464FF4077094FBF0F09E
:10128000C6B24FF4077094FBF0F100FB114085B239
:1012900005E04FF4077000F009F8701EC6B2002E8A
:1012A000F7D115B1284600F001F870BD0146114A8A
:1012B00012884A434FF0E0235A6100229A611A468D
:1012C000126942F001021A6100BF4FF0E02210697A
:1012D00000F001021AB100F48032002AF5D04FF07C
:1012E000E022126922F001024FF0E0231A6100228D
:1012F0009A6170471800002000BF054A128802F06A
:101300004002002AF9D0C2B2014B9A807047000017
:10131000001001404FF4A060FFF740FBA820FFF74A
:101320008BFF4FF4E13000F0BDF84FF4E130FFF7F0
:101330000DFCFFF767FA42F2CF0141F28830FFF768
:101340005DFD05E000F06AF84FF4FA70FFF792FFD8
:10135000F8E7000010B504466078012802D00228A2
:101360000ED106E0084B1E2208A10EA0FEF786FF54
:1013700007E0054B222205A119A0FEF77FFF00E040
:1013800000BF00BF10BD00005A1700082E2E5C548D
:1013900041534B5C72733438355F7461736B2E63E9
:1013A000000000005B25733A253035645D5B2573D2
:1013B0005D3D3D3D3D3D3D3D3D3D3D3D3D3D3D3D3D
:1013C0003D3D3D3D3D3D3D3D46554E4354494F4ECF
:1013D0005F434F44455F3031482E0D0A0000000046
:1013E0005B25733A253035645D5B25735D3D3D3D7E
:1013F0003D3D3D3D3D3D3D3D3D3D3D3D3D3D3D3D1D
:101400003D3D3D3D46554E4354494F4E5F434F444D
:10141000455F3032482E0D0A0000000070B51E48AE
:10142000028901210846FFF747FAFFF7E3FE1B4850
:10143000007800F0800060B319480078012807D0D8
:1014400080211748FFF74EF800201449087070BD3E
:10145000002500261148007800F07F04A01EC1B2CC
:101460000F48FFF70BFA0646A01E0D49095C601EE7
:101470000B4A105C41EA0025AE4202D11046FFF74C
:1014800069FF80210648FFF72DF800200349087006
:1014900000BF00BFDBE70000E40100201A000020CD
:1014A0006401002010B588B0044601210846FFF70A
:1014B00081FA01211020FFF79DFA07220921224815
:1014C000FFF779F907220A211F48FFF774F94FF453
:1014D000C060069002208DF81C008DF81D000020D1
:1014E0008DF81E0001208DF81F0006A91648FFF791
:1014F0001AF902940020ADF80C00ADF80E00ADF81A
:101500001000ADF814000C20ADF8120002A90F482D
:10151000FFF7FAFD01210D48FFF78DFD012240F292
:1015200025510A48FFF7CAFD25208DF80400032045
:101530008DF805008DF8060001208DF8070001A840
:10154000FFF7F0F908B010BD0000024000100140A4
:101550004FF04070E1EE100A704700C1814001C0B9
:10156000804101C0804100C1814001C0804100C173
:10157000814000C1814001C0804101C0804100C163
:10158000814000C1814001C0804100C1814001C053
:10159000804101C0804100C1814001C0804100C143
:1015A000814000C1814001C0804100C1814001C033
:1015B000804101C0804100C1814000C1814001C023
:1015C000804101C0804100C1814001C0804100C113
:1015D000814000C1814001C0804101C0804100C103
:1015E000814000C1814001C0804100C1814001C0F3
:1015F000804101C0804100C1814000C1814001C0E3
:10160000804101C0804100C1814001C0804100C1D2
:10161000814000C1814001C0804100C1814001C0C2
:10162000804101C0804100C1814001C0804100C1B2
:10163000814000C1814001C0804101C0804100C1A2
:10164000814000C1814001C0804100C1814001C092
:10165000804101C0804100C1814000C0C101C3037D
:1016600002C2C60607C705C5C404CC0C0DCD0FCFFA
:10167000CE0E0ACACB0BC90908C8D81819D91BDB6A
:10168000DA1A1EDEDF1FDD1D1CDC14D4D515D717BA
:1016900016D6D21213D311D1D010F03031F133F36A
:1016A000F23236F6F737F53534F43CFCFD3DFF3FBA
:1016B0003EFEFA3A3BFB39F9F83828E8E929EB2BEA
:1016C0002AEAEE2E2FEF2DEDEC2CE42425E527E77A
:1016D000E62622E2E323E12120E0A06061A163A3EA
:1016E000A26266A6A767A56564A46CACAD6DAF6F7A
:1016F0006EAEAA6A6BAB69A9A86878B8B979BB7BEA
:101700007ABABE7E7FBF7DBDBC7CB47475B577B739
:10171000B67672B2B373B17170B050909151935369
:10172000529296565797559594549C5C5D9D5F9F39
:101730009E5E5A9A9B5B99595898884849894B8B69
:101740008A4A4E8E8F4F8D4D4C8C448485458747F9
:101750004686824243834181804072733438355FCC
:1017600070726F636573730004000008000000006E
:101770000000000200010000100000009C1700089B
:10178000000000201C000000C4010008B817000879
:101790001C00002074080000E001000800000000A8
:1017A0000102030401020304060708090000000007
:0817B000000000000000000031
:040000050800018965
:00000001FF
