:020000040800F2
:10000000A8070020DD0100080D0B0008D50A000834
:10001000090B00087D0500085D1F000800000000B6
:10002000000000000000000000000000B10E000809
:100030008105000800000000D50C00081910000818
:10004000F7010008F7010008F7010008F7010008B0
:10005000F7010008F7010008F7010008F7010008A0
:10006000F7010008F7010008F7010008F701000890
:10007000F7010008F7010008F7010008F701000880
:10008000F7010008F7010008F7010008F701000870
:10009000F7010008F7010008F7010008F701000860
:1000A000F7010008BD120008F7010008F701000879
:1000B000F7010008F7010008F7010008F701000840
:1000C000F7010008F7010008F7010008F701000830
:1000D000F701000851190008151A0008F91A00085C
:1000E000F7010008F7010008F7010008F701000810
:1000F000F7010008F7010008F7010008F701000800
:10010000F7010008F7010008F7010008F7010008EF
:10011000F51800081D190008F7010008F70100088C
:10012000F7010008F7010008F7010008F7010008CF
:1001300000F002F800F042F80AA090E8000C8244B7
:100140008344AAF10107DA4501D100F037F8AFF294
:10015000090EBAE80F0013F0010F18BFFB1A43F0A5
:10016000010318478C2A0000AC2A0000103A24BF73
:1001700078C878C1FAD8520724BF30C830C144BF0C
:1001800004680C607047000000230024002500264E
:10019000103A28BF78C1FBD8520728BF30C148BFEA
:1001A0000B607047642900F07B80782900F0B480F0
:1001B000002070471FB51FBD10B510BD00F096F9A7
:1001C0001146FFF7F7FF01F0A1FF00F0B4F903B407
:1001D000FFF7F2FF03BC01F0C3FE000009488047AF
:1001E00009480047FEE7FEE7FEE7FEE7FEE7FEE719
:1001F000FEE7FEE7FEE7FEE704480549054A064B31
:10020000704700001D10000831010008A8010020FF
:10021000A8070020A8030020A803002070470000C2
:100220000FB4044910B503AA029800F031F910BCCC
:100230005DF814FB340000202DE9F0410E46044621
:10024000002020622046E168884730B3252805D089
:10025000D4E901219047206A401CF2E7E16820467A
:1002600000278847050018D0A5F14100192802D8B9
:1002700020354FF400673246294620462760FFF7B5
:1002800091FF40B1012804D0F61D26F0070608367C
:10029000D8E7361DD6E72846DAE7206ABDE8F081C0
:1002A0002DE9F0410646002410687529314616A54F
:1002B00010D0AFF30080002802DA404213A507E017
:1002C00031688A0701D512A502E0490704D511A5B6
:1002D000012401E0AFF3008000210A2206F1240787
:1002E00009E0B0FBF2FCB0FBF2F302FB1C00303083
:1002F00078541846491C0028F3D123462A46304634
:10030000BDE8F04100F06AB8000000002D000000D8
:100310002B0000002000000070B504460D46214669
:100320001068AFF300802188090502D50F4A7A448E
:1003300002E00E4A7A440E32002104F1240305E063
:1003400000F00F060009965D5E54491C0028F7D1A5
:1003500020780023000704D5702D02D009B10223B4
:1003600011322046BDE8704000F038B896280000F1
:1003700010B5203AC0F00B80B1E81850203AA0E840
:100380001850B1E81850A0E81850BFF4F5AF5FEA74
:10039000027C24BFB1E81850A0E8185044BF18C927
:1003A00018C0BDE810405FEA827C24BF51F8043BCE
:1003B00040F8043B08BF7047D20728BF31F8023B22
:1003C00048BF11F8012B28BF20F8023B48BF00F8B6
:1003D000012B704770477047704770472DE9F04711
:1003E0000D4699469246044600F1240801688806A5
:1003F00004D5E06921F01001216000E00120A8424D
:1004000001DD471B00E00027A1697A1902EB090012
:10041000081AA0612078C00602D42046AFF30080FD
:10042000002608E0D4E901211AF806009047206A66
:10043000401C761C20624E45F4DB2078C0060AD5AD
:100440002046AFF3008006E0D4E901213020904738
:10045000206A401C2062381EA7F10107F4DC07E087
:10046000D4E9012118F805009047206A401C206259
:10047000281EA5F10105F3DC2046AFF300802078AB
:10048000000602D50220BDE8F0870120FBE700004E
:10049000074B70B50D467B4400F011F80446284622
:1004A00000F020F810B14FF0FF3070BD204670BD55
:1004B0004F1C000001694A1C02610878704700B5B2
:1004C0008FB0CDE901310021059105497944CDE98D
:1004D000031011466846FFF7AFFE0FB000BD0000E5
:1004E000E5FFFFFF007B00F080007047754600F0DD
:1004F0002BF8AE4605006946534620F007008546B6
:1005000018B020B5FFF778FEBDE820404FF0000698
:100510004FF000074FF000084FF0000B21F00701EB
:10052000AC46ACE8C009ACE8C009ACE8C009ACE82E
:10053000C0098D46704710B50446AFF300802046D1
:10054000BDE81040FFF743BE004870474801002057
:1005500008B50121802000F0CFFB40F2FF30ADF85C
:10056000000010208DF8030003208DF8020069467A
:10057000014800F0ACF908BD001C014000BFFEE7D7
:10058000704700218184704700B587B0012108467B
:1005900000F0A2FB0121052000F0AEFB01210820A4
:1005A00000F0AAFB0121344800F01CFA0121334875
:1005B00000F018FA04208DF80F004003ADF80C008D
:1005C00003208DF80E0003A92D4800F080F90420C7
:1005D0008DF80F000820ADF80C0003208DF80E00F8
:1005E00003A9284800F073F904A801F043F900209A
:1005F000ADF81600ADF812004FF6FF70ADF814001C
:100600000020ADF8100004A94FF0804001F0E0F8A0
:10061000684600F039FF0020ADF800000F20ADF86B
:10062000080069464FF0804000F0D8FE0420ADF885
:1006300000000F20ADF8080069464FF0804000F040
:10064000CDFE00231A4603214FF0804000F093FEB8
:100650000121880700F06EFE01221146900700F08C
:100660001CFF00214FF0804001F084F80121880731
:1006700000F066FE07B000BD000318000002300065
:1006800000080140000C014000B587B001210220A4
:1006900000F022FB0121042000F02EFB04208DF845
:1006A0000F00C020ADF80C0003208DF80E0003A948
:1006B000224800F00CF90020ADF81600ADF8120049
:1006C0004FF6FF70ADF814000020ADF810008DF863
:1006D000180004A91A4801F07BF8684600F0D4FE1F
:1006E0000020ADF800000F20ADF80800694614485E
:1006F00000F074FE0420ADF800000F20ADF80800F3
:1007000069460F4800F06AFE00231A4603210C4890
:1007100000F031FE01210A4800F00CFE01221146D2
:10072000074800F0BAFE0021054801F023F8012136
:10073000034800F005FE07B000BD000000080140BE
:100740000004004000B587B00121042000F0C4FA85
:100750000121092000F0D0FA04208DF80F00C020FC
:10076000ADF80C0003208DF80E0003A9224800F01C
:10077000AEF804A801F07EF80020ADF81600ADF840
:1007800012004FF6FF70ADF814000020ADF8100015
:1007900004A91A4801F01CF8684600F075FE002014
:1007A000ADF800000F20ADF808006946134800F0CE
:1007B00015FE0420ADF800000F20ADF808006946D2
:1007C0000E4800F00BFE00231A4603210B4800F0F0
:1007D000D2FD0121094800F0ADFD01221146074874
:1007E00000F05BFE0021054800F0C4FF0121034832
:1007F00000F0A6FD07B000BD000C0140000800405D
:1008000000B587B00121082000F066FA012104201C
:1008100000F072FA48208DF80F000320ADF80C00AC
:100820008DF80E0003A9224800F051F80020ADF821
:100830001600ADF812004FF6FF70ADF8140000205E
:10084000ADF810008DF8180004A91A4800F0C0FF98
:10085000684600F019FE0020ADF800000F20ADF84A
:1008600008006946134800F0B9FD0420ADF8000007
:100870000F20ADF8080069460E4800F0AFFD0023D8
:100880001A4603210B4800F076FD0121094800F0CB
:1008900051FD01221146074800F0FFFD00210548E7
:1008A00000F068FF0121034800F04AFD07B000BDD9
:1008B00000080140000C004001460020888CC21353
:1008C00022B1C0F30E02A2F5FE40FF3870472DE9B9
:1008D000F0410246002500260020002300240027C6
:1008E00091F803C00CF00F0591F803C00CF0100C48
:1008F000BCF1000F03D091F802C04CEA050591F855
:1009000000C0BCF1000F31D0146800202BE04FF084
:10091000010C0CFA00F3B1F800C00CEA03069E4289
:1009200020D183004FF00F0C0CFA03F7BC4305FAFB
:1009300003FC4CEA040491F803C0BCF1280F06D173
:100940004FF0010C0CFA00FCC2F814C00AE091F858
:1009500003C0BCF1480F05D14FF0010C0CFA00FCAC
:10096000C2F810C0401C0828D1D31460B1F800C0F0
:10097000BCF1FF0F34DD546800202EE000F1080CBC
:100980004FF0010808FA0CF3B1F800C00CEA0306B6
:100990009E4221D183004FF00F0C0CFA03F7BC43A9
:1009A00005FA03FC4CEA040491F803C0BCF1280FDB
:1009B00005D100F1080C08FA0CF8C2F8148091F87F
:1009C00003C0BCF1480F07D100F1080C4FF001083B
:1009D00008FA0CF8C2F81080401C0828CED35460E6
:1009E000BDE8F081F0B50A4600230024002100256F
:1009F00000F00046B6F1004F02D11D4EF16901E052
:100A00001B4E7168C0F3034583B200F44016B6F57F
:100A1000401F08D121F07061154E766826F070668F
:100A2000134F7E6012E000F48016B6F5801F06D1E9
:100A3000032606FA05F4A14341F0706106E0460D75
:100A4000360103FA06F6B14341F0706122B1460D5A
:100A5000360103FA06F6314300F00046B6F1004FC6
:100A600002D1034EF16101E0014E7160F0BD000062
:100A70000000014041617047016170472DE9F0417C
:100A8000ADF5007D04460E46FF27B8467A1C0F4997
:100A900040A8FFF76DFC7A1C0D496846FFF768FC1B
:100AA00009E014F8010B80EA070540A8405D80EAE0
:100AB00008071DF80580301EA6F10101CEB2F0D165
:100AC00048EA07200DF5007DBDE8F081C82900083F
:100AD000C82A000800BFFEE710B510210348FFF741
:100AE000C9FF20210148FFF7C7FF10BD001C0140CE
:100AF00010B501210348FFF7BDFF02210148FFF7B0
:100B0000BBFF10BD001C014000BFFEE770470000A6
:100B100070B5002100230F22C47804B3154C24685B
:100B200004F4E064C4F5E064210AC1F10403CA409E
:100B3000447804FA03F184781440214309010E4CEF
:100B40000678A155047804F01F050124AC4005780F
:100B50006D11AD0005F1E025C5F8004109E004780C
:100B600004F01F050124AC40044D0678761145F8C9
:100B7000264070BD0CED00E000E400E080E100E004
:100B800030B589B005460C460121480300F0B4F8A1
:100B90000121102000F0B0F84020ADF8200018200E
:100BA0008DF8230003208DF8220008A94748FFF79D
:100BB0008EFE0121102000F09FF88020ADF820006B
:100BC00018208DF8230003208DF8220008A93F4843
:100BD000FFF77DFE0121102000F08EF84FF48070A9
:100BE000ADF8200018208DF8230003208DF8220096
:100BF00008A93648FFF76BFE0121102000F07CF8B1
:100C00004FF40070ADF8200018208DF82300032069
:100C10008DF8220008A92D48FFF759FEADF81850AD
:100C2000ADF814400020ADF81A00ADF8160005A983
:100C3000274800F0CDFD6020ADF804000120ADF89C
:100C400006000020ADF80A00ADF80C00ADF8100069
:100C500001A91F4800F02AFC01A91D4800F07CFCF6
:100C600001A91B4800F0D8FC01A9194800F02EFD8D
:100C70000121174800F070FB0821154800F062FCC4
:100C80000821134800F0BAFC0821114800F014FDB7
:100C900008210F4800F058FD01210D4800F03EFBEF
:100CA00001210B4800F04CFB0021094800F059FDE0
:100CB0000021074800F057FD0021054800F055FDD0
:100CC0000021034800F053FD09B030BD0010014081
:100CD000003401407047000029B1064AD26902433E
:100CE000044BDA6104E0034AD2698243014BDA61C2
:100CF000704700000010024029B1064A9269024381
:100D0000044B9A6104E0034A92698243014B9A6161
:100D1000704700000010024030B50021002200247E
:100D200000232D4D6D6805F00C0121B1042905D07B
:100D3000082923D105E0294D056022E0274D0560F3
:100D40001FE0254D6D6805F47012234D6D6805F4A4
:100D50008034022505EB92421CB9214D55430560B4
:100D60000BE01D4D6D6805F400351DB11C4D55435C
:100D7000056002E0194D5543056002E0174D05601E
:100D800000BF00BF144D6D6805F0F0010909154D55
:100D90006B5C0568DD4045600F4D6D6805F4E061F2
:100DA000090A104D6B5C4568DD4085600A4D6D6831
:100DB00005F46051C90A0B4D6B5C4568DD40C560A8
:100DC000054D6D6805F44041890B074D6B5CC568A6
:100DD000B5FBF3F5056130BD0010024000127A004A
:100DE00000093D00590000206900002008B50121DC
:100DF0002020FFF781FF8020ADF8000010208DF843
:100E0000030003208DF8020069460348FFF75FFDE9
:100E10000248006808BD0000001401409C81224285
:100E20002DE9FC4706460F4614461D468DF8006026
:100E30008DF8017020128DF80200E0B28DF80300E9
:100E400028128DF80400E8B28DF8050006216846E6
:100E5000FFF714FE8046C8F3072A08F0FF098DF853
:100E600006A08DF807900821684600F023F80120BD
:100E7000024981F86600BDE8FC8700009F00002061
:100E800010B540210348FFF7F5FD80210148FFF729
:100E9000F3FD10BD001C014010B504210348FFF70D
:100EA000E9FD08210148FFF7E7FD10BD001C0140E6
:100EB0007047000070B505460E4601200F490860D6
:100EC00001F072F800240CE000BF40210C4800F053
:100ED000ACFE0028F9D0295D094800F074FF601CC1
:100EE000C4B2B442F0DB012001F05EF800200549F5
:100EF00081F864000149086070BD00009C812242B5
:100F0000004400409F00002010B500F001F810BD23
:100F10000CB50020019000903348006840F4803008
:100F20003149086000BF3048006800F4003000908C
:100F30000198401C0190009818B90198B0F5A06F75
:100F4000F1D12948006800F4003010B10120009070
:100F500001E0002000900098012843D12348006858
:100F600040F01000214908600846006820F00300A6
:100F700008600846006840F0020008601A484068AF
:100F8000194948600846406848600846406840F48F
:100F9000806048600846406820F47C10486008463D
:100FA000406840F4E81048600846006840F08070EF
:100FB000086000BF0C48006800F000700028F9D0FD
:100FC0000948406820F00300074948600846406827
:100FD00040F00200486000BF0348406800F00C0089
:100FE0000828F9D10CBD000000100240002002408A
:100FF000042808D14FF0E021096941F004014FF0C5
:10100000E022116107E04FF0E021096921F00401BD
:101010004FF0E022116170477047000010B513488F
:10102000006840F001001149086008464068104916
:1010300008400E494860084600680E4908400B49C0
:1010400008600846006820F4802008600846406870
:1010500020F4FE0048604FF41F008860FFF754FF43
:101060004FF000600449086010BD0000001002400D
:101070000000FFF8FFFFF6FE08ED00E0F0B50C46BB
:10108000154600220021068C4FF6FE773E4006846E
:10109000028B018C4FF60C7632407E1C06EA03165A
:1010A0002E433243104EB0420ED0104EB0420BD001
:1010B000B0F1804F08D00E4EB04205D00D4EB04278
:1010C00002D00D4EB04206D14FF6FD76314044F0CD
:1010D0000106314305E04FF6F576314044F0010654
:1010E000314302830184F0BD002C014000340140F3
:1010F0000004004000080040000C0040F0B50C4621
:101100001546002200210026078C4FF6EF7C07EAE7
:101110000C070784028B018C4FF6FF7707EA041651
:1011200040F6FF473A404FF6FF7707EA03373A4366
:101130004FF6FF7707EA05273A43114FB8420ED022
:10114000104FB8420BD0B0F1804F08D00E4FB842CC
:1011500005D00E4FB84202D00D4FB84206D14FF61F
:10116000DF77394046F01007394305E04FF65F77E7
:10117000394044F01007394302830184F0BD000078
:10118000002C0140003401400004004000080040F1
:10119000000C0040F0B50C46154600220021002648
:1011A000078C4FF6FF6C07EA0C070784828B018CD3
:1011B0004FF6FF7707EA04264FF60C773A404FF6D2
:1011C000FF7707EA03172F433A43114FB8420ED077
:1011D000104FB8420BD0B0F1804F08D00E4FB8423C
:1011E00005D00E4FB84202D00D4FB84206D14FF68F
:1011F000FF57394046F48077394305E04FF2FF57F7
:10120000394044F48077394382830184F0BD000083
:10121000002C014000340140000400400008004060
:10122000000C0040F0B50C461546002200210026B7
:10123000078C4EF6FF7C07EA0C070784828B018C33
:101240004FF6FF7707EA043640F6FF473A404FF67D
:10125000FF7707EA05273A434FF6FF7707EA033798
:101260003A43114FB8420ED0104FB8420BD0B0F1F4
:10127000804F08D00E4FB84205D00E4FB84202D072
:101280000D4FB84206D14DF6FF77394046F48057EE
:10129000394305E047F6FF57394044F48057394356
:1012A00082830184F0BD0000002C01400034014025
:1012B0000004004000080040000C004010B501216F
:1012C000134800F079F808B3012000F015FE11482A
:1012D0000078401C0F4908700F480088401C0E49D8
:1012E00008800C480078142804DB002009490870A5
:1012F00000F080FE08480088B0F5167F02DB002071
:10130000054908800121024800F017F810BD0000CF
:10131000002C0140500000205200002021B1028822
:1013200042F08002028004E002884FF67F731A4088
:1013300002807047CA4302827047CA4302827047E4
:1013400021B1028842F00102028004E002884FF6D7
:10135000FE731A400280704731B1B0F8442042F465
:101360000042A0F8442005E0B0F84420C2F30E0289
:10137000A0F844207047F0B50C4615461E460021E3
:10138000002200230189028B038C4FF6F877394045
:1013900021434FF6FC473A4040F201173A434FF6DB
:1013A000DD773B404FF6FF7707EA06172F433B43B5
:1013B000018102830384F0BD30B502460020002382
:1013C0000024158A05EA0103958905EA010413B191
:1013D0000CB1012000E0002030BD000070B50546D2
:1013E0000C46244885420ED0234885420BD0B5F1E7
:1013F000804F08D02148854205D02148854202D03F
:101400002048854200D100E000BF208850B92389E0
:10141000A28861882846FFF731FEE188284600F05F
:10142000ABF925E0208804280AD12389A2886188A5
:101430002846FFF763FEE188284600F0A6F917E08A
:10144000208808280AD12389A28861882846FFF7C6
:10145000A1FEE188284600F0A5F909E02389A288C9
:1014600061882846FFF7DEFEE188284600F0A3F9F0
:1014700070BD0000002C0140003401400004004019
:1014800000080040000C0040002101804180012143
:1014900081800021C180018170471AB183890B438B
:1014A000838102E083898B438381704770B5002478
:1014B00000220023058C4FF6FE7635400584028C11
:1014C0008388048B4FF68F752C40B51E2C400D88F9
:1014D0002C43751E2A400D892A434D882A43144DFA
:1014E000A8420BD0134DA84208D0134DA84205D0F6
:1014F000124DA84202D0124DA84213D14FF6F775F3
:101500002A404D892A434FF6FB752A408D882A438D
:101510004FF6FF652B404FF6FF552B408D892B432F
:10152000CD892B4383800483CD888586028470BD5A
:10153000002C0140003401400040014000440140C3
:10154000004801400A460021018B4FF6F77319400D
:10155000114301837047000070B50024002200236E
:10156000058C4FF6EF7635400584028C8388048B1A
:1015700048F6FF752C404FF6FF452C400D884FF67E
:10158000FF7606EA05252C434FF6DF752A400D89C4
:1015900006EA05152A434D8806EA05152A43154D26
:1015A000A84202D0144DA8421DD14FF67F752A40A3
:1015B0004D894FF6FF7606EA05152A434FF6BF75AB
:1015C0002A408D8806EA05152A434FF6FF352B4041
:1015D0004FF2FF752B408D8906EA85052B43CD8997
:1015E00006EA85052B4383800483CD880587028422
:1015F00070BD0000002C0140003401400A4600216B
:10160000018B4FF2FF7319404FF6FF7303EA022379
:10161000194301837047000070B5002400220023A5
:10162000058C4FF6FF6635400584028C8388848BD9
:101630004FF68F752C404FF6FC752C400D882C43CF
:101640004FF6FF552A400D894FF6FF7606EA05252D
:101650002A434D8806EA05252A43154DA84202D0A3
:10166000144DA8421DD14FF2FF752A404D894FF607
:10167000FF7606EA05252A434FF6FF352A408D8876
:1016800006EA05252A434EF6FF752B404DF6FF75F9
:101690002B408D8906EA05152B43CD8906EA0515F1
:1016A0002B4383808483CD888587028470BD0000AE
:1016B000002C0140003401400A460021818B4FF686
:1016C000F7731940114381837047000070B5002201
:1016D00000230024058C4EF6FF7635400584038CEC
:1016E0008488828B48F6FF752A404FF6FF452A40D2
:1016F0000D884FF6FF7606EA05252A434DF6FF755D
:101700002B400D8906EA05352B434D8806EA053541
:101710002B430B4DA84202D00A4DA84208D14BF6EC
:10172000FF752C408D894FF6FF7606EA85152C4310
:1017300084808283CD88A0F84050038470BD00006F
:10174000002C0140003401400A460021818B4FF2F9
:10175000FF7319404FF6FF7303EA02231943818395
:101760007047818670470187704781877047A0F86E
:101770004010704781847047028B4FF6F3731A4014
:101780000283028B0A4302837047028B4FF2FF33BE
:101790001A400283028B4FF6FF7303EA01231A43B8
:1017A00002837047828B4FF6F3731A408283828BD9
:1017B0000A4382837047828B4FF2FF331A40828341
:1017C000828B4FF6FF7303EA01231A43828370472B
:1017D000002202881D4B98420ED01D4B98420BD020
:1017E000B0F1804F08D01B4B984205D01A4B98425D
:1017F00002D01A4B984204D14FF68F731A404B888F
:101800001A43174B984207D0164B984204D04FF614
:10181000FF431A40CB881A4302808B8883850B884C
:1018200003850A4B98420BD0094B984208D00E4BC7
:10183000984205D00D4B984202D00D4B984201D1F1
:101840000B7A03860123838270470000002C01403D
:10185000003401400004004000080040000C00403B
:1018600000100040001400400040014000440140CE
:10187000004801404FF6FF71818000210180C18046
:1018800041800172704700007FB504460D4601217A
:10189000C802FFF731FAADF80840681E80B2ADF813
:1018A00004000020ADF80A00ADF806008DF80C0029
:1018B00001A90F48FFF78CFF01210D48FFF73AFD02
:1018C000012241210A48FFF7E8FD19208DF80000A8
:1018D00000208DF801008DF8020001208DF8030032
:1018E0006846FFF715F901210148FFF729FD7FBD83
:1018F000002C014010B540F22551074800F0A2F934
:10190000012808D1044800F059FAC4B240F2255128
:10191000014800F075F910BD004C004010B540F2D0
:1019200025510A4800F08EF9012808D140F22551CE
:10193000064800F065F9054800F040FAC4B240F2EC
:101940002551024800F05CF910BD00000050004035
:1019500010B540F22551044800F074F918B102485E
:1019600000F02CFAC4B210BD0038014010B586B0AA
:101970000446012144F20400FFF7BEF901210846A4
:10198000FFF7BAF94FF40070ADF8140003208DF89A
:10199000160018208DF8170005A91C48FEF797FFC0
:1019A0004FF48060ADF8140004208DF8170005A9ED
:1019B0001648FEF78CFF25208DF8000003208DF8D7
:1019C00001008DF8020001208DF803006846FFF742
:1019D0009FF801940020ADF80800ADF80A00ADF8BA
:1019E0000C00ADF810000C20ADF80E0001A908485D
:1019F00000F078F9012240F22551054800F04CF939
:101A00000121034800F005F906B010BD00080140AF
:101A10000038014010B540F225510C4800F012F991
:101A200098B10A4800F0CAF9C4B2094890F86400B5
:101A300064280ADA064890F8640005490C54084600
:101A400090F86400401C81F8640010BD0044004020
:101A50009F00002010B586B0044601210420FFF746
:101A60004BF901214804FFF737F90420ADF81400C1
:101A700003208DF8160018208DF8170005A91C48C2
:101A8000FEF725FF0820ADF8140004208DF817009C
:101A900005A91748FEF71BFF26208DF8000003203C
:101AA0008DF801008DF8020001208DF803006846D2
:101AB000FFF72EF801940020ADF80800ADF80A00F9
:101AC000ADF80C00ADF810000C20ADF80E0001A927
:101AD000084800F007F9012240F22551054800F0BE
:101AE000DBF80121034800F094F806B010BD0000B7
:101AF000000801400044004010B540F22551134851
:101B000000F0A0F800B3114800F058F9C4B2104832
:101B1000007810B9552C00D010BD0D480178007820
:101B2000401C0B4A10700B484454104600780B2898
:101B300005D1084800F014FB00200549087040F268
:101B40002551024800F05CF800BFE5E7004800407E
:101B5000300000209400002010B586B0044601211A
:101B60000820FFF7C9F801218804FFF7B5F84FF402
:101B70008060ADF8140003208DF8160018208DF851
:101B8000170005A91C48FEF7A2FE4FF40060ADF84F
:101B9000140004208DF8170005A91748FEF797FEDA
:101BA00027208DF8000003208DF801008DF8020039
:101BB00001208DF803006846FEF7AAFF019400207B
:101BC000ADF80800ADF80A00ADF80C00ADF8100053
:101BD0000C20ADF80E0001A9084800F083F801229E
:101BE00040F22551054800F057F80121034800F064
:101BF00010F806B010BD0000000C01400048004085
:101C000001F40072B2F5007F00D100BFCA43028028
:101C1000704721B1828942F40052828104E08289B6
:101C20004DF6FF731A408281704702460020B1F5DD
:101C3000007F00D100BF13880B400BB1012000E0F2
:101C40000020704770B502460024002300250020C4
:101C500040F66A16B14200D100BFC1F3421501F04F
:101C60001F03012606FA03F3012D02D196893340A2
:101C700006E0022D02D1168A334001E0968A3340F5
:101C80000C12012606FA04F41688344013B10CB184
:101C9000012000E0002070BDF0B5034600240026BE
:101CA0000025002040F66A17B94200D100BF18464F
:101CB000C1F3421401F01F06012707FA06F5012CB3
:101CC00001D10C3004E0022C01D1103000E01430BE
:101CD0001AB107682F43076002E00768AF43076047
:101CE000F0BD00002DE9F04786B005460E46002401
:101CF000A24600BFA1460027B08900B100BF2F4611
:101D00002C8A4CF6FF700440F08804432C82AC8986
:101D10004EF6F3100440B0883189084371890843B6
:101D20000443AC81AC8A4FF6FF400440B0890443C1
:101D3000AC8201A8FEF7F0FF1F48874202D1DDF810
:101D400010A001E0DDF80CA0A88900F4004040B12B
:101D50000AEBCA0000EB0A1031684900B0FBF1F849
:101D600007E00AEBCA0000EB0A1031688900B0FBFB
:101D7000F1F86420B8FBF0F004012009642101FBB4
:101D80001089A88900F4004040B1322000EBC9005E
:101D9000B0FBF1F000F00700044308E0322000EB54
:101DA00009106421B0FBF1F000F00F0004432C8116
:101DB00006B0BDE8F0870000003801400146888881
:101DC000C0F308007047C1F308028280704700002A
:101DD0002DE9F041264890F86500012845D1002002
:101DE000234981F865004021224800F069F8224922
:101DF000087008460078801EC1B21E48FEF73EFEFD
:101E00000546C5F30726EFB21CA0FEF709FA002429
:101E100007E01848025D21461CA0FEF701FA601C8D
:101E2000C4B2154800788442F3DB13480078801E62
:101E30001049085CB04215D10F480078401E085C7C
:101E4000B8420FD108464078032806D108460179E8
:101E5000C07801EB0020154908800020044981F872
:101E6000660002E012A0FEF7DBF9BDE8F081000099
:101E70009F0000200601002058000020343835BDA6
:101E8000D3CAD5CAFDBEDD0D0A000000343835BD09
:101E9000D3CAD5B5C4D6B5203D206275665B25642E
:101EA0005D203D202578200D0A0000005400002010
:101EB000BDD3CAD5B3F6CFD6B4EDCEF30D0A00002C
:101EC00010B503460B4890F86400884202DA0948CE
:101ED00090F86410002205E00648805C18705B1CD6
:101EE000501CC2B28A42F7DB0020024C84F8640026
:101EF000084610BD9F000020154991F86410002984
:101F000021DD134991F86410124A1278914208D0E9
:101F10000F4991F864100F4A117000210E4A117098
:101F200014E00D490978042910DA0B4909780144B5
:101F3000094A117011460978042907DB0121044A76
:101F400082F8651002E00021024A1170704700001B
:101F50009F000020560000205700002000BFFEE731
:101F600000BF704710B56FF00400FFF741F80A4852
:101F700000680A49B0FBF1F009490870084600788A
:101F800000EB4001C1EBC0104FF6FF7101EAC00049
:101F90000449088010BD00000000002000127A00F3
:101FA00014000020160000200146114A12884A43FE
:101FB0004FF0E0235A6100229A611A46126942F0FA
:101FC00001021A6100BF4FF0E022106900F0010227
:101FD0001AB100F48032002AF5D04FF0E0221269E5
:101FE00022F001024FF0E0231A6100229A6170474B
:101FF0001600002010B53148FEF75EFC00B23049F3
:1020000008803048FEF758FC00B22F4908802F485E
:10201000FEF752FC00B22E4908804FF08040FEF7D8
:102020004BFC00B22B4908804FF08040FEF7A9FA24
:102030002448FEF7A6FA2548FEF7A3FA1F48FEF744
:10204000A0FA1F48B0F9000040F2EE21484340F2E8
:10205000CB1190FBF1F4204600F098FC1E4908607B
:102060001948B0F9000040F2EE21484340F2CB118C
:1020700090FBF1F4204600F089FC184908601448F0
:10208000B0F9000040F2EE21484340F2CB1190FB42
:10209000F1F4204600F07AFC114908600D48B0F9CF
:1020A000000040F2EE21484340F2CB1190FBF1F4E6
:1020B000204600F06BFC0B49086010BD000C00408E
:1020C00038000020000400403A00002000080040D2
:1020D0003C0000203E000020400000204400002082
:1020E000480000204C00002070B504460D46E1B2C7
:1020F0000548FFF768FE00BF80210348FFF795FD04
:102100000028F9D0204670BD00380140FFF72AFFB3
:102110004FF4E130FFF72AFC4FF41650FFF79AFC1A
:10212000FEF764FE4FF4E130FFF716FD142140F690
:102130000F60FFF7A9FBFEF70BFA00214FF4E15007
:10214000FEF71EFDFEF720FAFEF79EFAFEF7FAFAFA
:10215000FEF756FB03E000F049F900F067F9FAE7F3
:102160002DE9FC4782469AF80000552801D0BDE8C9
:10217000FC879AF8010051287DD19AF80200854920
:1021800008709AF80300844908700846007881496D
:10219000097840EA012000B2804908800846B0F979
:1021A000000000F0DDFA00227D4BCDE9000100F0D7
:1021B0007FF9804600227B4B00F0EAFA06467A4A15
:1021C0007A4B00F0E5FA044600F040F978490860DF
:1021D0009AF80400774908709AF805007649087063
:1021E000084600787349097840EA012000B26B493B
:1021F00008800846B0F9000000F0B2FA80460022DC
:10220000674B00F055F90022664BCDE9000100F064
:10221000BFFA0646644A654B00F0BAFA044600F07D
:1022200015F9634948609AF80600644908709AF8FD
:10223000070063490870084600786049097840EA59
:10224000012000B2554908800846B0F9000000F0AE
:1022500087FA06460022524B00F02AF980460022F7
:10226000504B00F095FA04464F4A504B00F090FA5C
:10227000CDE9000100E017E000F0E8F84C49886083
:102280009AF809109AF8082041EA022108B200F0F1
:1022900067FA064600224B4B00F00AF9044600F0AC
:1022A000D5F84949086072E09AF8010053286ED1C8
:1022B0009AF80200454908709AF8030044490870EA
:1022C000084600784149097840EA012000B23349C4
:1022D00008800846B0F9000000F042FA804600226B
:1022E0002F4B00F0E5F8064600223A4B00F050FA7A
:1022F000044600F0ABF8384908609AF80400374902
:1023000008709AF805003649087008460078334985
:10231000097840EA012000B2204908800846B0F957
:10232000000000F01DFA804600221D4B00F0C0F8AE
:1023300006460022274B00F02BFA044600F086F8F0
:10234000254948609AF80600264908709AF807005F
:1023500025490870084600782249097840EA01209A
:1023600000B20E4908800846B0F9000000F0F8F904
:10237000804600220A4B00F09BF806460022154BCF
:1023800000F006FA044600F061F81349886000BFC7
:10239000EDE6000019000020180000202A000020AF
:1023A0000000E040000030409A99999999992340A3
:1023B000700000201B0000201A0000201D000020DB
:1023C0001C000020000059402C00002025000020A7
:1023D00024000020008066408800002027000020A4
:1023E00026000020290000202800002010B5FEF75C
:1023F0007FFB4FF434710C48FFF7B3F9FEF74CFD47
:102400004FF434710848FFF7AEF9FEF765FB4FF45F
:1024100034710548FFF7A9F9FEF732FD4FF4347126
:102420000148FFF7A4F910BD0034014010B50223A4
:102430001E2203210120FEF7F3FC0120024908605F
:10244000FFF7C6FC10BD00009401234221F00042BA
:10245000A2F16052B2F5801F01F0004328BFD2F113
:102460007F6C0BD95FEA001C43EAC20242EB50705A
:1024700018BF704728BF20F001007047B2F5801FD9
:10248000BCBF184670474FEA410C1CF5001F02D232
:10249000084600F093BA70B500F024FA00000089F5
:1024A000FFF7F6BF4FF00040A0F580007047000036
:1024B0002DE9C04130B4DFF8A0C23CEA111418BFC6
:1024C0003CEA131400F0EC8081EA03051CEA1114C5
:1024D00044EAD57418BF1CEA131500F0C780A4EBBA
:1024E00005044FF0004545EAC12145EAC32341EA0E
:1024F000505143EA525304F17F74994204F5003479
:102500004FEAC0204FEAC22208BF904200F09C80F0
:102510004FEA13650FF24016765D4FEA134506FB4E
:1025200005F7C7F1807706FB07F74FEAD737A7FB18
:1025300003687642C8F58038A7FB06CE38BFA8F1FD
:10254000010807FB08E64FF0000EA6FB028CE6FB35
:1025500003CEDCF1000CCEF1004E38BFAEF1010E1F
:10256000A6FB0C584FF000074FF00005E6FB0E8766
:10257000A1FB08C6A0FB07CE16EB0E0645F1000531
:10258000E1FB076515F1E04E7EBFA4F580345FEAFC
:1025900046066D4116F1800745F100054FEA172701
:1025A0004FEA066647EA0567A6F1DE46B6F1805FA8
:1025B0004FEA15251FD9384624F0010C05EBC471EC
:1025C000BCF1FE6F01EB0C1102D8F0BCBDE800813C
:1025D00024425CBF01F5801E9EEAC47F02D4F0BC99
:1025E000BDE80081244238D4F0BCA1F1C041BDE86F
:1025F000004100F0C5B94FEAD22242EA43524FEA05
:10260000D323A7FB02864FEAD02040EA415007FBC4
:1026100003661EEA0E0F4FEAD12105FB026658BF82
:10262000A6EB0056B6EB00564FEA520E4EEAC37EBA
:1026300018EB0E0E56EB530EBDD518EB02085E419B
:102640007F1C55F10005B6E74FF480154FF00007E9
:102650004FF000064FF00008ADE7F0BC4FF000006F
:1026600001F1C04101F00041BDE8008111EA0C1FF9
:102670000CEA131500D00CE013EA0C1F00F02580C3
:102680004FF00000F0BC81EA030101F00041BDE819
:102690000081F0BCBDE8004181EA030100F070B99F
:1026A000F0BCBDE8004170B500F01CF9097EFC3EAD
:1026B00000F007B881EA03014FF0000001F000418B
:1026C000704781EA030100F05BB9F0BCBDE800414E
:1026D0004FF0000021497047FFFDFBF9F7F5F4F2D8
:1026E000F0EEEDEBE9E8E6E4E3E1E0DEDDDBDAD8AD
:1026F000D7D5D4D3D1D0CFCDCCCBCAC8C7C6C5C40B
:10270000C2C1C0BFBEBDBCBBBAB9B8B7B6B5B4B321
:10271000B2B1B0AFAEADACABAAA9A8A8A7A6A5A40C
:10272000A3A3A2A1A09F9F9E9D9C9C9B9A999998D0
:102730009797969595949393929191908F8F8E8E73
:102740008D8C8C8B8B8A8989888887878685858400
:1027500084838382828181800000FF070000F87FEC
:1027600010F0004248BF4042B0FA80F310FA03F183
:102770000AD0C3F11D0303F580634FEA415002EB19
:10278000035202EBD12170474FF000007047000068
:10279000DFF848C170B51CEA111E1EBF1CEA1315F4
:1027A0009EEA0C0F95EA0C0F00F06F8081EA03049B
:1027B00023EA4C134EEAD47E21EA4C1141F48011F5
:1027C00043F48013AE44A1FB024CA0FB0365AEF1C1
:1027D0007F7E361955EB0C05A1FB034C4CF1000331
:1027E000A0FB021C16EB0C06654153F100030942E5
:1027F00018BF46F0010613F4007F0BD14FEA0331F6
:102800004FEA0530340341EA155140EA16506FF0A3
:1028100003020AE04FEAC3214FEAC520F40241EA6D
:10282000555140EA56506FF0020202EB2E4201EB86
:10283000025585EACE710AD05FEA440C18BF24F035
:10284000004450F1000041F1000120EAD47040F250
:10285000FE7C624500D270BDA84214BF4FF0804498
:102860004FF04044002E08BF0024BEF1806FA8BF87
:10287000A1F1C041BDE8704080F282804FF00000BD
:1028800001F1C04101F0004170479EEA0C0F0CEAD3
:10289000131518BF95EA0C0F06D04FF0000081EA1F
:1028A000030E0EF0004170BD00F01CF88900013EDF
:1028B00000F007B800F009B84FEA430C5FEA5C5C2F
:1028C00008D081EA030100F05BB84FEA410C5FEAEF
:1028D0005C5CF6D14FF00000014970470000FF0733
:1028E0000000F87F0EF1020E2EF0030E5EF8046B6E
:1028F000364205D4012A43EB030515F5001F12D813
:10290000012841EB010C1CF5001F0CD80ED14FEA39
:10291000D17C15F5001F0CEB4C0C0CF1020C08BF20
:102920004CEBD37C04E04FF0080C01E04FEAD37C81
:102930000CEB4C0526FA05F606F00706B6F1040C7A
:1029400006D20EEB860CBDE870404CF0010C6047DF
:10295000DFE80CF0090B02024FF000414FF00000DD
:10296000A1F5002170BD19461046012851EB010464
:1029700018BFD4F5001484BF002001F0004170BDE1
:102980000808A0F500114FEA3101704710F000412E
:1029900048BF4042B0FA80F310FA03F2C3F19D033E
:1029A0000BD051EAC35101EB1220530638BF7047D8
:1029B00000F1010008BF20F001007047FF2141EA4B
:1029C000D050C0057047000000C1814001C0804167
:1029D00001C0804100C1814001C0804100C18140EF
:1029E00000C1814001C0804101C0804100C18140DF
:1029F00000C1814001C0804100C1814001C08041CF
:102A000001C0804100C1814001C0804100C18140BE
:102A100000C1814001C0804100C1814001C08041AE
:102A200001C0804100C1814000C1814001C080419E
:102A300001C0804100C1814001C0804100C181408E
:102A400000C1814001C0804101C0804100C181407E
:102A500000C1814001C0804100C1814001C080416E
:102A600001C0804100C1814000C1814001C080415E
:102A700001C0804100C1814001C0804100C181404E
:102A800000C1814001C0804100C1814001C080413E
:102A900001C0804100C1814001C0804100C181402E
:102AA00000C1814001C0804101C0804100C181401E
:102AB00000C1814001C0804100C1814001C080410E
:102AC00001C0804100C1814000C0C101C30302C2F6
:102AD000C60607C705C5C404CC0C0DCD0FCFCE0E5E
:102AE0000ACACB0BC90908C8D81819D91BDBDA1ACE
:102AF0001EDEDF1FDD1D1CDC14D4D515D71716D63E
:102B0000D21213D311D1D010F03031F133F3F232AD
:102B100036F6F737F53534F43CFCFD3DFF3F3EFE1D
:102B2000FA3A3BFB39F9F83828E8E929EB2B2AEA8D
:102B3000EE2E2FEF2DEDEC2CE42425E527E7E626FD
:102B400022E2E323E12120E0A06061A163A3A2626D
:102B500066A6A767A56564A46CACAD6DAF6F6EAEDD
:102B6000AA6A6BAB69A9A86878B8B979BB7B7ABA4D
:102B7000BE7E7FBF7DBDBC7CB47475B577B7B676BD
:102B800072B2B373B17170B050909151935352922D
:102B900096565797559594549C5C5D9D5F9F9E5E9D
:102BA0005A9A9B5B99595898884849894B8B8A4A0D
:102BB0004E8E8F4F8D4D4C8C44848545874746867D
:102BC000824243834181804030313233343536375D
:102BD0003839414243444546403058003031323361
:102BE0003435363738396162636465664030780061
:102BF000102C000800000020700000006C0100088C
:102C0000802C0008700000203807000088010008B0
:102C100000A24A04000000000000000001020304BA
:102C20000607080900000000000000000000000086
:102C30000000000000000000000000000000000094
:102C40000000000000000000000000000000000084
:102C50000000000000000000000000000000000074
:102C6000000000000000000000000000000102035E
:102C70000401020304060708090204060800000014
:04000005080001DD11
:00000001FF
