:020000040800F2
:10000000D005002001010008AD03000831030008FD
:10001000A9030008490100085D0E00080000000067
:1000200000000000000000000000000019060008A9
:100030004D01000800000000350400087D0700089D
:100040001B0100081B0100081B0100081B01000820
:100050001B0100081B0100081B0100081B01000810
:100060001B0100081B0100081B0100081B01000800
:100070001B0100081B0100081B0100081B010008F0
:100080001B0100081B0100081B0100081B010008E0
:100090001B0100081B0100081B0100081B010008D0
:1000A0001B0100081B0100081B0100081B010008C0
:1000B0001B010008E10700081B0100081B010008E4
:1000C0001B0100081B0100081B0100081B010008A0
:1000D0001B010008B50900083D0A00081B010008C3
:1000E0001B0100081B0100081B010008DFF80CD0F1
:1000F00000F018F8004800475D0F0008D005002008
:100100000648804706480047FEE7FEE7FEE7FEE7B1
:10011000FEE7FEE7FEE7FEE7FEE7FEE781070008F1
:10012000ED000008064C074D06E0E06840F00103D2
:1001300094E8070098471034AC42F6D3FFF7DAFF93
:10014000341200085412000800BFFEE770472DE982
:10015000F04102460025002600200023002400274D
:1001600091F803C00CF00F0591F803C00CF0100CCF
:10017000BCF1000F03D091F802C04CEA050591F8DC
:1001800000C0BCF1000F31D0146800202BE04FF00C
:10019000010C0CFA00F3B1F800C00CEA03069E4211
:1001A00020D183004FF00F0C0CFA03F7BC4305FA83
:1001B00003FC4CEA040491F803C0BCF1280F06D1FB
:1001C0004FF0010C0CFA00FCC2F814C00AE091F8E0
:1001D00003C0BCF1480F05D14FF0010C0CFA00FC34
:1001E000C2F810C0401C0828D1D31460B1F800C078
:1001F000BCF1FF0F34DD546800202EE000F1080C44
:100200004FF0010808FA0CF3B1F800C00CEA03063D
:100210009E4221D183004FF00F0C0CFA03F7BC4330
:1002200005FA03FC4CEA040491F803C0BCF1280F62
:1002300005D100F1080C08FA0CF8C2F8148091F806
:1002400003C0BCF1480F07D100F1080C4FF00108C2
:1002500008FA0CF8C2F81080401C0828CED354606D
:10026000BDE8F081F0B50A460023002400210025F6
:1002700000F00046B6F1004F02D11D4EF16901E0D9
:100280001B4E7168C0F3034583B200F44016B6F507
:10029000401F08D121F07061154E766826F0706617
:1002A000134F7E6012E000F48016B6F5801F06D171
:1002B000032606FA05F4A14341F0706106E0460DFD
:1002C000360103FA06F6B14341F0706122B1460DE2
:1002D000360103FA06F6314300F00046B6F1004F4E
:1002E00002D1034EF16101E0014E7160F0BD0000EA
:1002F000000001400161704770B502460C46FF25C1
:10030000FF2309E012F8010B80EA05010648405C72
:1003100080EA03050548435C201EA4F10106F4B2FF
:10032000F0D143EA052070BD3410000834110008F4
:1003300000BFFEE708B50121092000F08DF801217A
:100340000A48FFF78FFF0820ADF8000010208DF855
:10035000030003208DF8020069460548FFF7F7FE09
:1003600008210348FFF7C6FF08BD00000002300067
:10037000000C014009490988491C084A11801146AE
:100380000988814208D1002111800549096881F05E
:100390000101044AC2F88C117047000014000020CB
:1003A0008C8121420080214200BFFEE7704700009F
:1003B00070B5002100230F22C47804B3154C2468C3
:1003C00004F4E064C4F5E064210AC1F10403CA4006
:1003D000447804FA03F184781440214309010E4C57
:1003E0000678A155047804F01F050124AC40057877
:1003F0006D11AD0005F1E025C5F8004109E0047874
:1004000004F01F050124AC40044D0678761145F830
:10041000264070BD0CED00E000E400E080E100E06B
:1004200002490143024A1160704700000000FA05CA
:100430000CED00E07047000029B1064AD269024382
:10044000044BDA6104E0034AD2698243014BDA616A
:10045000704700000010024029B1064A9269024329
:10046000044B9A6104E0034A92698243014B9A610A
:10047000704700000010024030B500210022002427
:1004800000232D4D6D6805F00C0121B1042905D024
:10049000082923D105E0294D056022E0274D05609C
:1004A0001FE0254D6D6805F47012234D6D6805F44D
:1004B0008034022505EB92421CB9214D554305605D
:1004C0000BE01D4D6D6805F400351DB11C4D554305
:1004D000056002E0194D5543056002E0174D0560C7
:1004E00000BF00BF144D6D6805F0F0010909154DFE
:1004F0006B5C0568DD4045600F4D6D6805F4E0619B
:10050000090A104D6B5C4568DD4085600A4D6D68D9
:1005100005F46051C90A0B4D6B5C4568DD40C56050
:10052000054D6D6805F44041890B074D6B5CC5684E
:10053000B5FBF3F5056130BD0010024000127A00F2
:1005400000093D002E0000203E00002010B586B0BE
:10055000044601210420FFF77FFF01214804FFF733
:100560006BFF01210846FFF777FF0220ADF814006A
:1005700010208DF8170003208DF8160005A92348D8
:10058000FFF7E5FD0420ADF8140018208DF81700E2
:1005900005A91E48FFF7DBFD0820ADF81400042074
:1005A0008DF8170005A91948FFF7D1FD26208DF811
:1005B000000003208DF8010002208DF802000120C8
:1005C0008DF803006846FFF7F3FE01940020ADF8B4
:1005D0000800ADF80A00ADF80C00ADF810000C20D2
:1005E000ADF80E0001A90A4800F0B0FA012240F26D
:1005F0002551074800F085FA0121054800F03EFA30
:1006000000200449086006B010BD00000008014049
:1006100000440040840121427047000070B5054647
:100620000E4601200E49086000F064FC00240CE036
:1006300000BF40210B4800F02DFA0028F9D0295DB9
:10064000084800F0F4FA601CC4B2B442F0DB0120A8
:1006500000F050FC0020044908700149086070BD9A
:1006600084012142004400401600002010B500F033
:1006700001F810BD0CB500200190009033480068CF
:1006800040F480303149086000BF3048006800F411
:10069000003000900198401C0190009818B9019812
:1006A000B0F5A06FF1D12948006800F4003010B116
:1006B0000120009001E0002000900098012843D123
:1006C0002348006840F0100021490860084600688F
:1006D00020F0030008600846006840F0020008604F
:1006E0001A4840681949486008464068486008460A
:1006F000406840F4806048600846406820F47C1000
:1007000048600846406840F4E810486008460068C1
:1007100040F08070086000BF0C48006800F0007076
:100720000028F9D00948406820F0030007494860D4
:100730000846406840F00200486000BF0348406837
:1007400000F00C000828F9D10CBD00000010024098
:1007500000200240042808D14FF0E021096941F04F
:1007600004014FF0E022116107E04FF0E021096938
:1007700021F004014FF0E022116170477047000042
:1007800010B51348006840F00100114908600846A0
:100790004068104908400E494860084600680E4904
:1007A00008400B4908600846006820F48020086073
:1007B0000846406820F4FE0048604FF41F0088603F
:1007C000FFF754FF4FF000600449086010BD0000BF
:1007D000001002400000FFF8FFFFF6FE08ED00E009
:1007E00010B50121074800F04EF850B1012000F08B
:1007F00005FB4FF4FA70FFF7BDFD0121014800F041
:1008000033F810BD000400407FB505460C460121B9
:100810000220FFF711FEA8B2ADF80800A0B2ADF8B3
:1008200004000020ADF80A00ADF8060001A90D484B
:1008300000F044F8012211460A4800F035F81D2066
:100840008DF8000003208DF8010001208DF80200D2
:100850008DF803006846FFF7ABFD0121014800F069
:1008600006F87FBD00040040CA430282704721B1F0
:10087000028842F00102028004E002884FF6FE7313
:100880001A400280704730B5024600200023002441
:10089000158A05EA0103958905EA010413B10CB133
:1008A000012000E0002030BD1AB183890B43838111
:1008B00002E083898B438381704700000022028815
:1008C0001D4B98420ED01D4B98420BD0B0F1804F7B
:1008D00008D01B4B984205D01A4B984202D01A4BB5
:1008E000984204D14FF68F731A404B881A43174B26
:1008F000984207D0164B984204D04FF6FF431A4057
:10090000CB881A4302808B8883850B8803850A4B2A
:1009100098420BD0094B984208D00E4B984205D014
:100920000D4B984202D00D4B984201D10B7A0386B1
:100930000123838270470000002C014000340140F5
:100940000004004000080040000C0040001000407F
:1009500000140040004001400044014000480140B4
:1009600010B50B484078552806D10AA000F078FA57
:1009700000200749487009E005484078562805D10D
:1009800008A000F06DFA00200149487010BD000079
:100990001C000020C7FDB6AFB5E7BBFA4120A3A1FC
:1009A0000D0A0000C7FDB6AFB5E7BBFA4220A3A110
:1009B0000D0A000010B540F225511D4800F077F8EF
:1009C00010B31B4800F02EF9C4B21A48008800F496
:1009D0000040C8B91748008800F4804060B10A2C74
:1009E00003D000201349088020E01248008840F41A
:1009F00000401049088019E00D2C06D10D480088F0
:100A000040F480400B49088010E00A480088C0F399
:100A10000D0009490C5407480088401C054908800E
:100A200008460088C72801DD0020088010BD0000AE
:100A3000003801402C0000200401002010B540F2D5
:100A400025510B4800F033F880B1094800F0EAF86E
:100A5000C4B208480078402808DA074805490978F0
:100A6000445404480078401C0249087010BD00003E
:100A700000440040160000204400002021B182897B
:100A800042F40052828104E082894DF6FF731A40DD
:100A90008281704702460020B1F5007F00D100BF7F
:100AA00013880B400BB1012000E00020704770B5A7
:100AB0000246002400230025002040F66A16B142B9
:100AC00000D100BFC1F3421501F01F03012606FA51
:100AD00003F3012D02D19689334006E0022D02D1A5
:100AE000168A334001E0968A33400C12012606FA3A
:100AF00004F41688344013B10CB1012000E000204A
:100B000070BDF0B50346002400260025002040F605
:100B10006A17B94200D100BF1846C1F3421401F070
:100B20001F06012707FA06F5012C01D10C3004E05D
:100B3000022C01D1103000E014301AB107682F43A5
:100B4000076002E00768AF430760F0BD2DE9F0479A
:100B500086B005460E460024A24600BFA1460027E7
:100B6000B08900B100BF2F462C8A4CF6FF700440BC
:100B7000F08804432C82AC894EF6F3100440B08810
:100B800031890843718908430443AC81AC8A4FF62C
:100B9000FF400440B0890443AC8201A8FFF76CFC1D
:100BA0001F48874202D1DDF810A001E0DDF80CA05B
:100BB000A88900F4004040B10AEBCA0000EB0A101B
:100BC00031684900B0FBF1F807E00AEBCA0000EB1E
:100BD0000A1031688900B0FBF1F86420B8FBF0F02E
:100BE00004012009642101FB1089A88900F4004058
:100BF00040B1322000EBC900B0FBF1F000F007007B
:100C0000044308E0322000EB09106421B0FBF1F04E
:100C100000F00F0004432C8106B0BDE8F08700000F
:100C20000038014001468888C0F308007047C1F3CE
:100C300008028280704700002DE9F0415A48007890
:100C4000002878D00020584908704021574800F00B
:100C5000B9F85749087008460078801EC1B2534859
:100C6000FFF74AFB0446C4F3072704F0FF08504887
:100C70000078801E4D49085CB8427DD14C48007810
:100C8000401E085C4045F8D108464078032802D051
:100C900006285AD139E04548807868BB4348C07877
:100CA000052829DC4148C078042824DC3F48C57861
:100CB00046797006000E3D49887003203C49087053
:100CC00014E000213A4802780078401C384B187034
:100CD000364881542846691CCDB236490A5C18460C
:100CE00001780078401C187030484254301EA6F13C
:100CF0000101CEB2E5D131E083202C4948700220B9
:100D0000887003202A49087028E02848807898B91C
:100D10002648C07805280FDC2448C078042804DC65
:100D20002248C57840792349485521480078801EDB
:100D30001F49087012E034E086201C4948700220E8
:100D4000887003201A49087008E08020174948700D
:100D50000120887003201649087000BF00BF1448A6
:100D600001781248FFF7C8FA0446C4F30721104877
:100D700002780078401C00E010E00D4B18700B4822
:100D80008154184602780078401C18700748845433
:100D9000184601780548FFF741FC02E006A000F084
:100DA0005FF8BDE8F081000017000020C4000020BB
:100DB000230000201C000020BDD3CAD5B4EDCEF323
:100DC0000D0A000010B503460A480078814201DD93
:100DD00008480178002205E00748805C18705B1C19
:100DE000501CC2B28A42F7DB0020024C2070084639
:100DF00010BD0000160000204400002013490978AF
:100E000000291EDD12490978104A1278914207D054
:100E10000E4909780E4A117000210E4A117013E034
:100E20000C49097805290FDA0A4909780144094A69
:100E3000117011460978052906DB0121064A117057
:100E400002E00021024A11707047000016000020E5
:100E500021000020220000201700002000BFFEE734
:100E6000014A024900F013B8410F00082800002091
:100E700002E008C8121F08C1002AFAD17047704763
:100E8000002001E001C1121F002AFBD170472DE9AB
:100E9000F04116460F460446002503E03946B047A8
:100EA000641C6D1C20780028F8D12846BDE8F0812C
:100EB00010B56FF00400FFF74DFC0A4800680A49BE
:100EC000B0FBF1F0094908700846007800EB4001DA
:100ED000C1EBC0104FF6FF7101EAC0000449088061
:100EE00010BD00000000002000127A002400002045
:100EF000260000200146114A12884A434FF0E023A1
:100F00005A6100229A611A46126942F001021A617E
:100F100000BF4FF0E022106900F001021AB100F4A6
:100F20008032002AF5D04FF0E022126922F001024F
:100F30004FF0E0231A6100229A61704726000020DA
:100F400000BF054A128802F04002002AF9D0C2B25E
:100F5000014B1B1D1A80704700380140FFF7A8FFA6
:100F60004FF44070FFF75CFA4FF4E13000F012F8F4
:100F7000FFF7E0F94FF41650FFF7E8FA472140F287
:100F8000E730FFF741FC03E0FFF756FEFFF7E8FC10
:100F9000FAE7000010B586B00446012144F20400CF
:100FA000FFF75AFA4FF40070ADF8140003208DF8E3
:100FB000160018208DF8170005A91C48FFF7C7F880
:100FC0004FF48060ADF8140004208DF8170005A9D7
:100FD0001648FFF7BCF825208DF8000003208DF897
:100FE00001008DF8020001208DF803006846FFF72C
:100FF000DFF901940020ADF80800ADF80A00ADF863
:101000000C00ADF810000C20ADF80E0001A9084846
:10101000FFF79CFD012240F225510548FFF771FDC5
:1010200001210348FFF72AFD06B010BD000801406A
:101030000038014000C1814001C0804101C08041B1
:1010400000C1814001C0804100C1814000C1814098
:1010500001C0804101C0804100C1814000C1814088
:1010600001C0804100C1814001C0804101C0804178
:1010700000C1814001C0804100C1814000C1814068
:1010800001C0804100C1814001C0804101C0804158
:1010900000C1814000C1814001C0804101C0804148
:1010A00000C1814001C0804100C1814000C1814038
:1010B00001C0804101C0804100C1814000C1814028
:1010C00001C0804100C1814001C0804101C0804118
:1010D00000C1814000C1814001C0804101C0804108
:1010E00000C1814001C0804100C1814000C18140F8
:1010F00001C0804100C1814001C0804101C08041E8
:1011000000C1814001C0804100C1814000C18140D7
:1011100001C0804101C0804100C1814000C18140C7
:1011200001C0804100C1814001C0804101C08041B7
:1011300000C1814000C0C101C30302C2C60607C787
:1011400005C5C404CC0C0DCD0FCFCE0E0ACACB0BF7
:10115000C90908C8D81819D91BDBDA1A1EDEDF1F27
:10116000DD1D1CDC14D4D515D71716D6D21213D317
:1011700011D1D010F03031F133F3F23236F6F737C7
:10118000F53534F43CFCFD3DFF3F3EFEFA3A3BFBB7
:1011900039F9F83828E8E929EB2B2AEAEE2E2FEF67
:1011A0002DEDEC2CE42425E527E7E62622E2E323D7
:1011B000E12120E0A06061A163A3A26266A6A76707
:1011C000A56564A46CACAD6DAF6F6EAEAA6A6BAB77
:1011D00069A9A86878B8B979BB7B7ABABE7E7FBFA7
:1011E0007DBDBC7CB47475B577B7B67672B2B37397
:1011F000B17170B050909151935352929656579747
:10120000559594549C5C5D9D5F9F9E5E5A9A9B5B36
:1012100099595898884849894B8B8A4A4E8E8F4FE6
:101220008D4D4C8C44848545874746868242438356
:10123000418180405412000800000020440000005A
:10124000700E000898120008440000208C05000071
:10125000800E000800A24A04000000000000000008
:101260000102030406070809000000000000000056
:10127000000000000000000000000000000000006E
:10128000000000000000010203040102030406073D
:08129000080902040608000031
:04000005080000ED02
:00000001FF
