:020000040800F2
:100000002808002089010008E5050008D10400083F
:10001000E1050008D5020008ED0F0008000000000F
:10002000000000000000000000000000AD08000813
:10003000D9020008000000006D060008110A00083F
:10004000A3010008A3010008A3010008A301000800
:10005000A3010008A3010008A3010008A3010008F0
:10006000A3010008A3010008A3010008A3010008E0
:10007000A3010008A3010008A3010008A3010008D0
:10008000A3010008A3010008A3010008A3010008C0
:10009000A3010008A3010008A3010008A3010008B0
:1000A000A3010008A3010008A3010008A3010008A0
:1000B000A3010008750A0008A3010008A3010008B5
:1000C000A3010008A3010008A3010008A301000880
:1000D000A3010008310C0008B90C0008A3010008B6
:1000E000A3010008A3010008A301000800F002F822
:1000F00000F03AF80AA090E8000C82448344AAF188
:100100000107DA4501D100F02FF8AFF2090EBAE885
:100110000F0013F0010F18BFFB1A43F0010318473B
:100120006012000080120000103A24BF78C878C125
:10013000FAD8520724BF30C830C144BF04680C60ED
:10014000704700000023002400250026103A28BF35
:1001500078C1FBD8520728BF30C148BF0B60704739
:100160001FB51FBD10B510BD00F06EF81146FFF7AA
:10017000F7FF00F097FF00F0A0F803B4FFF7F2FFDD
:1001800003BC00F035FF00000948804709480047DC
:10019000FEE7FEE7FEE7FEE7FEE7FEE7FEE7FEE737
:1001A000FEE7FEE704480549054A064B7047000094
:1001B000150A0008ED000008280200202808002089
:1001C0002804002028040020704700000FB40449D0
:1001D00010B503AA029800F009F810BC5DF814FBF2
:1001E000240000207047704770477047074B70B578
:1001F0000D467B4400F011F80446284600F020F834
:1002000010B14FF0FF3070BD204670BD930E00005E
:1002100001694A1C02610878704700B58FB0CDE9CA
:1002200001310021059105497944CDE903101146BA
:10023000684600F02EF80FB000BD0000E5FFFFFF9C
:10024000007B00F080007047754600F03FF8AE4636
:1002500005006946534620F00700854618B020B5D2
:10026000FFF7A0FFBDE820404FF000064FF0000769
:100270004FF000084FF0000B21F00701AC46ACE84E
:10028000C009ACE8C009ACE8C009ACE8C0098D46BB
:1002900070472DE9F04106460024D6E90170F56863
:1002A0008046304603E04146B847641C3046A847C4
:1002B0000028F8D12046BDE8F08110B50446AFF320
:1002C00000802046BDE81040FFF757BF0048704748
:1002D000C801002000BFFEE770472DE9F04102464B
:1002E00000250026002000230024002791F803C0E9
:1002F0000CF00F0591F803C00CF0100CBCF1000FCE
:1003000003D091F802C04CEA050591F800C0BCF199
:10031000000F31D0146800202BE04FF0010C0CFAD4
:1003200000F3B1F800C00CEA03069E4220D183001E
:100330004FF00F0C0CFA03F7BC4305FA03FC4CEA30
:10034000040491F803C0BCF1280F06D14FF0010C52
:100350000CFA00FCC2F814C00AE091F803C0BCF12A
:10036000480F05D14FF0010C0CFA00FCC2F810C088
:10037000401C0828D1D31460B1F800C0BCF1FF0FB5
:1003800034DD546800202EE000F1080C4FF0010825
:1003900008FA0CF3B1F800C00CEA03069E4221D122
:1003A00083004FF00F0C0CFA03F7BC4305FA03FC73
:1003B0004CEA040491F803C0BCF1280F05D100F108
:1003C000080C08FA0CF8C2F8148091F803C0BCF1CC
:1003D000480F07D100F1080C4FF0010808FA0CF89B
:1003E000C2F81080401C0828CED35460BDE8F081CC
:1003F000F0B50A46002300240021002500F0004645
:10040000B6F1004F02D11D4EF16901E01B4E71683B
:10041000C0F3034583B200F44016B6F5401F08D17F
:1004200021F07061154E766826F07066134F7E607D
:1004300012E000F48016B6F5801F06D1032606FAF6
:1004400005F4A14341F0706106E0460D360103FA60
:1004500006F6B14341F0706122B1460D360103FA50
:1004600006F6314300F00046B6F1004F02D1034ECC
:10047000F16101E0014E7160F0BD0000000001403B
:100480000246002093680B400BB1012000E00020E1
:10049000704701617047000070B502460C46FF25A9
:1004A000FF2309E012F8010B80EA05010648405CD1
:1004B00080EA03050548435C201EA4F10106F4B25E
:1004C000F0D143EA052070BD8011000880120008B9
:1004D00000BFFEE708B50121082000F0D9F8302060
:1004E000ADF8000048208DF8030069460148FFF789
:1004F000F4FE08BD000C014010B5044614B1012003
:100500001849087017480078E8B110211648FFF71D
:10051000B7FF20B120211448FFF7B2FF98B900209F
:1005200010490870012000F089FD10210E48FFF7E6
:10053000A7FF08B9012010BD20210B48FFF7A0FF3D
:1005400070B90220F7E710210748FFF799FF38B18B
:1005500020210548FFF794FF10B1012001490870E0
:100560000020E8E71F000020000C014008B5012131
:10057000092000F08DF801210A48FFF739FF082013
:10058000ADF8000010208DF8030003208DF8020064
:1005900069460548FFF7A1FE08210348FFF779FFE8
:1005A00008BD000000023000000C01400949098824
:1005B000491C084A118011460988814208D100214E
:1005C00011800549096881F00101044AC2F88C11C3
:1005D00070470000140000208C81214200802142DD
:1005E00000BFFEE77047000070B5002100230F2216
:1005F000C47804B3154C246804F4E064C4F5E064E2
:10060000210AC1F10403CA40447804FA03F1847852
:100610001440214309010E4C0678A155047804F0DA
:100620001F050124AC4005786D11AD0005F1E025F2
:10063000C5F8004109E0047804F01F050124AC402E
:10064000044D0678761145F8264070BD0CED00E0AB
:1006500000E400E080E100E002490143024A116049
:10066000704700000000FA050CED00E07047000044
:1006700029B1064AD2690243044BDA6104E0034A15
:10068000D2698243014BDA617047000000100240DA
:1006900029B1064A92690243044B9A6104E0034A75
:1006A00092698243014B9A6170470000001002403A
:1006B00030B500210022002400232D4D6D6805F087
:1006C0000C0121B1042905D0082923D105E0294DC9
:1006D000056022E0274D05601FE0254D6D6805F49B
:1006E0007012234D6D6805F48034022505EB9242AB
:1006F0001CB9214D554305600BE01D4D6D6805F497
:1007000000351DB11C4D5543056002E0194D5543A0
:10071000056002E0174D056000BF00BF144D6D6815
:1007200005F0F0010909154D6B5C0568DD40456079
:100730000F4D6D6805F4E061090A104D6B5C45686A
:10074000DD4085600A4D6D6805F46051C90A0B4DA6
:100750006B5C4568DD40C560054D6D6805F4404142
:10076000890B074D6B5CC568B5FBF3F5056130BDC2
:100770000010024000127A0000093D002A0000200B
:100780003A00002010B586B0044601210420FFF78E
:100790007FFF01214804FFF76BFF01210846FFF7A7
:1007A00077FF0220ADF8140010208DF81700032009
:1007B0008DF8160005A92348FFF78FFD0420ADF83A
:1007C000140018208DF8170005A91E48FFF785FDB5
:1007D0000820ADF8140004208DF8170005A9194869
:1007E000FFF77BFD26208DF8000003208DF8010027
:1007F00002208DF8020001208DF803006846FFF703
:10080000F3FE01940020ADF80800ADF80A00ADF841
:100810000C00ADF810000C20ADF80E0001A90A483C
:1008200000F0D2FA012240F22551074800F0A7FA61
:100830000121054800F060FA00200449086006B074
:1008400010BD000000080140004400408401214226
:100850002DE9FC4706460F4614461D468DF80060FC
:100860008DF8017020128DF80200E0B28DF80300BF
:1008700028128DF80400E8B28DF8050006216846BC
:10088000FFF70AFE8046C8F3072A08F0FF098DF833
:1008900006A08DF807900821684600F009F80120AD
:1008A00001490870BDE8FC8718000020704700006F
:1008B00070B505460E4601200E49086000F0BEFBEB
:1008C00000240CE000BF40210B4800F021FA002872
:1008D000F9D0295D084800F0E8FA601CC4B2B442BF
:1008E000F0DB012000F0AAFB002004490870014958
:1008F000086070BD840121420044004016000020C1
:1009000010B500F001F810BD0CB50020019000906A
:100910003348006840F480303149086000BF3048F7
:10092000006800F4003000900198401C019000988D
:1009300018B90198B0F5A06FF1D12948006800F40A
:10094000003010B10120009001E0002000900098DC
:10095000012843D12348006840F010002149086075
:100960000846006820F0030008600846006840F070
:10097000020008601A484068194948600846406803
:1009800048600846406840F4806048600846406817
:1009900020F47C1048600846406840F4E810486045
:1009A0000846006840F08070086000BF0C4800688E
:1009B00000F000700028F9D00948406820F00300DA
:1009C000074948600846406840F00200486000BFA0
:1009D0000348406800F00C000828F9D10CBD000065
:1009E0000010024000200240042808D14FF0E0210E
:1009F000096941F004014FF0E022116107E04FF076
:100A0000E021096921F004014FF0E02211617047F3
:100A10007047000010B51348006840F0010011490C
:100A2000086008464068104908400E49486008467A
:100A300000680E4908400B4908600846006820F429
:100A4000802008600846406820F4FE0048604FF4AB
:100A50001F008860FFF754FF4FF0006004490860F2
:100A600010BD0000001002400000FFF8FFFFF6FE7E
:100A700008ED00E010B50121074800F04EF850B134
:100A8000012000F083FA4FF4FA70FFF78FFD012187
:100A9000014800F033F810BD000400407FB5054662
:100AA0000C4601210220FFF7E3FDA8B2ADF80800D3
:100AB000A0B2ADF804000020ADF80A00ADF80600C1
:100AC00001A90D4800F044F8012211460A4800F03F
:100AD00035F81D208DF8000003208DF8010001205D
:100AE0008DF802008DF803006846FFF77DFD0121B7
:100AF000014800F006F87FBD00040040CA430282AE
:100B0000704721B1028842F00102028004E00288AD
:100B10004FF6FE731A400280704730B5024600203F
:100B200000230024158A05EA0103958905EA0104DA
:100B300013B10CB1012000E0002030BD1AB183894F
:100B40000B43838102E083898B43838170470000DC
:100B5000002202881D4B98420ED01D4B98420BD0AC
:100B6000B0F1804F08D01B4B984205D01A4B9842E9
:100B700002D01A4B984204D14FF68F731A404B881B
:100B80001A43174B984207D0164B984204D04FF6A1
:100B9000FF431A40CB881A4302808B8883850B88D9
:100BA00003850A4B98420BD0094B984208D00E4B54
:100BB000984205D00D4B984202D00D4B984201D17E
:100BC0000B7A03860123838270470000002C0140CA
:100BD000003401400004004000080040000C0040C8
:100BE000001000400014004000400140004401405B
:100BF0000048014010B500240C480078A0B900203E
:100C0000FFF77AFC0446012C06D101231A46032182
:100C10001846FFF71DFE07E0022C05D155230122DF
:100C200006211046FFF714FE10BD0000180000203A
:100C300010B540F225511D4800F077F810B31B485D
:100C400000F02EF9C4B21A48008800F40040C8B978
:100C50001748008800F4804060B10A2C03D00020BF
:100C60001349088020E01248008840F400401049F1
:100C7000088019E00D2C06D10D48008840F4804012
:100C80000B49088010E00A480088C0F30D000949AC
:100C90000C5407480088401C054908800846008815
:100CA000C72801DD0020088010BD00000038014089
:100CB000280000200001002010B540F225510B480B
:100CC00000F033F880B1094800F0EAF8C4B20848EF
:100CD0000078402808DA0748054909784454044850
:100CE0000078401C0249087010BD0000004400401C
:100CF000160000204000002021B1828942F40052F9
:100D0000828104E082894DF6FF731A408281704728
:100D100002460020B1F5007F00D100BF13880B40D0
:100D20000BB1012000E00020704770B5024600249E
:100D300000230025002040F66A16B14200D100BF12
:100D4000C1F3421501F01F03012606FA03F3012D3A
:100D500002D19689334006E0022D02D1168A334033
:100D600001E0968A33400C12012606FA04F4168834
:100D7000344013B10CB1012000E0002070BDF0B58B
:100D80000346002400260025002040F66A17B942D9
:100D900000D100BF1846C1F3421401F01F0601271D
:100DA00007FA06F5012C01D10C3004E0022C01D128
:100DB000103000E014301AB107682F43076002E0DA
:100DC0000768AF430760F0BD2DE9F04786B00546E0
:100DD0000E460024A24600BFA1460027B08900B1FC
:100DE00000BF2F462C8A4CF6FF700440F088044365
:100DF0002C82AC894EF6F3100440B0883189084348
:100E0000718908430443AC81AC8A4FF6FF4004402B
:100E1000B0890443AC8201A8FFF74AFC1F4887420F
:100E200002D1DDF810A001E0DDF80CA0A88900F4E3
:100E3000004040B10AEBCA0000EB0A1031684900DB
:100E4000B0FBF1F807E00AEBCA0000EB0A103168CA
:100E50008900B0FBF1F86420B8FBF0F00401200930
:100E6000642101FB1089A88900F4004040B13220C0
:100E700000EBC900B0FBF1F000F00700044308E00C
:100E8000322000EB09106421B0FBF1F000F00F00FC
:100E900004432C8106B0BDE8F08700000038014013
:100EA00001468888C0F308007047C1F308028280B9
:100EB0007047000070B51F480078002839D0002026
:100EC0001C49087040211C4800F044F81B49087078
:100ED00008460078801EC1B21748FFF7DDFA0446C5
:100EE000C4F30725E6B215480078801E1249085C55
:100EF000A8421BD111480078401E085CB04215D1B1
:100F00000846407803280DD10846807850B9084635
:100F1000C078052806DC08460179C07801EB00207E
:100F20000749088000200749087002E006A0FFF783
:100F30004DF970BD17000020C00000201E000020E9
:100F40001A00002018000020BDD3CAD5B4EDCEF39E
:100F50000D0A000010B503460A480078814201DD01
:100F600008480178002205E00748805C18705B1C87
:100F7000501CC2B28A42F7DB0020024C20700846A7
:100F800010BD000016000020400000201349097821
:100F900000291EDD12490978104A1278914207D0C3
:100FA0000E4909780E4A117000210E4A117013E0A3
:100FB0000C49097803290FDA0A4909780144094ADA
:100FC000117011460978032906DB0121064A1170C8
:100FD00002E00021024A1170704700001600002054
:100FE0001C0000201D0000201700002000BFFEE7AD
:100FF000014600BF7047000010B56FF00400FFF716
:10100000F3FC0A4800680A49B0FBF1F0094908708E
:101010000846007800EB4001C1EBC0104FF6FF71AD
:1010200001EAC0000449088010BD00000000002053
:1010300000127A0020000020220000200146114A00
:1010400012884A434FF0E0235A6100229A611A46FF
:10105000126942F001021A6100BF4FF0E0221069EC
:1010600000F001021AB100F48032002AF5D04FF0EE
:10107000E022126922F001024FF0E0231A610022FF
:101080009A6170472200002000BF054A128802F0D2
:101090004002002AF9D0C2B2014B1B1D1A807047D2
:1010A00000380140FFF7A8FF4FF44070FFF7D4FA73
:1010B0004FF4E13000F014F8FFF758FAFFF70AFA9E
:1010C0004FF41650FFF75EFB472140F2E730FFF781
:1010D000E5FC03E0FFF7EEFEFFF78CFDFAE700000A
:1010E00010B586B00446012144F20400FFF7D0FA9F
:1010F0004FF40070ADF8140003208DF8160018208E
:101100008DF8170005A91C48FFF7E7F84FF4806039
:10111000ADF8140004208DF8170005A91648FFF754
:10112000DCF825208DF8000003208DF801008DF8F3
:10113000020001208DF803006846FFF755FA01947C
:101140000020ADF80800ADF80A00ADF80C00ADF8CD
:1011500010000C20ADF80E0001A90848FFF734FE7E
:10116000012240F225510548FFF709FE01210348FD
:10117000FFF7C2FD06B010BD000801400038014075
:1011800000C1814001C0804101C0804100C1814057
:1011900001C0804100C1814000C1814001C0804147
:1011A00001C0804100C1814000C1814001C0804137
:1011B00000C1814001C0804101C0804100C1814027
:1011C00001C0804100C1814000C1814001C0804117
:1011D00000C1814001C0804101C0804100C1814007
:1011E00000C1814001C0804101C0804100C18140F7
:1011F00001C0804100C1814000C1814001C08041E7
:1012000001C0804100C1814000C1814001C08041D6
:1012100000C1814001C0804101C0804100C18140C6
:1012200000C1814001C0804101C0804100C18140B6
:1012300001C0804100C1814000C1814001C08041A6
:1012400000C1814001C0804101C0804100C1814096
:1012500001C0804100C1814000C1814001C0804186
:1012600001C0804100C1814000C1814001C0804176
:1012700000C1814001C0804101C0804100C1814066
:1012800000C0C101C30302C2C60607C705C5C40426
:10129000CC0C0DCD0FCFCE0E0ACACB0BC90908C896
:1012A000D81819D91BDBDA1A1EDEDF1FDD1D1CDC86
:1012B00014D4D515D71716D6D21213D311D1D010F6
:1012C000F03031F133F3F23236F6F737F53534F4E6
:1012D0003CFCFD3DFF3F3EFEFA3A3BFB39F9F83856
:1012E00028E8E929EB2B2AEAEE2E2FEF2DEDEC2C46
:1012F000E42425E527E7E62622E2E323E12120E0B6
:10130000A06061A163A3A26266A6A767A56564A4A5
:101310006CACAD6DAF6F6EAEAA6A6BAB69A9A86815
:1013200078B8B979BB7B7ABABE7E7FBF7DBDBC7C05
:10133000B47475B577B7B67672B2B373B17170B075
:101340005090915193535292965657975595945465
:101350009C5C5D9D5F9F9E5E5A9A9B5B99595898D5
:10136000884849894B8B8A4A4E8E8F4F8D4D4C8CC5
:101370004484854587474686824243834181804035
:10138000A013000800000020400000002801000811
:10139000E013000840000020E807000044010008B6
:1013A00000A24A0400000000000000000102030443
:1013B000060708090000000000000000000000000F
:1013C000000000000000000000000000000001021A
:1013D00003040102030406070809020406080000CA
:04000005080000ED02
:00000001FF
