:020000040800F2
:10000000A8470020C9010008B10D0008B30D000881
:10001000B70D0008BB0D0008BF0D00080000000070
:10002000000000000000000000000000C30D0008F8
:10003000C50D000800000000C70D0008C90D00082C
:10004000DF010008DF010008DF010008DF01000810
:10005000DF010008DF010008DF010008DF01000800
:10006000DF010008DF010008DF010008DF010008F0
:10007000DF010008DF010008DF010008DF010008E0
:10008000DF010008DF010008DF010008DF010008D0
:10009000DF010008DF010008DF010008DF010008C0
:1000A000DF010008070F0008DF010008DF0100087A
:1000B0002D0A0008DF010008DF010008DF01000849
:1000C000DF010008DF010008DF010008DF01000890
:1000D000DF0100087B120008DF010008DF010008D3
:1000E000DF010008DF010008DF01000800F002F86E
:1000F00000F05AF80AA090E8000C82448344AAF168
:100100000107DA4501D100F04FF8AFF2090EBAE865
:100110000F0013F0010F18BFFB1A43F0010318473B
:10012000682E0000882E00000A444FF0000C10F8E2
:10013000013B13F0070408BF10F8014B1D1108BF65
:1001400010F8015B641E05D010F8016B641E01F805
:10015000016BF9D113F0080F1EBF10F8014BAD1C55
:100160000C1B09D16D1E58BF01F801CBFAD505E073
:1001700014F8016B01F8016B6D1EF9D59142D6D3CD
:10018000704700000023002400250026103A28BFF5
:1001900078C1FBD8520728BF30C148BF0B607047F9
:1001A0001FB51FBD10B510BD02F0ABFE1146FFF725
:1001B000F7FF00F031F902F0C9FE03B4FFF7F2FFD8
:1001C00003BC02F0D1FE000008480047FEE7FEE74E
:1001D000FEE7FEE7FEE7FEE7FEE7FEE7FEE7FEE7F7
:1001E00003480449044A054B70470000ED0000082D
:1001F000A8070020A8470020A8370020A837002023
:1002000010B5074C2388074C2288074C6188074C9F
:10021000606900F098FF10BD10B500F043FD10BDFF
:10022000200000202C0000202800002000000020DA
:100230003EB57D4A07CA8DE807007C48008884B235
:100240007B48006830B1012813D0022823D003284E
:1002500062D130E000F003FD50B922464221012076
:1002600000F02AFC20B172480068401C7049086008
:1002700053E000F0F4FC68B900F0FAFC28B96C48CF
:100280000068401C6A49086004E069480068401E34
:100290006749086041E000F0E2FC58B9062247F2E5
:1002A0002801012000F0DEFB20B161480068401CFD
:1002B0005F49086031E000F0D2FC00BB00F0D8FCE0
:1002C00020BB06220021684600F04CFCBDF800006F
:1002D00050B900224021012000F0EEFB5448006894
:1002E000401E5349086016E0BDF80A0040B94F4867
:1002F000006840424D49086000204D4908600AE00E
:100300004B480068401E4A49086004E048480068BD
:10031000401E4749086000E000BF00BF3EBD38B541
:1003200041480C30006800904248008884B242483E
:10033000006830B1012813D0022823D0032868D1E7
:100340002FE000F08CFC50B922464021012000F043
:10035000B3FB20B138480068401C3749086059E0B9
:1003600000F07DFC68B900F083FC28B932480068D1
:10037000401C3149086004E02F480068401E2E49A7
:10038000086047E000F06BFC50B902221421012004
:1003900000F068FB20B128480068401C264908602E
:1003A00038E000F05CFC38BB00F062FC58BB022275
:1003B0000021684600F0D6FBBDF80000B0F5967F3E
:1003C00005DB00201B4908601B49086020E0BDF8E0
:1003D0000200B0F5967F10DB1648006820B94FF494
:1003E000FA701449086004E012480068404211495C
:1003F00008600020104908600AE00F480068401EAD
:100400000D49086004E00C480068401E0A49086075
:1004100000E000BF00BF38BD00F009FD03E0FFF7BA
:1004200007FFFFF7F9FEFAE7782F000834000020F5
:10043000300000203C0000203800002070B502464B
:100440000C46FF25FF2309E032F8020B80EA030186
:100450000648405C80EA05030548455C201EA4F17F
:100460000106B4B2F0D143EA052070BD400000207F
:10047000400100202DE9F04781460C4690460026B9
:100480000027404600F075FC86B2304606EBD0717E
:100490004A103B467F1C24F81320002510E04046FC
:1004A00000F067FC8246404600F063FC6AF31F20C0
:1004B00024F81700781C87B2681C85B2681C85B2C6
:1004C000B542ECDB0120BDE8F0872DE9F047054699
:1004D0008946164608274FF0010802240BE03046F3
:1004E00000F047FC35F81410884202D04FF00008A5
:1004F00003E0601C84B2BC42F1DB00BF4046BDE8B3
:10050000F0872DE9F04705468946164605274FF046
:10051000010802240BE0304600F02BFC35F81410E3
:10052000884202D04FF0000803E0601C84B2BC4255
:10053000F1DB00BF4046BDE8F0872DE9F0410446FD
:100540000025002600276068028829466D1C236864
:1005500023F81120228929466D1C236823F81120D5
:10056000208A021229466D1C236823F81120227C60
:1005700029466D1C236823F81120608A021229463F
:100580006D1C236823F81120A27C29466D1C23686A
:1005900023F8112029462068FFF750FF0746FAB2DA
:1005A00029466D1C236823F811203A1229466D1C38
:1005B000236823F8112000BF0BE0226832F81610E0
:1005C000E06800F0BEFB10B90020BDE8F081701CAF
:1005D00086B2AE42F1DB0120F7E72DE9F041044697
:1005E0000025002600276068028829466D1C2368C4
:1005F00023F81120228929466D1C236823F8112035
:10060000208A021229466D1C236823F81120227CBF
:1006100029466D1C236823F81120608A021229469E
:100620006D1C236823F81120A27C29466D1C2368C9
:1006300023F8112029462068FFF700FF0746FAB289
:1006400029466D1C236823F811203A1229466D1C97
:10065000236823F8112000BF0BE0226832F816103F
:10066000E06800F06EFB10B90020BDE8F081701C5E
:1006700086B2AE42F1DB0120F7E72DE9F0410446F6
:10068000002500260027A08A45287FD260680288BE
:100690002846691C8DB2236823F810202289284639
:1006A000691C8DB2236823F81020208A0212284684
:1006B000691C8DB2236823F81020227C2846691C0F
:1006C0008DB2236823F81020608A02122846691C24
:1006D0008DB2236823F81020A27C2846691C8DB2B5
:1006E000236823F81020A08A02122846691C8DB2C4
:1006F000236823F81020227D2846691C8DB22368C8
:1007000023F8102000BF18E0218A3144A06930F896
:10071000110002122846691C8DB2236823F81020AC
:10072000218A3144A06910F811202846691C8DB235
:10073000236823F81020701C86B2A08AB042E3DC44
:1007400029462068FFF77AFE0746FAB22846691C58
:100750008DB2236823F810203A122846691C8DB206
:10076000236823F8102000260CE00FE0226832F8FE
:100770001610E06800F0E5FA10B90020BDE8F0813D
:10078000701C86B2AE42F1DB0120F7E70020F5E7EE
:100790006048007870475F49087070475E4800788D
:1007A00070475D490870704770B55C4CE068801E0A
:1007B00000280DD4E068401E216831F81010E06870
:1007C000801E226832F8100061F31F2085B201E01C
:1007D000002070BDA289921E91B22068FFF72EFE04
:1007E000A84201D12046F4E70020F2E710B54B4CB7
:1007F000204600F0D7FA204600F08CFA08B12046D7
:1008000010BD0020FCE770B5444C4248007830B180
:10081000012805D0022813D0032826D122E025E0A4
:10082000204600F0BFFA00F0E4FC054629462046C9
:1008300000F087FA02203749087000F0CEF815E082
:10084000204600F070FA38B900F0D3FC054629467E
:10085000204600F076FA02E003202E49087000F0EE
:10086000BCF803E000F0B9F800E000BF00BF70BDC5
:1008700070B52A4C2848007810B101281CD100E03E
:100880001BE0204600F046FA38B9204600F071FA25
:1008900085B2284600F0B1FC0BE0042000F0E2F93C
:1008A00000201D49087001201A490870002100F03D
:1008B000B0FC00F0C7F800E000BF00BF70BD10B58D
:1008C0001448007880B113480078022803D1012031
:1008D00000F0C8F902E0002000F0C4F900200D4942
:1008E0000870012100F095FC00F08BF810BD10B5E8
:1008F00000F0B5F9042809D1E22000F0B6F9002093
:1009000000F0B0F90121002000F083FC00F0A0F815
:1009100010BD0000500200205102002040020020C3
:100920001FB50121084601F0F4FA4FF0804001F0B4
:1009300047FB01A801F00DFE4720ADF804000020A0
:10094000ADF8060040F6AB70ADF808000020ADF839
:100950000A008DF80C0001A94FF0804001F092FBD5
:100960004FF4E06000F0B4FC1C208DF80000012082
:100970008DF8010000208DF8020001208DF80300A1
:10098000684600F0AAFC00214FF0804001F006FE0E
:100990001FBD10B5FFF7ABFF10BD10B5AFF20D00D6
:1009A0002E4908602E48007830B14FF4FA612C4887
:1009B000007800F03AFB09E0012300222748016893
:1009C0004FF4FA6000F0C9FA2549087010BD10B55F
:1009D000FFF7A6FFFFF7E1FF10BD10B50121880763
:1009E00002F0A2F800214FF0804002F06DF80122E1
:1009F0001146900701F0EDFD0121880701F0CEFDC1
:100A000010BD10B500214FF0804002F05DF80121CB
:100A1000880702F089F800220121880701F0D9FD3A
:100A200000214FF0804001F0B9FD10BD10B501214B
:100A3000880702F079F80121880702F089F8FFF7AA
:100A40003EFF10BD10B50648007800F0CCFA10BD8E
:100A500010B50348007800F0DAFA10BD5402002007
:100A6000580200202DE9F04104460D4616460027A5
:100A70009D480078F0B9FFF7B9FE0746C7B19B481B
:100A8000C760406804809948058246829848994921
:100A900008609648FFF751FD40B100209649087064
:100AA0000220914908700120BDE8F0810020FBE799
:100AB0000020F9E70020F7E72DE9F04104460D4654
:100AC0001646002788480078D0B9FFF78FFE074602
:100AD000A7B18A48C760406804808848058246827A
:100AE000FFF77BFD40B100208349087002207E495A
:100AF00008700120BDE8F0810020FBE70020F9E745
:100B00000020F7E72DE9F04704460D4616461F463C
:100B1000DDF820904FF000087348007800BBFFF725
:100B200065FE8046B8F1000F18D07548C0F80C80FB
:100B3000406804807248058246828782C0F8189017
:100B4000FFF79BFD40B100206B4908700220664909
:100B500008700120BDE8F0870020FBE70020F9E7DE
:100B60000020F7E710B503460020012008E0604CA4
:100B700034F8104023F811404C1CA1B2441CA0B220
:100B8000541CA042F3DB10BD594A026012880A804F
:100B9000704770B5002500260024FFF705FE0546C6
:100BA000002D4DD05748007800284CD1284600F041
:100BB000E0F85549098888423ED1284600F0D9F826
:100BC00086B2802E32D201E0601C84B24F4830F8E9
:100BD000340020B14D4830F83400B042F4D14B48D5
:100BE00030F83400B0421DD1484800EBC4004068E2
:100BF000C0B14048006888B1444800EBC4002A46B0
:100C000043683C4801684248984718B100203A4977
:100C1000087018E0E7203849087014E0E4203649ED
:100C2000087010E0E320344908700CE0284600F01A
:100C3000A0F83149087006E0E0202F49087002E072
:100C4000E1202D49087070BD10B50120FFF7A9FD06
:100C50000121002000F0DDFAFFF70AFE10BD224856
:100C60000078704720490870704723490870704722
:100C700021480078704710B50446224804700120CE
:100C8000FFF789FD0020FFF78CFD0121002000F017
:100C9000C0FA0020144908701749087010BD19489F
:100CA0000078704710B510480078052819D2DFE8A1
:100CB00000F003040A10140014E0FFF76AFF00209C
:100CC000094908700EE0FFF7BFFF032006490870CE
:100CD00008E00120FFF765FD04E00020FFF761FD5B
:100CE00000E000BF00BF10BD6702002068020020C6
:100CF000E404002060020020660200207C02002044
:100D0000900200205C02002064020020AC0200205F
:100D1000840500200146D1E90202904201D1012060
:100D200070470020FCE70146D1E90230C21A501C8E
:100D300018B14868401E904201D101207047002040
:100D4000FCE730B504460D462046FFF7ECFF70B9CE
:100D5000E168206820F81150E068401CE06061689C
:100D6000E068884201DB0020E060012030BD002007
:100D7000FCE710B5034600241846FFF7CBFF70B917
:100D80009968186830F811409868401C9860D3E959
:100D90000110884201DB00209860204610BD4FF012
:100DA000FF30FBE7014600208860C86001207047E3
:100DB000704700BFFEE700BFFEE700BFFEE700BFD1
:100DC000FEE7704770477047704710B500F026FF88
:100DD0004FF4803000F042FF00F07FFF0446012C0A
:100DE00024D1002000F0BFFF002000F0CEFFA002C1
:100DF00000F0C2FF022000F0D9FA102000F0EAFA59
:100E00004FF4E011200400F091FF012000F09AFF60
:100E100000BF392000F045FF0028FAD0022000F082
:100E200094FF00BF00F09AFF0828FBD110BD10B559
:100E3000FFF7CBFF00F078F800F05EF8FFF7C7FD92
:100E4000FFF7DEF910BD000010B50121344801F0B4
:100E50006BFE0021324801F037FE01221146304876
:100E600001F0B7FB01212E4801F098FB10BD1FB522
:100E70000121C80201F040F8294801F0A1F84720FB
:100E8000ADF804000020ADF806004FF47A70ADF81C
:100E900008000020ADF80A008DF80C0001A92048D8
:100EA00001F0F0F84FF4E06000F012FA19208DF82C
:100EB000000000208DF801008DF8020001208DF85F
:100EC0000300684600F009FA00F02EF8FFF7BCFFB7
:100ED0001FBD10B50121124801F026FE0021104867
:100EE00001F0F2FD002201210D4801F072FB00210A
:100EF0000B4801F053FB10BD10B5FFF7B8FF10BD54
:100F000008480068704710B50121054801F020FE2F
:100F100004480068401C0349086000F0A3F810BDB5
:100F2000002C0140CC02002000206A4900BF11E0E3
:100F3000002201EB00131A6001EB00135A6001EB71
:100F400000139A6001EB00135A7301EB00131A733C
:100F5000421CD0B21228EBD37047F0B504460D46C0
:100F6000164600215B4A00BF19E002EB0110407BEE
:100F700098B902EB0110046002EB0110446003F029
:100F8000030002EB0117787306F0010002EB011772
:100F9000387302EB0110856003E0481CC1B21229CE
:100FA000E3D300BF122902D2481CC0B2F0BD00201A
:100FB000FCE710B50246531ED8B24649002811DBA3
:100FC00012280FD2002301EB0014236001EB001460
:100FD000636001EB0014A36001EB0014637301EB89
:100FE0000014237310BD10B50246531ED8B2394900
:100FF00000280BDB122809D201EB00131B6801EB60
:1010000000146360022301EB0014637310BD10B57C
:1010100001464B1ED8B22F4A002805DB122803D206
:10102000012302EB0014637310BD2DE9F041064665
:101030000D46701EC4B2274F00220121264801F040
:10104000C8FA002C07DB122C05D207EB0410056050
:1010500007EB04104560012211461F4801F0B9FA60
:10106000BDE8F08170B500241A4D00BF2FE005EBFC
:101070000410407B022828D105EB0410416805EBE1
:1010800004104068401E05EB04125060E9B905EBFE
:101090000410007B01280AD105EB0410006805EB61
:1010A0000411486005EB0411886880470DE005EBEA
:1010B0000410006805EB04114860012005EB0411E1
:1010C000487305EB041188688047601CC4B2122C79
:1010D000CDD370BD24060020002C014008B50121AD
:1010E000042000F009FF4FF40070ADF80000182054
:1010F0008DF8030003208DF802006946724800F065
:101100004FFC4FF48060ADF8000004208DF8030020
:1011100003208DF8020069466B4800F041FC4FF453
:101120008070ADF8000010208DF8030003208DF8CA
:1011300002006946644800F033FC4FF48071624855
:1011400000F0DDFC08BDF0B587B004460D4616463C
:101150001F46FFF7C3FF0121880300F0CDFE0020EA
:10116000ADF80000ADF802004FF40070ADF80400D7
:101170000020ADF806006946544801F08AFD02944B
:10118000ADF80C50ADF80E60ADF810700020ADF861
:1011900014000C20ADF8120002A94C4801F01FFD0C
:1011A0004FF4E06000F094F825208DF8180000203E
:1011B0008DF8190001208DF81A008DF81B0006A883
:1011C00000F08BF840F22551404801F04AFE012220
:1011D00040F225513D4801F07FFD012240F2266199
:1011E0003A4801F079FD0121384801F069FD07B066
:1011F000F0BD3648001D0088704710B504464FF416
:101200008071314800F07BFC2146304801F0C5FD7B
:1012100010BD70B505460C465DB1012240F2255166
:101220002A4801F059FD4FF48071274800F065FC11
:101230000AE0002240F22551244801F04DFD4FF410
:101240008071214800F05BFC5CB1012240F2266114
:101250001E4801F041FD4FF480711B4800F04FFC27
:101260000AE0002240F22661184801F035FD4FF4F3
:101270008071154800F041FC70BD10B540F2255159
:10128000124801F0F7FD58B140F225510F4801F026
:101290001BFE40F225510D4801F0E3FDFFF7B3FAC4
:1012A00040F22661094801F0E5FD58B140F226619F
:1012B000064801F009FE40F22661044801F0D1FD24
:1012C000FFF7D6FA10BD00000008014000380140C9
:1012D00031490143314A1160704770B50021002344
:1012E0000F22C47804B32D4C246804F4E064C4F5E0
:1012F000E064210AC1F10403CA40447804FA03F10E
:101300008478144021430901254C0678A1550478BE
:1013100004F01F050124AC4005786D11AD0005F106
:10132000E025C5F8004109E0047804F01F05012418
:10133000AC401C4D0678761145F8264070BD1A4A1F
:101340000A400243154B1B1F1A60704739B1134AFC
:10135000121D12680243114B1B1D1A6006E00F4A52
:10136000121D126882430D4B1B1D1A607047042822
:1013700008D14FF0E021096941F004014FF0E0226B
:10138000116107E04FF0E021096921F004014FF0FD
:10139000E0221161704700000000FA050CED00E04A
:1013A00000E400E080E100E080FFFF1F0146002034
:1013B000FD4A106800F03800084310607047FA4991
:1013C000096821F00801F84A1160114609680143D3
:1013D00011607047F449096821F01001F24A116068
:1013E00011460968014311607047F048EE494860B2
:1013F000EF4848607047EC48006940F08000EA49D7
:10140000086170470420E849C96801F0010109B189
:1014100001200EE0E449C96801F0040109B102208D
:1014200007E0E149C96801F0100109B1032000E0BB
:101430000420704708B500200090FF20009002E0D3
:101440000098401E009000980028F9D108BD70B5A2
:1014500004460425FFF7D6FF054605E0FFF7EAFF3F
:10146000FFF7D0FF0546641E012D01D1002CF5D1F8
:1014700004B90525284670BD70B50546042440F61C
:10148000FF70FFF7E4FF0446042C19D1C648006939
:1014900040F00200C449086108464561006940F017
:1014A0004000086140F6FF70FFF7D1FF0446052CAD
:1014B00006D0BD48006941F6FD710840BA4908618F
:1014C000204670BD10B5042440F6FF70FFF7BFFF43
:1014D0000446042C18D1B448006940F00400B24915
:1014E00008610846006940F04000086140F6FF705E
:1014F000FFF7ADFF0446052C06D0AB48006941F666
:10150000FB710840A8490861204610BD10B50424AD
:1015100040F6FF70FFF79BFF0446042C3BD1A34825
:10152000A1498860A24888600846006940F0200010
:1015300008610846006940F04000086140F6FF700D
:10154000FFF785FF0446042C1CD19748006941F63B
:10155000DF710840944908610846006940F01000B6
:101560000861A520934908800F20FFF770FF04460B
:10157000052C10D08C48006941F6EF7108408A496B
:10158000086108E0052C06D08748006941F6EF7134
:10159000084085490861204610BDF8B506460D464D
:1015A0000424002000900F20FFF751FF0446042C74
:1015B00028D17D48006940F001007B4908613580F1
:1015C0000F20FFF744FF0446042C12D1B01C0090FA
:1015D000280C009908800F20FFF739FF0446052CDE
:1015E00010D07148006941F6FE7108406E490861EB
:1015F00008E0052C06D06C48006941F6FE710840F1
:10160000694908612046F8BD70B505460E460424B8
:101610000F20FFF71CFF0446042C13D16248006919
:1016200040F00100604908612E800F20FFF70FFF96
:101630000446052C06D05C48006941F6FE7108405E
:1016400059490861204670BD70B505460E46042410
:101650000F20FFF7FCFE0446042C17D153485249D3
:101660008860534888600846006940F010000861AF
:101670002E800F20FFF7EBFE0446052C06D04A48CB
:10168000006941F6EF71084047490861204670BD86
:101690002DE9F04704464FF6FF763746B046B1468F
:1016A0000425E443E6B2C4F30727C4F307484FEA2E
:1016B00014690F20FFF7CBFE0546042D40D13B48AF
:1016C000394988603A4888600846006940F010004F
:1016D0000861FF2E06D03748083006800F20FFF73C
:1016E000B6FE0546042D08D1FF2F06D031480A303A
:1016F00007800F20FFF7ABFE0546042D0AD1B8F195
:10170000FF0F07D02B480C30A0F800800F20FFF708
:101710009EFE0546042D0AD1B9F1FF0F07D02548DA
:101720000E30A0F800900F20FFF791FE0546052D22
:1017300006D01D48006941F6EF7108401A4908615A
:101740002846BDE8F08770B50546042440F6FF70D2
:10175000FFF77DFE0446042C49D1144812498860E5
:10176000134888600846006940F020000861084678
:10177000006940F04000086140F6FF70FFF767FE27
:101780000446042C2AD10848006941F6DF7108405C
:10179000054908610846006940F0100008615DB124
:1017A0000020044908800AE0002002402301674528
:1017B000AB89EFCD00F8FF1FA5204549088040F612
:1017C000FF70FFF744FE0446052C10D04148006925
:1017D00041F6EF7108403F49086108E0052C06D04A
:1017E0003C48006941F6DF7108403A4908612046EB
:1017F00070BD2DE9F04105460E46174604243648D3
:1018000034498860354888600F20FFF720FE044681
:10181000042C19D12F48006940F010002D490861AF
:1018200047F0F800304328432949891C08800F20DD
:10183000FFF70DFE0446052C06D02648006941F648
:10184000EF710840234908612046BDE8F081214836
:10185000C069800870471F48006A704700201D4912
:10186000C96901F0020109B1012000E000207047C0
:1018700000201849096801F0200109B1012000E0A9
:101880000020704729B1134A12690243114B1A61B3
:1018900004E0104A126982430E4B1A6170470146F8
:1018A0000020012908D10B4AD26902F001020AB1D5
:1018B000012008E0002006E0064AD2680A400AB18A
:1018C000012000E0002070470249C8607047000016
:1018D00000F8FF1F0020024023016745AB89EFCDD0
:1018E00010B50446C448844208D10121042000F008
:1018F0001DFB0021042000F019FB46E0BF48844294
:1019000008D10121082000F011FB0021082000F07F
:101910000DFB3AE0BA48844208D10121102000F0C2
:1019200005FB0021102000F001FB2EE0B5488442A9
:1019300008D10121202000F0F9FA0021202000F038
:10194000F5FA22E0B048844208D10121402000F09D
:10195000EDFA0021402000F0E9FA16E0AB4884429D
:1019600008D10121802000F0E1FA0021802000F060
:10197000DDFA0AE0A648844207D10121801500F073
:10198000D5FA0021A01500F0D1FA10BD10B5012143
:10199000084600F0CBFA0021012000F0C7FA10BD84
:1019A0002DE9F041024600250026002000230024F6
:1019B000002791F803C00CF00F0591F803C00CF05C
:1019C000100CBCF1000F03D091F802C04CEA0505E1
:1019D00091F800C0BCF1000F31D0146800202BE05A
:1019E0004FF0010C0CFA00F3B1F800C00CEA03064A
:1019F0009E4220D183004FF00F0C0CFA03F7BC433A
:101A000005FA03FC4CEA040491F803C0BCF1280F6A
:101A100006D14FF0010C0CFA00FCC2F814C00AE029
:101A200091F803C0BCF1480F05D14FF0010C0CFA3E
:101A300000FCC2F810C0401C0828D1D31460B1F8D3
:101A400000C0BCF1FF0F34DD546800202EE000F12F
:101A5000080C4FF0010808FA0CF3B1F800C00CEACA
:101A600003069E4221D183004FF00F0C0CFA03F7BE
:101A7000BC4305FA03FC4CEA040491F803C0BCF132
:101A8000280F05D100F1080C08FA0CF8C2F81480F0
:101A900091F803C0BCF1480F07D100F1080C4FF0DA
:101AA000010808FA0CF8C2F81080401C0828CED3B0
:101AB0005460BDE8F0814FF6FF7101800221817012
:101AC0000421C17070470246002093680B400BB19F
:101AD000012000E0002070470146886880B270470E
:101AE00002460020D3680B400BB1012000E000202B
:101AF00070470146C86880B2704701617047416114
:101B000070470AB1016100E041617047C1607047F0
:101B10004FF480320A438261816182618269826905
:101B20007047024600203B4B18684FF68073184000
:101B300040EA02100843374B186070473649C861C5
:101B40007047F0B50A460023002400210025314EDD
:101B50007168C0F3034583B200F44016B6F5401F28
:101B600008D121F070612B4E766826F07066294FFF
:101B70007E6012E000F48016B6F5801F06D10326C1
:101B800006FA05F4A14341F0706106E0460D360106
:101B900003FA06F6B14341F0706122B1460D3601F9
:101BA00003FA06F631431B4E7160F0BD30B50022DA
:101BB0008B071C0F0F2303FA04F2164B08338C100B
:101BC00053F824309343134C08348D1044F82530D7
:101BD00023468C1053F824308C07240F00FA04F4A9
:101BE00023430C4C08348D1044F8253030BD0A498D
:101BF000DC3108607047000000080140000C014023
:101C0000001001400014014000180140001C014078
:101C1000002001400000014000002042DF48006831
:101C200040F00100DD49086008464068DC49084092
:101C3000DA49486008460068DA490840D749086030
:101C40000846006820F4802008600846406820F4B8
:101C5000FE0048604FF41F0088607047CF49096854
:101C600021F48031CD4A11601146096821F48021A8
:101C70001160B0F5803F03D0B0F5802F0ED106E0A3
:101C8000C649096841F48031C44A116007E0C3497C
:101C9000096841F4A021C14A116000E000BF00BF03
:101CA000704710B501460022002300204A11012A86
:101CB00002D1BA4C236806E0022A02D1B74C236A4B
:101CC00001E0B64C636A01F01F02012494401C40FD
:101CD0000CB1012000E0002010BD38B500200090BC
:101CE0000024002500BF3120FFF7DBFF05460098E8
:101CF000401C00900098B0F5A06F01D0002DF2D0EC
:101D00003120FFF7CEFF08B1012400E00024204677
:101D100038BD01460020A14A106820F0F80040EAD2
:101D2000C10010607047A04908607047024600205B
:101D30009A4B586820F47C1042EA01031843974BF1
:101D40005860704798490866704701460020934ADA
:101D5000506820F003000843506070478F48406887
:101D600000F00C007047014600208C4A506820F0BB
:101D7000F00008435060704701460020874A5068D1
:101D800020F4E06008435060704701460020834A19
:101D9000506820F4605040EAC1005060704729B19B
:101DA0007E4A527A02437D4B5A7204E07B4A527A51
:101DB00082437A4B5A7270477B49D831086070472A
:101DC00001460020754A506820F4404008435060A6
:101DD00070470021714A20321170704A82F8201039
:101DE000012802D004280AD104E001216B4A2032E4
:101DF000117005E00521694A2032117000E000BF32
:101E000000BF70476949086070476449096A014327
:101E1000624A11627047654944390860704730B5BD
:101E200000210022002400235C4D6D6805F00C01A8
:101E300021B1042905D0082923D105E05C4D0560B6
:101E400022E05B4D05601FE0544D6D6805F4701293
:101E5000524D6D6805F48034022505EB92421CB9A1
:101E6000544D554305600BE04C4D6D6805F400354D
:101E70001DB1504D5543056002E04D4D5543056081
:101E800002E04B4D056000BF00BF444D6D6805F09A
:101E9000F0010909484D6B5C0568DD4045603F4D28
:101EA0006D6805F4E061090A434D6B5C4568DD40EF
:101EB00085603A4D6D6805F46051C90A3E4D6B5C12
:101EC0004568DD40C560354D6D6805F44041890BBE
:101ED0003A4D6B5CC568B5FBF3F5056130BD29B1C2
:101EE0002E4A526902432D4B5A6104E02B4A526933
:101EF00082432A4B5A61704729B1284A92690243AA
:101F0000264B9A6104E0254A92698243234B9A61E9
:101F1000704729B1214AD2690243204BDA6104E0BB
:101F20001E4AD26982431D4BDA61704729B11B4AB0
:101F3000D2680243194BDA6004E0184AD26882433F
:101F4000164BDA60704729B1144A12690243134BE9
:101F50001A6104E0114A12698243104B1A617047FA
:101F600012494039086070470F49C86470470B49EF
:101F7000C87170470948406A40F08070074948625C
:101F8000704701460020054A92680A400AB10120C4
:101F900000E000207047014988727047001002403D
:101FA0000000FFF8FFFFF6FE0000424280044242BC
:101FB00000127A0000093D00D0020020E00200205B
:101FC00010B50446FE48844208D10121C014FFF731
:101FD000ADFF0021E014FFF7A9FF52E0B4F1804FFC
:101FE00008D101210846FFF7AEFF00210120FFF7CD
:101FF000AAFF46E0F348844208D101210220FFF7FE
:10200000A2FF00210220FFF79EFF3AE0EE48844243
:1020100008D101210420FFF796FF00210420FFF7DB
:1020200092FF2EE0E948844208D101210820FFF701
:102030008AFF00210820FFF786FF22E0E44884425F
:1020400008D101211020FFF77EFF00211020FFF7AB
:102050007AFF16E0DF48844208D101212020FFF7F3
:1020600072FF00212020FFF76EFF0AE0DA48844269
:1020700007D101214014FFF759FF00216014FFF739
:1020800055FF10BD028802F08F020280CA884B887B
:102090001A4303881A4302808A8882850A88028547
:1020A000C74A904202D0CC4A904201D10A7A0286B5
:1020B00001228282704770B5002400220023058C23
:1020C0004FF6FE7635400584028C8388048B4FF6EC
:1020D0008C752C400D882C43751E2A400D892A438F
:1020E0004D882A43B64DA84202D0BB4DA84213D119
:1020F0004FF6F7752A404D892A434FF6FB752A4063
:102100008D882A4347F6FF652B4047F6FF552B4045
:102110008D892B43CD892B4383800483CD8885868D
:10212000028470BD70B5002400220023058C4FF698
:10213000EF7635400584028C8388048B48F6FF4592
:102140002C400D884FF6FF7606EA05252C434FF606
:10215000DF752A400D8906EA05152A434D8806EAEF
:1021600005152A43964DA84202D09B4DA8421DD189
:102170004FF67F752A404D894FF6FF7606EA051522
:102180002A434FF6BF752A408D8806EA05152A4373
:1021900047F6FF352B4047F2FF752B408D8906EA45
:1021A00085052B43CD8906EA85052B43838004836F
:1021B000CD880587028470BD70B5002400220023FD
:1021C000058C4FF6FF6635400584028C8388848B2E
:1021D0004FF68C752C400D882C434FF6FF552A4046
:1021E0000D894FF6FF7606EA05252A434D8806EA53
:1021F00005252A43724DA84202D0774DA8421DD131
:102200004FF2FF752A404D894FF6FF7606EA052505
:102210002A434FF6FF352A408D8806EA05252A43D2
:1022200046F6FF752B4045F6FF752B408D8906EA73
:1022300005152B43CD8906EA05152B43838084833E
:10224000CD888587028470BD70B5002400220023EC
:10225000058C4EF6FF7635400584028C8388848B8E
:1022600048F6FF452C400D884FF6FF7606EA052517
:102270002C434DF6FF752A400D8906EA05352A43A1
:102280004D8806EA05352A434D4DA84202D0524DED
:10229000A84207D1C3F30D038D894FF6FF7606EAF6
:1022A00085152B4383808483CD88A0F84050028419
:1022B00070BD828B4FF2FF331A408283828B4FF6C0
:1022C000FF7303EA01231A4382837047F0B50C467B
:1022D0001546002100220026078C4EF6FF7C07EAF7
:1022E0000C070784818B028C4FF6FF7707EA0436D0
:1022F00040F6FF4739404FF6FF7707EA0527394395
:102300004FF6FF7707EA033739434DF6FF773A4038
:1023100046F480573A4381830284F0BD828B4FF6A6
:10232000F3731A408283828B0A4382837047F0B52D
:102330000C461546002100220026078C4FF6FF6C44
:1023400007EA0C070784818B028C4FF6FF7707EAB8
:1023500004264FF60C7739404FF6FF7707EA03174C
:102360002F4339434FF6FF573A4046F480773A43BC
:1023700081830284F0BD028B4FF2FF331A40028347
:10238000028B4FF6FF7303EA01231A43028370475F
:10239000F0B50C461546002100220026078C4FF6AA
:1023A000EF7C07EA0C070784018B028C4FF6FF775E
:1023B00007EA041640F6FF4739404FF6FF770DE075
:1023C000002C01400004004000080040000C0040C8
:1023D00000100040001400400034014007EA0337B9
:1023E00039434FF6FF7707EA052739434FF6DF7782
:1023F0003A4046F010073A4301830284F0BD028B55
:102400004FF6F3731A400283028B0A43028370472C
:10241000F0B50C46154600210022068C4FF6FE77DB
:102420003E400684018B028C4FF60C7631407E1CB8
:1024300006EA03162E4331437E1E324044F0010665
:10244000324301830284F0BD70B505460C462088F6
:1024500050B92389A28861882846FFF7D9FFE1880F
:102460002846FFF7CCFF25E0208804280AD12389DD
:10247000A28861882846FFF78BFFE1882846FFF78E
:102480007AFF17E0208808280AD12389A28861886A
:102490002846FFF74CFFE1882846FFF73FFF09E099
:1024A0002389A28861882846FFF710FFE188284623
:1024B000FFF7FFFE70BD2DE9F04105460C460026F2
:1024C0000127608808B9022600E00026A0880128BC
:1024D00001D1022700E001272088A0B92389A28822
:1024E00061882846FFF794FFE1882846FFF787FFB9
:1024F00023893A4631462846FFF74AFFE1882846B5
:10250000FFF739FF13E02389A28861882846FFF787
:102510003FFFE1882846FFF72EFF23893A463146E0
:102520002846FFF775FFE1882846FFF768FFBDE8FA
:10253000F0810A884B881A438B881A43CB881A4348
:102540000B891A434B891A438B891A43A0F84420FC
:1025500070474FF6FF71818000210180C18041806A
:10256000017270470021018041808180C18001811A
:1025700041818181C1817047002101804180012119
:1025800081800021C180018170470021018041804C
:102590008180C180018141818181704721B10288A0
:1025A00042F00102028004E0028840F2FE331A4049
:1025B0000280704731B1B0F8442042F40042A0F8E4
:1025C000442005E0B0F84420C2F30E02A0F84420F5
:1025D00070471AB183890B43838102E083898B435F
:1025E000838170478182704741EA0203A0F8483036
:1025F00070471AB183890B43838102E083898B433F
:102600008381704701894FF6F8721140018170474C
:102610000A46002101894FF68F7319401143018149
:10262000704730B504460D4629462046FFF7F0FFB7
:10263000208940F00700208130BD2DE9F04104469B
:102640000D4616461F46602D06D13B4601223146F7
:102650002046FFF79DFE05E03B460122314620461D
:10266000FFF7D6FE29462046FFF7D2FF208940F02B
:1026700007002081BDE8F08130B50C4600210189BA
:10268000C9B24FF6FF7505EA0325154325432943D3
:10269000018130BD2DE9F04105460E4617469846AA
:1026A000002443463A4631462846FFF7E5FF2C8989
:1026B0004FF6F870044044F007044FF68F70044062
:1026C00044F070042C81BDE8F081F0B504460D465D
:1026D00016461F463B46324629462046FFF7CCFFAA
:1026E000208940F480402081F0BD018582827047BE
:1026F0000A460021018840F28F33194011430180BE
:102700007047F0B50C4615461E46002100220023F6
:102710000189028B038C4FF6F877394021434FF63D
:10272000FC473A4040F201173A434FF6DD773B4011
:102730004FF6FF7707EA06172F433B4301810283D9
:102740000384F0BD0A460021018B4FF68F731940B8
:102750001143018370470A460021018B48F6FF733D
:1027600019404FF6FF7303EA0223194301837047B0
:102770000A460021818B4FF68F73194011438183E4
:1027800070470A460021818B48F6FF7319404FF6C7
:10279000FF7303EA022319438183704721B1028842
:1027A00042F08002028004E0028840F27F331A4047
:1027B0000280704721B1828842F00402828004E0E6
:1027C00082884FF6FB731A408280704721B182885D
:1027D00042F00802828004E082884FF6F7731A40C4
:1027E0008280704721B1828842F00102828004E039
:1027F00082884FF6FE731A40828070470A46002195
:10280000018B4FF6F77319401143018370470A4655
:102810000021018B4FF2FF7319404FF6FF7303EA5B
:1028200002231943018370470A460021818B4FF62A
:10283000F77319401143818370470A460021818B49
:102840004FF2FF7319404FF6FF7303EA0223194357
:10285000818370470A460021018B4FF6FB731940B4
:102860001143018370470A460021018B4FF6FF3365
:1028700019404FF6FF7303EA02231943018370479F
:102880000A460021818B4FF6FB7319401143818367
:1028900070470A460021818B4FF6FF3319404FF6EF
:1028A000FF7303EA02231943818370470A4600211C
:1028B000018B4FF67F7319401143018370470A461D
:1028C0000021018BC1F30E014FF6FF7303EA0223CF
:1028D0001943018370470A460021818B4FF67F73AD
:1028E00019401143818370470A460021818BC1F34F
:1028F0000E014FF6FF7303EA0223194381837047E9
:102900000A460021018C4FF6FD73194011430184E2
:1029100070470A460021018C4FF6F77319401143A6
:10292000018470470A460021018C4FF6DF7319407D
:102930004FF6FF7303EA02131943018470470A46F6
:102940000021018C4FF67F7319404FF6FF7303EAA5
:1029500002131943018470470A460021018C4FF687
:10296000FF5319404FF6FF7303EA02231943018412
:1029700070470A460021018C4FF2FF7319404FF651
:10298000FF7303EA02231943018470470A460021BA
:10299000018C4DF6FF7319404FF6FF7303EA0233C3
:1029A00019430184704730B5002301248C40A3B241
:1029B000048C9C430484048C02FA01F5ADB22C43D0
:1029C000048430BD30B5002304248C40A3B2048CB1
:1029D0009C430484048C02FA01F5ADB22C430484B8
:1029E00030BD70B50346002000241846183001257C
:1029F0008D40ACB21D8CA5431D8409B108290AD1B4
:102A000000EB610005684FF68F763540056005687C
:102A1000154305600FE00D1FC5F34E0528440568FA
:102A200048F6FF763540056005684FF6FF7606EA02
:102A300002263543056070BD21B1028842F00202D2
:102A4000028004E0028840F2FD331A4002807047A1
:102A500021B1028842F00402028004E0028840F2C0
:102A6000FB331A400280704721B1828842F0800215
:102A7000828004E082884FF67F731A40828070471C
:102A8000028840F2F7331A40028002880A4302802B
:102A9000704782884FF68F731A40828082880A437B
:102AA0008280704702894FF6F8731A4002810289CA
:102AB0000A430281704702894FF67F731A400281F0
:102AC00002890A430281704781847047818570477B
:102AD000818670470187704781877047A0F8401052
:102AE00070470288D2B2028002880A43028070478F
:102AF0000146888E70470146088F70470146888FCF
:102B000070470146B1F8400070470146888C704715
:102B10000146088D704702460020138A0B400BB116
:102B2000012000E000207047CA430282704730B5A0
:102B30000246002000230024158A05EA0103958936
:102B400005EA010413B10CB1012000E0002030BD02
:102B5000CA4302827047000010B50446E24884422E
:102B600009D101218803FFF7E1F900214FF48040EA
:102B7000FFF7DCF932E0DD48844209D10121480445
:102B8000FFF7E1F900214FF40030FFF7DCF925E011
:102B9000D748844209D101218804FFF7D4F90021E4
:102BA0004FF48020FFF7CFF918E0D248844209D1D2
:102BB0000121C804FFF7C7F900214FF40020FFF7F7
:102BC000C2F90BE0CC48844208D101210805FFF787
:102BD000BAF900214FF48010FFF7B5F910BD2DE9C7
:102BE000F04786B005460E460024A24600BF00BF4F
:102BF0000027B08900B100BF2F462C8A4CF6FF7029
:102C00000440F08804432C82AC894EF6F310044053
:102C1000B08831890843718908430443AC81AC8A88
:102C20004FF6FF400440B0890443AC8201A8FFF78F
:102C3000F6F8AD48874202D1DDF810A001E0DDF8DA
:102C40000CA00AEBCA0000EB0A1031688900B0FB47
:102C5000F1F86420B8FBF0F004012009642101FBC5
:102C60001089322000EB0910B0FBF1F000F00F00EA
:102C700004432C8106B0BDE8F0874FF41651016083
:102C800000218180C18001810C214181002181814D
:102C9000704710B502460020108A4FF2FF0318401B
:102CA0000B884C8823438C882343CC8823431843C8
:102CB000108210BD0021018041808180C180704759
:102CC00021B1828942F40052828104E082894DF66A
:102CD000FF731A4082817047F0B503460024002636
:102CE0000025002040F66A17B94200D100BF1846FF
:102CF000C1F3421401F01F06012707FA06F5012C63
:102D000001D10C3004E0022C01D1103000E014306D
:102D10001AB107682F43076002E00768AF430760F6
:102D2000F0BD1AB1838A0B43838202E0838A8B430E
:102D300083827047028A4FF6F0731A400282028A39
:102D40000A430282704782894FF2FF731A408281E0
:102D500082890A438281704721B1828942F002024E
:102D6000828104E082894FF6FD731A4082817047A8
:102D7000028A4FF6DF731A400282028A0A430282F5
:102D8000704721B1028A42F48042028204E0028A42
:102D90004BF6FF731A4002827047C1F3080282802B
:102DA000704701468888C0F308007047818941F068
:102DB000010181817047028BD2B20283028B42EA09
:102DC000012202837047028B02F47F420283028B4E
:102DD0000A430283704721B1828A42F02002828234
:102DE00004E0828A4FF6DF731A408282704721B175
:102DF000828A42F01002828204E0828A4FF6EF73E8
:102E00001A408282704721B1828A42F0080282828F
:102E100004E0828A4FF6F7731A4082827047828AF2
:102E20004FF6FB731A408282828A0A43828270477D
:102E300021B1828A42F00202828204E0828A4FF645
:102E4000FD731A408282704702460020B1F5007F70
:102E500000D100BF13880B400BB1012000E000201F
:102E6000704701F40072B2F5007F00D100BFCA4381
:102E70000280704770B50246002400230025002020
:102E800040F66A16B14200D100BFC1F3421501F00D
:102E90001F03012606FA03F3012D02D19689334060
:102EA00006E0022D02D1168A334001E0968A3340B3
:102EB0000C12012606FA04F41688344013B10CB142
:102EC000012000E0002070BD10B50022002340F674
:102ED0006A14A14200D100BF0A1201249440A3B297
:102EE000DC43048010BD0000003801400044004075
:102EF00000480040004C00400050004070477047C0
:102F00007047754600F02CF8AE46050069465346FA
:102F100020F00700854618B020B5FDF761F9BDE83F
:102F200020404FF000064FF000074FF000084FF030
:102F3000000B21F00701AC46ACE8C009ACE8C009C1
:102F4000ACE8C009ACE8C0098D46704710B504462E
:102F5000AFF300802046BDE81040FDF72EB9000019
:102F6000004870474407002001491820ABBEFEE727
:102F7000260002007047000001000100010001006E
:102F80000100010001000100A82F0008000000203E
:102F9000E40200002801000830310008E4020020AB
:102FA000C444000084010008338025324B2296334C
:102FB000C0DA32E123C2011AF40443E803120632F4
:102FC00004321022203202291B6908112808C1810D
:102FD0004001C0804104690C2908E918A91C091A9C
:102FE00030091638093660092E70092F6000FF007D
:102FF000C0C101C30302C2C60607C705C5C404CCCD
:103000000C0DCD0FCFCE0E0ACACB0BC90908C8D8FC
:103010001819D91BDBDA1A1EDEDF1FDD1D1CDC14BC
:10302000D4D515D71716D6D21213D311D1D010F08C
:103030003031F133F3F23236F6F737F53534F43C0C
:10304000FCFD3DFF3F3EFEFA3A3BFB39F9F83828DC
:10305000E8E929EB2B2AEAEE2E2FEF2DEDEC2CE4FC
:103060002425E527E7E62622E2E323E12120E0A06C
:103070006061A163A3A26266A6A767A56564A46C4C
:10308000ACAD6DAF6F6EAEAA6A6BAB69A9A868787C
:10309000B8B979BB7B7ABABE7E7FBF7DBDBC7CB43C
:1030A0007475B577B7B67672B2B373B17170B0504C
:1030B0009091519353529296565797559594549C8C
:1030C0005C5D9D5F9F9E5E5A9A9B5B99595898885C
:1030D0004849894B8B8A4A4E8E8F4F8D4D4C8C447C
:1030E00084854587474686824243834181801440D8
:1030F000E4021220021E01291F1384051B20642CE8
:10310000B20369140A110614021310293C13750442
:103110002A08301ACB082924130305FA08702C0258
:103120000304040009000607080902040608000059
:04000005080000ED02
:00000001FF
