:020000040800F2
:10000000F00D00201D020008F30D0008070800088D
:10001000EF0D00084D0600087721000800000000E1
:1000200000000000000000000000000011130008A4
:10003000B106000800000000790E00083D14000819
:1000400037020008370200083702000837020008AC
:10005000370200083702000837020008370200089C
:10006000370200083702000837020008370200088C
:10007000370200083702000837020008370200087C
:10008000370200083702000837020008370200086C
:10009000370200083702000837020008370200085C
:1000A000370200082115000837020008370200084F
:1000B000B7150008D11500083702000837020008FC
:1000C000370200083702000837020008370200082C
:1000D00037020008951B00087D1D0008611E0008FE
:1000E000370200083702000837020008370200080C
:1000F00037020008370200083702000837020008FC
:1001000037020008370200083702000837020008EB
:10011000391B0008611B000837020008370200087D
:1001200037020008370200083702000837020008CB
:1001300000F002F800F062F80AA090E8000C824497
:100140008344AAF10107DA4501D100F057F8AFF274
:10015000090EBAE80F0013F0010F18BFFB1A43F0A5
:1001600001031847D8280000F82800000A444FF07F
:10017000000C10F8013B13F0070408BF10F8014B06
:100180001D1108BF10F8015B641E05D010F8016B4B
:10019000641E01F8016BF9D113F0080F1EBF10F8AF
:1001A000014BAD1C0C1B09D16D1E58BF01F801CBD2
:1001B000FAD505E014F8016B01F8016B6D1EF9D555
:1001C0009142D6D37047000000230024002500266A
:1001D000103A28BF78C1FBD8520728BF30C148BFAA
:1001E0000B607047642900F06F80782900F0A880C8
:1001F000002070471FB51FBD10B510BD00F0F4F909
:100200001146FFF7F7FF01F0D3FF00F012FA03B435
:10021000FFF7F2FF03BC01F0B7FF00000948804779
:1002200009480047FEE7FEE7FEE7FEE7FEE7FEE7D8
:10023000FEE7FEE7FEE7FEE704480549054A064BF0
:10024000704700004114000831010008F007002049
:10025000F00D0020F0090020F00900207047000098
:100260000FB4044910B503AA029800F08FF910BC2E
:100270005DF814FBE402002070B50446856900684F
:10028000C10601D5302600E02026C00707D070BD8A
:10029000D4E9012130469047206A401C20626D1E3F
:1002A000F6D570BD70B5044685690078C00707D1E2
:1002B00070BDD4E9012120209047206A401C2062B3
:1002C0006D1EF6D570BD00002DE9F04106460024F4
:1002D00010687529314616A510D0AFF300800028AC
:1002E00002DA404213A507E031688A0701D512A55A
:1002F00002E0490704D511A5012401E0AFF3008015
:1003000000210A2206F1240709E0B0FBF2FCB0FB51
:10031000F2F302FB1C00303078541846491C0028C8
:10032000F3D123462A463046BDE8F04100F0D4B868
:10033000000000002D0000002B0000002000000045
:1003400070B504460D4621461068AFF30080218841
:10035000090502D50F4A7A4402E00E4A7A440E3269
:10036000002104F1240305E000F00F060009965D6A
:100370005E54491C0028F7D120780023000704D5DB
:10038000702D02D009B1022311322046BDE8704021
:1003900000F0A2B8A82600002DE9F05F89460446C7
:1003A0004FF0000ADFF824B1FB44C0F820A020463B
:1003B000E168884700287DD0252806D0D4E90121AE
:1003C0009047206A401C2062F1E700255F462046E6
:1003D000E16888472028064607DB312E05D2B81988
:1003E00010F8200C08B10543F1E7A80701D525F066
:1003F0000405C4F81CA00027C4F818A02A2E09D0B0
:10040000304601F0BAFE38B304EB8708303EC8F836
:10041000186019E059F8041B204604EB870291612B
:10042000E1688847012F064618D1E069002820DAE4
:1004300025F020051DE0D8F8180000EB800006EB41
:1004400040003038C8F818002046E1688847064662
:1004500001F093FE0028EED1012F0AD02E2E08D1F4
:100460002046E16888477F1C0646022F45F020059C
:10047000C4DBA069002803DA404245F00105A06111
:10048000E80701D025F01005A6B1A6F14100192812
:1004900002D8203645F400654A463146204625609C
:1004A0004D46FFF79FFE60B1012807D0ED1D25F0F6
:1004B000070000E007E000F1080978E705F104090A
:1004C00075E730467AE7206ABDE8F09F7E26000097
:1004D00070477047704770472DE9F0470D469946C1
:1004E0009246044600F124080168880604D5E069B4
:1004F00021F01001216000E00120A84201DD471B2E
:1005000000E00027A1697A1902EB0900081AA0612E
:100510002078C00602D42046FFF7AEFE002608E091
:10052000D4E901211AF806009047206A401C761C85
:1005300020624E45F4DB2078C0060AD52046FFF73E
:100540009BFE06E0D4E9012130209047206A401C40
:100550002062381EA7F10107F4DC07E0D4E901218D
:1005600018F805009047206A401C2062281EA5F15B
:100570000105F3DC2046FFF795FE2078000602D542
:100580000220BDE8F0870120FBE70000074B70B5B3
:100590000D467B4400F011F80446284600F020F890
:1005A00010B14FF0FF3070BD204670BDF71B00004A
:1005B00001694A1C02610878704700B58FB0CDE927
:1005C00001310021059105497944CDE90310114617
:1005D0006846FFF7E1FE0FB000BD0000E5FFFFFF3A
:1005E000007B00F080007047754600F02BF8AE46A7
:1005F00005006946534620F00700854618B020B52F
:10060000FFF71AFEBDE820404FF000064FF000074C
:100610004FF000084FF0000B21F00701AC46ACE8AA
:10062000C009ACE8C009ACE8C009ACE8C0098D4617
:10063000704710B50446AFF300802046BDE8104077
:10064000FFF7E5BD004870478C07002000BFFEE7BC
:1006500010B5054CA388054C6288054C6188054C93
:10066000206801F0F9FA10BDB4020020C002002099
:10067000BC0200209402002070B502460C46FF2503
:10068000FF2309E032F8020B80EA03010648405CD0
:1006900080EA05030548455C201EA4F10106B4B2BA
:1006A000F0D143EA052070BD0600002006010020BD
:1006B000704700000549096821F01001034A1160E4
:1006C0001146096801431160704700000020024094
:1006D00001460020034A106800F03800084310600B
:1006E00070470000002002402DE9F041024600253D
:1006F0000026002000230024002791F803C00CF0FE
:100700000F0591F803C00CF0100CBCF1000F03D0E2
:1007100091F802C04CEA050591F800C0BCF1000F49
:1007200031D0146800202BE04FF0010C0CFA00F3DC
:10073000B1F800C00CEA03069E4220D183004FF0BE
:100740000F0C0CFA03F7BC4305FA03FC4CEA040453
:1007500091F803C0BCF1280F06D14FF0010C0CFA40
:1007600000FCC2F814C00AE091F803C0BCF1480FC5
:1007700005D14FF0010C0CFA00FCC2F810C0401C6F
:100780000828D1D31460B1F800C0BCF1FF0F34DDEC
:10079000546800202EE000F1080C4FF0010808FA20
:1007A0000CF3B1F800C00CEA03069E4221D183008D
:1007B0004FF00F0C0CFA03F7BC4305FA03FC4CEAAC
:1007C000040491F803C0BCF1280F05D100F1080C16
:1007D00008FA0CF8C2F8148091F803C0BCF1480F75
:1007E00007D100F1080C4FF0010808FA0CF8C2F824
:1007F0001080401C0828CED35460BDE8F0814161D0
:1008000070470161704700BFFEE7000008B5012195
:10081000482000F0EFFB2020ADF8000010208DF8FC
:10082000030003208DF8020069460948FFF75CFFCA
:1008300020210748FFF7E5FF2020ADF800006946BA
:100840000448FFF751FF20210248FFF7DAFF08BDF7
:10085000000C01400018014070B5104CE068801E8B
:1008600000280DD4E068401E216831F81010E068BF
:10087000801E226832F8100061F31F2085B201E06B
:10088000002070BDA289921E91B22068FFF7F4FE8D
:10089000A84201D12046F4E70020F2E70802002038
:1008A00010B5064C204600F067FB204600F06AFBBE
:1008B00008B1204610BD0020FCE70000080200201F
:1008C00070B51A4C1A48007830B1012805D00228BA
:1008D00013D0032826D122E025E0204600F04CFB6F
:1008E00001F0A8FA05462946204600F02DFB02201B
:1008F0000F49087000F0EDF915E0204600F04BFBC1
:1009000038B901F097FA05462946204600F01CFB4D
:1009100002E003200649087000F0DBF903E000F074
:10092000D8F900E000BF00BF70BD00000802002041
:100930001802002010B500F06BF8042809D1E2205D
:1009400000F0C4F8002000F0C7F80121002001F0F9
:100950003DFA00F095F910BD70B5134C13480078BE
:1009600010B101281CD100E01BE0204600F00AFB7A
:1009700038B9204600F081FA85B2284601F060FAC5
:100980000BE0042000F0A8F80020084908700120BE
:1009900007490870002101F019FA00F079F900E028
:1009A00000BF00BF70BD0000080200201902002037
:1009B000180200200149087070470000180200204A
:1009C00001490870704700001902002010B50B485B
:1009D000007880B109480078022803D1012000F096
:1009E0007BF802E0002000F077F80020034908704F
:1009F000012101F0EBF900F057F910BD18020020B9
:100A0000024A026012880A8070470000FC0400203D
:100A100001480078704700002F02002010B51048F0
:100A20000078052819D2DFE800F003040A1014004A
:100A300014E000F069F90020094908700EE000F0A8
:100A4000CBF903200649087008E00120FFF7B8FF42
:100A500004E00020FFF7B4FF00E000BF00BF10BDBE
:100A60002F0200202DE9F04104460D4616460027CE
:100A700011480078F0B9FFF713FF0746C7B10F48D8
:100A8000C760406804800D48058246820C480D49C5
:100A900008600A4800F0A3F840B100200A49087035
:100AA0000220054908700120BDE8F0810020FBE725
:100AB0000020F9E70020F7E72F0200203002002095
:100AC000FC040020280200202E02002001490870AA
:100AD000704700002E020020014908707047000096
:100AE0002F02002010B50446084804700120FFF7CB
:100AF00061FF0020FFF764FF0121002001F066F98B
:100B00000020034908700349087010BD240200202A
:100B10002F0200202E0200202DE9F04781460C46CE
:100B2000904600260027404600F0A7F986B23046DE
:100B300006EBD0714A103B467F1C24F81320002599
:100B400010E0404600F099F98246404600F095F9E1
:100B50006AF31F2024F81700781C87B2681C85B23E
:100B6000681C85B2B542ECDB0120BDE8F0872DE9B9
:100B7000F04705468946164605274FF0010802242E
:100B80000BE0304600F079F935F81410884202D0B5
:100B90004FF0000803E0601C84B2BC42F1DB00BFF0
:100BA0004046BDE8F0872DE9F047054689461646E0
:100BB00008274FF0010802240BE0304600F05DF9F1
:100BC00035F81410884202D04FF0000803E0601C92
:100BD00084B2BC42F1DB00BF4046BDE8F0872DE99E
:100BE000F041044600250026002760680288294657
:100BF0006D1C236823F81120228929466D1C236867
:100C000023F81120208A021229466D1C236823F83C
:100C10001120227C29466D1C236823F81120608A4C
:100C2000021229466D1C236823F81120A27C294654
:100C30006D1C236823F8112029462068FFF71CFD4E
:100C40000746FAB229466D1C236823F811203A1290
:100C500029466D1C236823F8112000BF0BE0226891
:100C600032F81610E06800F06FF910B90020BDE806
:100C7000F081701C86B2AE42F1DB0120F7E7000084
:100C800010B50248007800F05FFD10BD2002002082
:100C900010B50248007800F067FD10BD200200206A
:100CA00010B5FFF747FE10BD10B500214FF0804092
:100CB00000F0CAFE0121880700F0A6FD00220121F4
:100CC000880700F0B8FE00214FF0804000F0A2FD40
:100CD00010BD10B50121880700F096FD00214FF0EE
:100CE000804000F0B1FE01221146900700F0A3FE03
:100CF0000121880700F08EFD10BD10B500F022FC28
:100D000000F07CFB10BD000070B50025002600241B
:100D1000FFF7A2FD0546002D4DD029480078002898
:100D20004CD1284600F0A9F82649098888423ED1CE
:100D3000284600F0A2F886B2802E32D201E0601C74
:100D400084B2214830F8340020B11F4830F8340014
:100D5000B042F4D11C4830F83400B0421DD11A48DA
:100D600000EBC4004068C0B11848006888B116485C
:100D700000EBC4002A4643681448016814489847A9
:100D800018B100201349087018E0E72011490870D5
:100D900014E0E4200F49087010E0E3200D490870CA
:100DA0000CE0284600F069F80A49087006E0E020E7
:100DB0000849087002E0E1200649087070BD000093
:100DC000240200202C0200207402002028020020AF
:100DD0009C0500202E02002010B50120FFF7F0FD39
:100DE0000121002000F0F2FFFFF7B6FD10BD00BFAB
:100DF000FEE7704770B5002100230F22C47804B3CA
:100E0000154C246804F4E064C4F5E064210AC1F1DF
:100E10000403CA40447804FA03F18478144021435F
:100E200009010E4C0678A155047804F01F05012431
:100E3000AC4005786D11AD0005F1E025C5F8004125
:100E400009E0047804F01F050124AC40044D067845
:100E5000761145F8264070BD0CED00E000E400E09E
:100E600080E100E002490143024A1160704700003E
:100E70000000FA050CED00E0704710B503460024B1
:100E8000184600F07FF870B99968186830F811407A
:100E90009868401C9860D3E90110884201DB00206B
:100EA0009860204610BD4FF0FF30FBE71CB5694647
:100EB00001A8FFF7A5FDBDF80000002825DDBDF85D
:100EC000001012A0FFF7CCF900201749087016E0B7
:100ED00015480078401C019C34F810301248007806
:100EE000401C34F810201048007800F110010FA0C9
:100EF000FFF7B6F90C480078401C0B4908700A4807
:100F00000078BDF800108842E2DB1CBD52656365C5
:100F100069766564202564207265676973746572FB
:100F2000733A0D0A00000000010000205265675B63
:100F30003078253032585D203D20307825303458C7
:100F400020282564290D0A0030B504460D462046A8
:100F500000F021F870B9E168206820F81150E068CD
:100F6000401CE0606168E068884201DB0020E060CE
:100F7000012030BD0020FCE7014600208860C860E9
:100F8000012070470146D1E90202904201D10120BF
:100F900070470020FCE70146D1E90230C21A501C1C
:100FA00018B14868401E904201D1012070470020CE
:100FB000FCE7000029B1064AD2690243044BDA611A
:100FC00004E0034AD2698243014BDA6170470000B2
:100FD0000010024029B1064A12690243044B1A610B
:100FE00004E0034A12698243014B1A617047000012
:100FF0000010024029B1064A92690243044B9A61EB
:1010000004E0034A92698243014B9A6170470000F1
:101010000010024029B1064AD2680243044BDA604C
:1010200004E0034AD2688243014BDA607047000053
:101030000010024010B500F02FF84FF4803000F09F
:10104000EDF800F049F90446012C24D1002000F00D
:10105000D9F8002000F014F9A00200F005F90220F0
:10106000FFF736FB1020FFF725FB4FF4E0112004BB
:1010700000F018F9012000F00FF900BF392000F04E
:101080009BF80028FAD0022000F01AF900BF00F007
:10109000B1F80828FBD110BD0F48006840F00100EE
:1010A0000D490860084640680C4908400A494860F4
:1010B000084600680A490840074908600846006871
:1010C00020F4802008600846406820F4FE00486054
:1010D0004FF41F0088607047001002400000FFF8C6
:1010E000FFFFF6FE30B500210022002400232D4D25
:1010F0006D6805F00C0121B1042905D0082923D120
:1011000005E0294D056022E0274D05601FE0254DD3
:101110006D6805F47012234D6D6805F48034022566
:1011200005EB92421CB9214D554305600BE01D4D66
:101130006D6805F400351DB11C4D5543056002E096
:10114000194D5543056002E0174D056000BF00BF13
:10115000144D6D6805F0F0010909154D6B5C0568CB
:10116000DD4045600F4D6D6805F4E061090A104DE2
:101170006B5C4568DD4085600A4D6D6805F4605123
:10118000C90A0B4D6B5C4568DD40C560054D6D6857
:1011900005F44041890B074D6B5CC568B5FBF3F561
:1011A000056130BD0010024000127A0000093D00C8
:1011B000E8020020F802002010B5014600220023BA
:1011C00000204A11012A02D1094C236806E0022AB4
:1011D00002D1074C236A01E0054C636A01F01F024B
:1011E000012494401C400CB1012000E0002010BDFF
:1011F000001002400248406800F00C0070470000F8
:101200000010024001460020034A506820F0F00020
:1012100008435060704700000010024011490968FF
:1012200021F480310F4A11601146096821F48021B0
:101230001160B0F5803F03D0B0F5802F0ED106E0ED
:101240000849096841F48031064A116007E0054900
:10125000096841F4A021034A116000E000BF00BF0B
:10126000704700000010024001460020034A506809
:1012700020F4E06008435060704700000010024016
:1012800001460020034A506820F4605040EAC10043
:101290005060704700100240014908667047000026
:1012A0000000424202460020044B586820F47C10A3
:1012B00042EA01031843014B586070470010024096
:1012C00001460020034A506820F0030008435060A4
:1012D000704700000010024038B500200090002444
:1012E000002500BF3120FFF767FF05460098401C2E
:1012F00000900098B0F5A06F01D0002DF2D0312001
:10130000FFF75AFF08B1012400E00024204638BD51
:10131000704710B500F002F810BD00000CB50020B9
:10132000019000903348006840F4803031490860F3
:1013300000BF3048006800F4003000900198401C65
:101340000190009818B90198B0F5A06FF1D1294823
:10135000006800F4003010B10120009001E000208E
:1013600000900098012843D12348006840F0100005
:10137000214908600846006820F00300086008461C
:10138000006840F0020008601A4840681949486047
:101390000846406848600846406840F480604860FD
:1013A0000846406820F47C1048600846406840F4D5
:1013B000E81048600846006840F08070086000BF90
:1013C0000C48006800F000700028F9D00948406817
:1013D00020F00300074948600846406840F00200DA
:1013E000486000BF0348406800F00C000828F9D1AD
:1013F0000CBD0000001002400020024010B50C4857
:101400000C4908600C48007830B14FF4FA610A4882
:10141000007800F049F909E001230022054801683D
:101420004FF4FA6000F062F90349087010BD000043
:10143000A10C00081C0200202002002070470000C0
:1014400010B51348006840F00100114908600846D3
:101450004068104908400E494860084600680E4937
:1014600008400B4908600846006820F480200860A6
:101470000846406820F4FE0048604FF41F00886072
:10148000FFF747FF4FF000600449086010BD0000FF
:10149000001002400000FFF8FFFFF6FE08ED00E03C
:1014A00010B5FFF7C7FD00F0E3F800F041FBFFF7D0
:1014B00024FCFFF7CDF810BD1FB50121C802FFF7CE
:1014C00099FD164800F0B2F94720ADF8040000205D
:1014D000ADF806004FF47A70ADF808000020ADF8C2
:1014E0000A008DF80C0001A90C4800F0AFFA4FF487
:1014F000E060FFF7B7FC19208DF8000000208DF8A0
:1015000001008DF8020001208DF803006846FFF706
:1015100071FC00F0ADF800F0F5FA1FBD002C0140A1
:1015200010B50121054800F072F905480068401C1B
:101530000349086000F02EF910BD0000002C0140A6
:10154000C40200201FB501210846FFF733FD4FF00C
:10155000804000F06BF901A800F0CAFA4720ADF80E
:1015600004000020ADF8060040F6AB70ADF80800AE
:101570000020ADF80A008DF80C0001A94FF0804062
:1015800000F064FA4FF4E060FFF76CFC1C208DF86B
:10159000000001208DF8010000208DF802000120DC
:1015A0008DF803006846FFF725FC00214FF08040CE
:1015B00000F030F91FBD10B50121880700F024F9B3
:1015C0000121880700F023F9FFF700FA10BD0000A1
:1015D00010B501210C4800F01DFA012812D10B486A
:1015E0000088401C0949088008460088322805DB2D
:1015F00001200749087000200449088001210248A1
:1016000000F005F910BD00000004004004000020B7
:10161000020000207FB505460C4601210220FFF79D
:10162000C9FCADF80850ADF804400020ADF80A0040
:10163000ADF8060001A90D4800F008FA0122114694
:101640000A4800F0F8F91D208DF8000003208DF8FD
:1016500001008DF8020001208DF803006846FFF7B5
:10166000C9FB0121014800F0D5F87FBD000400400E
:1016700000200C4900BF11E0002201EB00131A60AA
:1016800001EB00135A6001EB00139A6001EB0013A9
:101690005A7301EB00131A73421CD0B21228EBD319
:1016A000704700003C0600202DE9F04106460D463B
:1016B000701EC4B20B4F002201210B4800F0BBF991
:1016C000002C07DB122C05D207EB0410056007EB9A
:1016D0000410456001221146034800F0ACF9BDE852
:1016E000F08100003C060020002C0140F0B50446CB
:1016F0000D4616460021134A00BF19E002EB011007
:10170000407B98B902EB0110046002EB01104460C9
:1017100003F0030002EB0117787306F0010002EBFF
:101720000117387302EB0110856003E0481CC1B259
:101730001229E3D300BF122902D2481CC0B2F0BD67
:101740000020FCE73C06002010B501464B1ED8B235
:10175000044A002805DB122803D2012302EB0014FF
:10176000637310BD3C06002010B50246531ED8B26C
:10177000074900280BDB122809D201EB00131B6874
:1017800001EB00146360022301EB0014637310BDCE
:101790003C06002070B500241A4D00BF2FE005EB79
:1017A0000410407B022828D105EB0410416805EBAA
:1017B00004104068401E05EB04125060E9B905EBC7
:1017C0000410007B01280AD105EB0410006805EB2A
:1017D0000411486005EB0411886880470DE005EBB3
:1017E0000410006805EB04114860012005EB0411AA
:1017F000487305EB041188688047601CC4B2122C42
:10180000CDD370BD3C060020CA4302827047CA4354
:101810000282704721B1028842F00102028004E096
:1018200002884FF6FE731A400280704710B50446D6
:101830006848844208D10121C014FFF7EBFB002166
:10184000E014FFF7E7FBC4E0B4F1804F08D10121B9
:101850000846FFF7BFFB00210120FFF7BBFBB8E004
:101860005D48844208D101210220FFF7B3FB00212B
:101870000220FFF7AFFBACE05848844208D10121B9
:101880000420FFF7A7FB00210420FFF7A3FBA0E043
:101890005348844208D101210820FFF79BFB002117
:1018A0000820FFF797FB94E04E48844208D10121BD
:1018B0001020FFF78FFB00211020FFF78BFB88E043
:1018C0004948844208D101212020FFF783FB0021F1
:1018D0002020FFF77FFB7CE04448844208D10121AF
:1018E0004014FFF797FB00216014FFF793FB70E0B3
:1018F0003F48844209D10121C804FFF78BFB002136
:101900004FF40020FFF786FB63E03A48844209D198
:1019100001210805FFF77EFB00214FF48010FFF73F
:1019200079FB56E03448844209D101214805FFF78C
:1019300071FB00214FF40010FFF76CFB49E02F48CA
:10194000844208D101214020FFF744FB00214020C0
:10195000FFF740FB3DE02A48844208D10121802066
:10196000FFF738FB00218020FFF734FB31E02548EA
:10197000844208D101218015FFF72CFB0021A0151E
:10198000FFF728FB25E02048844209D10121080403
:10199000FFF740FB00214FF48030FFF73BFB18E0DE
:1019A0001A48844209D101214804FFF733FB002182
:1019B0004FF40030FFF72EFB0BE01548844208D1AE
:1019C00001218804FFF726FB00214FF48020FFF758
:1019D00021FB10BD002C0140000400400008004025
:1019E000000C004000100040001400400034014092
:1019F000004C0140005001400054014000180040DC
:101A0000001C004000200040004001400044014014
:101A10000048014030B50246002000230024158A0A
:101A200005EA0103958905EA010413B10CB101200F
:101A300000E0002030BD1AB183890B43838102E0AE
:101A400083898B4383817047818470470022028899
:101A50001D4B98420ED01D4B98420BD0B0F1804FD9
:101A600008D01B4B984205D01A4B984202D01A4B13
:101A7000984204D14FF68F731A404B881A43174B84
:101A8000984207D0164B984204D04FF6FF431A40B5
:101A9000CB881A4302808B8883850B8803850A4B89
:101AA00098420BD0094B984208D00E4B984205D073
:101AB0000D4B984202D00D4B984201D10B7A038610
:101AC0000123838270470000002C01400034014054
:101AD0000004004000080040000C004000100040DE
:101AE0000014004000400140004401400048014013
:101AF0004FF6FF71818000210180C1804180017219
:101B00007047000010B501210848FFF77DFE002155
:101B10000648FFF799FF012211460448FFF78BFFA3
:101B200001210248FFF776FE10BD0000002C0140A5
:101B300010B5FFF7C1FC10BD10B540F225510748A4
:101B400000F054FA012808D1044800F00BFBC4B29D
:101B500040F22551014800F007FA10BD004C00404A
:101B600010B540F225510A4800F040FA012808D18A
:101B700040F22551064800F0F7F9054800F0F2FA66
:101B8000C4B240F22551024800F0EEF910BD000049
:101B90000050004010B540F22551044800F026FAEC
:101BA00018B1024800F0DEFAC4B210BD003801409E
:101BB00010B586B00446012144F20400FFF71AFA7A
:101BC00001210846FFF716FA4FF40070ADF8140033
:101BD00003208DF8160018208DF8170005A91C4861
:101BE000FEF782FD4FF48060ADF8140004208DF8FC
:101BF000170005A91648FEF777FD25208DF800008F
:101C000003208DF801008DF8020001208DF80300FB
:101C10006846FFF7EFF801940020ADF80800ADF832
:101C20000A00ADF80C00ADF810000C20ADF80E0065
:101C300001A9084800F02AFA012240F2255105487E
:101C400000F0FEF90121034800F0B7F906B010BD1D
:101C50000008014000380140F0B587B004460D4649
:101C600016461F4600F050F801214804FFF7A2F97C
:101C70000020ADF80000ADF802004FF40070ADF8A0
:101C800004000020ADF8060069461E4800F084F903
:101C90000294ADF80C50ADF80E60ADF81070002055
:101CA000ADF814000C20ADF8120002A9154800F0A0
:101CB000EDF94FF4E060FFF7D5F826208DF8180015
:101CC00000208DF8190001208DF81A008DF81B00F6
:101CD00006A8FFF78FF840F225510A4800F044F9B2
:101CE000012240F22551074800F0AAF9012240F2F2
:101CF0002661044800F0A4F90121024800F05DF9D2
:101D000007B0F0BD0044004008B501210420FFF7F2
:101D100071F901212020FFF76DF90420ADF80000D2
:101D200018208DF8030003208DF802006946114841
:101D3000FEF7DAFC0820ADF8000004208DF803005F
:101D400003208DF8020069460A48FEF7CDFC80208A
:101D5000ADF8000010208DF8030003208DF802007C
:101D600069460548FEF7C0FC80210348FEF747FDA1
:101D700008BD0000000801400014014010B540F209
:101D80002551114800F032F958B140F225510E4862
:101D900000F0F3F840F225510B4800F0E5F8FEF7AB
:101DA0008FFD40F22661084800F020F958B140F25A
:101DB0002661054800F0E1F840F22661024800F093
:101DC000D3F8FEF7C9FD10BD0044004070B50546CC
:101DD0000C4655B1012240F22551144800F030F96B
:101DE00080211348FEF70DFD09E0002240F2255145
:101DF0000E4800F025F980210D48FEF700FD54B192
:101E0000012240F22661094800F01AF980210848B1
:101E1000FEF7F5FC09E0002240F22661034800F0DD
:101E20000FF980210248FEF7ECFC70BD0044004031
:101E3000001401400148008870470000044400403D
:101E400010B5044680210448FEF7D9FC214603481A
:101E500000F08DF910BD0000001401400044004066
:101E600010B540F22551134800F0C0F800B31148F6
:101E700000F078F9C4B21048007810B9552C00D0A1
:101E800010BD0D4801780078401C0B4A10700B48BB
:101E90004454104600780B2805D1084800F0C6F9D4
:101EA00000200549087040F22551024800F05CF816
:101EB00000BFE5E700480040E00200208007002066
:101EC00010B586B0044601210820FFF793F80121E0
:101ED0008804FFF76FF84FF48060ADF8140003201A
:101EE0008DF8160018208DF8170005A91C48FEF77C
:101EF000FBFB4FF40060ADF8140004208DF81700D0
:101F000005A91748FEF7F0FB27208DF800000320F5
:101F10008DF801008DF8020001208DF8030068465D
:101F2000FEF768FF01940020ADF80800ADF80A0044
:101F3000ADF80C00ADF810000C20ADF80E0001A9B2
:101F4000084800F0A3F8012240F22551054800F0AE
:101F500077F80121034800F030F806B010BD00000A
:101F6000000C01400048004001F40072B2F5007F0F
:101F700000D100BFCA430280704710B50022002381
:101F800040F66A14A14200D100BF0A120124944015
:101F9000A3B2DC43048010BD10B502460020108AB5
:101FA0004FF2FF0318400B884C8823438C8823434F
:101FB000CC8823431843108210BD21B1828942F49A
:101FC0000052828104E082894DF6FF731A408281BB
:101FD000704702460020B1F5007F00D100BF138892
:101FE0000B400BB1012000E00020704770B50246A5
:101FF000002400230025002040F66A16B14200D1DB
:1020000000BFC1F3421501F01F03012606FA03F3D6
:10201000012D02D19689334006E0022D02D1168AA5
:10202000334001E0968A33400C12012606FA04F48C
:102030001688344013B10CB1012000E0002070BDBF
:10204000F0B50346002400260025002040F66A175C
:10205000B94200D100BF1846C1F3421401F01F0677
:10206000012707FA06F5012C01D10C3004E0022CFF
:1020700001D1103000E014301AB107682F43076017
:1020800002E00768AF430760F0BD00002DE9F047AC
:1020900086B005460E460024A24600BFA146002792
:1020A000B08900B100BF2F462C8A4CF6FF70044067
:1020B000F08804432C82AC894EF6F3100440B088BB
:1020C00031890843718908430443AC81AC8A4FF6D7
:1020D000FF400440B0890443AC8201A8FFF702F836
:1020E0001F48874202D1DDF810A001E0DDF80CA006
:1020F000A88900F4004040B10AEBCA0000EB0A10C6
:1021000031684900B0FBF1F807E00AEBCA0000EBC8
:102110000A1031688900B0FBF1F86420B8FBF0F0D8
:1021200004012009642101FB1089A88900F4004002
:1021300040B1322000EBC900B0FBF1F000F0070025
:10214000044308E0322000EB09106421B0FBF1F0F9
:1021500000F00F0004432C8106B0BDE8F0870000BA
:102160000038014001468888C0F308007047C1F379
:1021700008028280704700BFFEE730380A2801D28B
:10218000012070470020704700BF704770B50446BB
:102190000D46E1B20548FFF7EAFF00BF8021034882
:1021A000FFF717FF0028F9D0204670BD0038014026
:1021B000FFF776F90020FEF795FC4FF4E130FFF7CA
:1021C000F7FC4FF4E130FFF77BFEFEF71FFB132116
:1021D00040F60F60FFF71EFA1EE0FEF71FFC0F48E7
:1021E0000078012816D124221021FEF73BFC0C496F
:1021F000087008460078012803D10AA0FEF730F8DD
:1022000005E00748007810B907A0FEF729F800207C
:1022100002490870FEF74AFEDFE7000002000020D6
:102220000000002031310000303000002DE9FC4773
:1022300082469AF80000552801D0BDE8FC879AF83C
:10224000010051287DD19AF80200854908709AF85A
:10225000030084490870084600788149097840EAFB
:10226000012000B2804908800846B0F9000000F063
:10227000ADFA00227D4BCDE9000100F04FF9804618
:1022800000227B4B00F0BAFA06467A4A7A4B00F0FD
:10229000B5FA044600F010F9784908609AF804008D
:1022A000774908709AF80500764908700846007862
:1022B0007349097840EA012000B26B49088008465A
:1022C000B0F9000000F082FA80460022674B00F06F
:1022D00025F90022664BCDE9000100F08FFA064691
:1022E000644A654B00F08AFA044600F0E5F8634959
:1022F00048609AF80600644908709AF80700634934
:102300000870084600786049097840EA012000B268
:10231000554908800846B0F9000000F057FA064613
:102320000022524B00F0FAF880460022504B00F099
:1023300065FA04464F4A504B00F060FACDE90001BF
:1023400000E017E000F0B8F84C4988609AF80910EE
:102350009AF8082041EA022108B200F037FA06464E
:1023600000224B4B00F0DAF8044600F0A5F849498A
:10237000086072E09AF8010053286ED19AF80200C2
:10238000454908709AF803004449087008460078E7
:102390004149097840EA012000B2334908800846E3
:1023A000B0F9000000F012FA804600222F4B00F036
:1023B000B5F8064600223A4B00F020FA044600F039
:1023C0007BF8384908609AF80400374908709AF891
:1023D000050036490870084600783349097840EA14
:1023E000012000B2204908800846B0F9000000F042
:1023F000EDF9804600221D4B00F090F806460022C1
:10240000274B00F0FBF9044600F056F825494860D8
:102410009AF80600264908709AF8070025490870BE
:10242000084600782249097840EA012000B20E49A6
:1024300008800846B0F9000000F0C8F98046002284
:102440000A4B00F06BF806460022154B00F0D6F957
:10245000044600F031F81349886000BFEDE6000043
:10246000C9020020C8020020DA0200200000E0407B
:10247000000030409A999999999923405C0700206F
:10248000CB020020CA020020CD020020CC02002096
:1024900000005940DC020020D5020020D4020020B8
:1024A0000080664074070020D7020020D60200207A
:1024B000D9020020D802002021F00042A2F160528F
:1024C000B2F5801F01F0004328BFD2F17F6C0BD919
:1024D0005FEA001C43EAC20242EB507018BF70472B
:1024E00028BF20F001007047B2F5801FBCBF18461E
:1024F00070474FEA410C1CF5001F02D2084600F05D
:102500007BBA70B500F024FA00000089FFF7F6BF2F
:102510004FF00040A0F58000704700002DE9C04159
:1025200030B4DFF8A0C23CEA111418BF3CEA13141F
:1025300000F0EC8081EA03051CEA111444EAD5742A
:1025400018BF1CEA131500F0C780A4EB05044FF078
:10255000004545EAC12145EAC32341EA505143EA17
:10256000525304F17F74994204F500344FEAC020BD
:102570004FEAC22208BF904200F09C804FEA1365E8
:102580000FF24016765D4FEA134506FB05F7C7F1DB
:10259000807706FB07F74FEAD737A7FB0368764239
:1025A000C8F58038A7FB06CE38BFA8F1010807FBA5
:1025B00008E64FF0000EA6FB028CE6FB03CEDCF132
:1025C000000CCEF1004E38BFAEF1010EA6FB0C5848
:1025D0004FF000074FF00005E6FB0E87A1FB08C691
:1025E000A0FB07CE16EB0E0645F10005E1FB0765E3
:1025F00015F1E04E7EBFA4F580345FEA46066D41DA
:1026000016F1800745F100054FEA17274FEA0666E5
:1026100047EA0567A6F1DE46B6F1805F4FEA152569
:102620001FD9384624F0010C05EBC471BCF1FE6FD4
:1026300001EB0C1102D8F0BCBDE8008124425CBF64
:1026400001F5801E9EEAC47F02D4F0BCBDE8008183
:10265000244238D4F0BCA1F1C041BDE8004100F0F3
:10266000C5B94FEAD22242EA43524FEAD323A7FB2D
:1026700002864FEAD02040EA415007FB03661EEA7B
:102680000E0F4FEAD12105FB026658BFA6EB00569C
:10269000B6EB00564FEA520E4EEAC37E18EB0E0E12
:1026A00056EB530EBDD518EB02085E417F1C55F169
:1026B0000005B6E74FF480154FF000074FF0000615
:1026C0004FF00008ADE7F0BC4FF0000001F1C04151
:1026D00001F00041BDE8008111EA0C1F0CEA13155E
:1026E00000D00CE013EA0C1F00F025804FF0000032
:1026F000F0BC81EA030101F00041BDE80081F0BCBB
:10270000BDE8004181EA030100F070B9F0BCBDE80A
:10271000004170B500F01CF9097EFC3E00F007B8DE
:1027200081EA03014FF0000001F00041704781EAA7
:10273000030100F05BB9F0BCBDE800414FF00000C0
:1027400021497047FFFDFBF9F7F5F4F2F0EEEDEBF0
:10275000E9E8E6E4E3E1E0DEDDDBDAD8D7D5D4D39F
:10276000D1D0CFCDCCCBCAC8C7C6C5C4C2C1C0BFEB
:10277000BEBDBCBBBAB9B8B7B6B5B4B3B2B1B0AFF1
:10278000AEADACABAAA9A8A8A7A6A5A4A3A3A2A1D5
:10279000A09F9F9E9D9C9C9B9A9999989797969590
:1027A00095949393929191908F8F8E8E8D8C8C8B2C
:1027B0008B8A8989888887878685858484838382B4
:1027C000828181800000FF070000F87F10F0004246
:1027D00048BF4042B0FA80F310FA03F10AD0C3F1C7
:1027E0001D0303F580634FEA415002EB035202EBF5
:1027F000D12170474FF0000070470000DFF848C15A
:1028000070B51CEA111E1EBF1CEA13159EEA0C0FC0
:1028100095EA0C0F00F06F8081EA030423EA4C1361
:102820004EEAD47E21EA4C1141F4801143F4801326
:10283000AE44A1FB024CA0FB0365AEF17F7E3619CE
:1028400055EB0C05A1FB034C4CF10003A0FB021C53
:1028500016EB0C06654153F10003094218BF46F020
:10286000010613F4007F0BD14FEA03314FEA053024
:10287000340341EA155140EA16506FF003020AE0B2
:102880004FEAC3214FEAC520F40241EA555140EA1C
:1028900056506FF0020202EB2E4201EB025585EA20
:1028A000CE710AD05FEA440C18BF24F0004450F106
:1028B000000041F1000120EAD47040F2FE7C624544
:1028C00000D270BDA84214BF4FF080444FF0404486
:1028D000002E08BF0024BEF1806FA8BFA1F1C04147
:1028E000BDE8704080F282804FF0000001F1C041ED
:1028F00001F0004170479EEA0C0F0CEA131518BF57
:1029000095EA0C0F06D04FF0000081EA030E0EF09E
:10291000004170BD00F01CF88900013E00F007B8CE
:1029200000F009B84FEA430C5FEA5C5C08D081EA2A
:10293000030100F05BB84FEA410C5FEA5C5CF6D142
:102940004FF00000014970470000FF070000F87FCA
:102950000EF1020E2EF0030E5EF8046B364205D423
:10296000012A43EB030515F5001F12D8012841EB9E
:10297000010C1CF5001F0CD80ED14FEAD17C15F5C7
:10298000001F0CEB4C0C0CF1020C08BF4CEBD37C81
:1029900004E04FF0080C01E04FEAD37C0CEB4C054F
:1029A00026FA05F606F00706B6F1040C06D20EEB81
:1029B000860CBDE870404CF0010C6047DFE80CF07D
:1029C000090B02024FF000414FF00000A1F5002179
:1029D00070BD19461046012851EB010418BFD4F50B
:1029E000001484BF002001F0004170BD0808A0F56C
:1029F00000114FEA31017047FF2141EAD050C00574
:102A000070473031323334353637383941424344F8
:102A10004546403058003031323334353637383956
:102A2000616263646566403078000400000800005D
:102A30000000000000020001000010005C2A0008F5
:102A400000000020FC0200006C010008E02B0008E0
:102A5000FC020020F40A0000C8010008712808C127
:102A6000814001C0804104690C2908E918A91C09AA
:102A70001A30091638093660092E70092F6000FFD8
:102A800000C0C101C30302C2C60607C705C5C4040E
:102A9000CC0C0DCD0FCFCE0E0ACACB0BC90908C87E
:102AA000D81819D91BDBDA1A1EDEDF1FDD1D1CDC6E
:102AB00014D4D515D71716D6D21213D311D1D010DE
:102AC000F03031F133F3F23236F6F737F53534F4CE
:102AD0003CFCFD3DFF3F3EFEFA3A3BFB39F9F8383E
:102AE00028E8E929EB2B2AEAEE2E2FEF2DEDEC2C2E
:102AF000E42425E527E7E62622E2E323E12120E09E
:102B0000A06061A163A3A26266A6A767A56564A48D
:102B10006CACAD6DAF6F6EAEAA6A6BAB69A9A868FD
:102B200078B8B979BB7B7ABABE7E7FBF7DBDBC7CED
:102B3000B47475B577B7B67672B2B373B17170B05D
:102B4000509091519353529296565797559594544D
:102B50009C5C5D9D5F9F9E5E5A9A9B5B99595898BD
:102B6000884849894B8B8A4A4E8E8F4F8D4D4C8CAD
:102B7000448485458747468682424383418180223B
:102B80004013FC021220021E01291F139C051B206A
:102B90002C2CB20369140A110614021310293C13D9
:102BA000190B2A08301AA70829241A6F08813380C4
:102BB00025324B229633C0DA32E11AC27E1AF4046F
:102BC0003AE87A120632042939022A202D0102033A
:102BD00004040009000607080902040608000000B2
:040000050800021DD0
:00000001FF
