:020000040800F2
:1000000008090020DD01000897090008E50700083D
:10001000C5080008890600081D1F00080000000030
:10002000000000000000000000000000291000088F
:100030008D06000800000000B10C0008091200083D
:10004000F7010008F7010008F7010008F7010008B0
:10005000F7010008F7010008F7010008F7010008A0
:10006000F7010008F7010008F7010008F701000890
:10007000F7010008F7010008F7010008F701000880
:10008000F7010008F7010008F7010008F701000870
:10009000F7010008F7010008F7010008F701000860
:1000A000F70100086D120008F7010008F7010008C9
:1000B000F7010008F7010008F7010008F701000840
:1000C000F7010008F7010008F7010008F701000830
:1000D000F70100089D17000821190008111A0008EF
:1000E000F7010008F7010008F7010008F701000810
:1000F000F7010008F7010008F7010008F701000800
:10010000F7010008F7010008F7010008F7010008EF
:10011000F701000869170008F7010008F701000857
:10012000F7010008F7010008F7010008F7010008CF
:1001300000F002F800F042F80AA090E8000C8244B7
:100140008344AAF10107DA4501D100F037F8AFF294
:10015000090EBAE80F0013F0010F18BFFB1A43F0A5
:1001600001031847D4290000F4290000103A24BFE5
:1001700078C878C1FAD8520724BF30C830C144BF0C
:1001800004680C607047000000230024002500264E
:10019000103A28BF78C1FBD8520728BF30C148BFEA
:1001A0000B607047642900F06F80782900F0A88008
:1001B000002070471FB51FBD10B510BD00F020FA1C
:1001C0001146FFF7F7FF01F00FFF00F03EFA03B40E
:1001D000FFF7F2FF03BC01F0AAFE000009488047C8
:1001E00009480047FEE7FEE7FEE7FEE7FEE7FEE719
:1001F000FEE7FEE7FEE7FEE704480549054A064B31
:10020000704700000D1200083101000808030020AB
:10021000080900200805002008050020704700009C
:100220000FB4044910B503AA029800F0B7F910BC46
:100230005DF814FB3800002070B50446856900683D
:10024000C10601D5302600E02026C00707D070BDCA
:10025000D4E9012130469047206A401C20626D1E7F
:10026000F6D570BD70B5044685690078C00707D122
:1002700070BDD4E9012120209047206A401C2062F3
:100280006D1EF6D570BD00002DE9F0410646002434
:1002900010687529314616A510D0AFF300800028EC
:1002A00002DA404213A507E031688A0701D512A59A
:1002B00002E0490704D511A5012401E0AFF3008055
:1002C00000210A2206F1240709E0B0FBF2FCB0FB92
:1002D000F2F302FB1C00303078541846491C002809
:1002E000F3D123462A463046BDE8F04100F0FCB881
:1002F000000000002D0000002B0000002000000086
:1003000070B504460D4621461068AFF30080218881
:10031000090502D50F4A7A4402E00E4A7A440E32A9
:10032000002104F1240305E000F00F060009965DAA
:100330005E54491C0028F7D120780023000704D51B
:10034000702D02D009B1022311322046BDE8704061
:1003500000F0CAB8E42700002DE9F05F89460446A2
:100360004FF0000ADFF874B1FB44C0F820A020462B
:10037000E1688847002874D0252806D0D4E90121F7
:100380009047206A401C2062F1E700265F46204625
:10039000E16888472028054607DB312D05D278190A
:1003A00010F8200C08B10643F1E7B00701D526F09C
:1003B0000406C4F81CA00027C4F818A02A2D09D0F0
:1003C000284601F0ADFD38B304EB8708303DC8F88E
:1003D000185019E059F8041B204604EB870291617C
:1003E000E1688847012F054618D1E069002820DA26
:1003F00026F020061DE0D8F8180000EB800005EB81
:1004000040003038C8F818002046E16888470546A3
:1004100001F086FD0028EED1012F0AD02E2D08D143
:100420002046E16888477F1C0546022F46F02006DB
:10043000C4DBA069002803DA404246F00106A0614F
:10044000F00701D026F010066C2D0BD0682D09D0D6
:100450004C2D39D06A2D35D0742D35D07A2D33D02E
:1004600016E038E0E1682F4620468847B842054646
:1004700009D16C2F26D04FF48060E16806432046F6
:100480008847054604E06C2F1AD04FF4807006436D
:100490000DB3A5F14100192802D8203546F40066B5
:1004A0004A462946204626604E46FFF77BFE80B12D
:1004B00001280BD0F61D26F0070000F1080956E7C9
:1004C0004020E4E78020D8E70020D6E706F10409C1
:1004D0004DE7284652E7206ABDE8F09FBA270000A2
:1004E00070477047704770472DE9F0470D469946B1
:1004F0009246044600F124080168880604D5E069A4
:1005000021F01001216000E00120A84201DD471B1D
:1005100000E00027A1697A1902EB0900081AA0611E
:100520002078C00602D42046FFF786FE002608E0A9
:10053000D4E901211AF806009047206A401C761C75
:1005400020624E45F4DB2078C0060AD52046FFF72E
:1005500073FE06E0D4E9012130209047206A401C58
:100560002062381EA7F10107F4DC07E0D4E901217D
:1005700018F805009047206A401C2062281EA5F14B
:100580000105F3DC2046FFF76DFE2078000602D55A
:100590000220BDE8F0870120FBE70000074B70B5A3
:1005A0000D467B4400F011F80446284600F020F880
:1005B00010B14FF0FF3070BD204670BD1F1A000013
:1005C00001694A1C02610878704700B58FB0CDE917
:1005D00001310021059105497944CDE90310114607
:1005E0006846FFF7B9FE0FB000BD0000E5FFFFFF52
:1005F000007B00F08000704700487047A802002090
:100600007546FFF7F9FFAE4605006946534620F0F0
:100610000700854618B020B5FFF7EEFDBDE8204085
:100620004FF000064FF000074FF000084FF0000BAE
:1006300021F00701AC46ACE8C009ACE8C009ACE861
:10064000C009ACE8C0098D46704710B50446AFF349
:1006500000802046BDE81040FFF7B9BD08B5012174
:10066000802000F0D1FB40F2FF30ADF800001020F8
:100670008DF8030003208DF802006946014800F060
:1006800006F808BD001C014000BFFEE770472DE9D9
:10069000F041024600250026002000230024002708
:1006A00091F803C00CF00F0591F803C00CF0100C8A
:1006B000BCF1000F03D091F802C04CEA050591F897
:1006C00000C0BCF1000F31D0146800202BE04FF0C7
:1006D000010C0CFA00F3B1F800C00CEA03069E42CC
:1006E00020D183004FF00F0C0CFA03F7BC4305FA3E
:1006F00003FC4CEA040491F803C0BCF1280F06D1B6
:100700004FF0010C0CFA00FCC2F814C00AE091F89A
:1007100003C0BCF1480F05D14FF0010C0CFA00FCEE
:10072000C2F810C0401C0828D1D31460B1F800C032
:10073000BCF1FF0F34DD546800202EE000F1080CFE
:100740004FF0010808FA0CF3B1F800C00CEA0306F8
:100750009E4221D183004FF00F0C0CFA03F7BC43EB
:1007600005FA03FC4CEA040491F803C0BCF1280F1D
:1007700005D100F1080C08FA0CF8C2F8148091F8C1
:1007800003C0BCF1480F07D100F1080C4FF001087D
:1007900008FA0CF8C2F81080401C0828CED3546028
:1007A000BDE8F081416170470161704770B5024654
:1007B0000C46FF25FF2309E012F8010B80EA050132
:1007C0000648405C80EA03050548435C201EA4F10E
:1007D0000106F4B2F0D143EA052070BDFE280008FE
:1007E000FE29000800BFFEE708B50121482000F0FF
:1007F0000BFB2020ADF8000010208DF80300032033
:100800008DF8020069460948FFF741FF202107489B
:10081000FFF7CAFF2020ADF8000069460448FFF743
:1008200036FF20210248FFF7BFFF08BD000C014042
:100830000018014010B510210348FFF7B3FF202135
:100840000148FFF7B1FF10BD001C014010B5102199
:100850000348FFF7A9FF20210148FFF7A3FF10BDC0
:10086000001C014010B510210348FFF79BFF202119
:100870000148FFF797FF10BD001C014010B5012192
:100880000348FFF78FFF02210148FFF78DFF10BDDE
:10089000001C014010B501210348FFF785FF02212C
:1008A0000148FFF77FFF10BD001C014010B501217A
:1008B0000348FFF777FF02210148FFF773FF10BDE0
:1008C000001C014000BFFEE770B506460C46C4B9E7
:1008D000A1B22C4800F0B5FEA1B22A4800F0B3FE48
:1008E000A1B2284800F0B1FEA1B2264800F0AFFE48
:1008F000FFF7DCFFFFF7B6FF00F08AFB00F064FBB8
:1009000070BD204600F040F80546012E06D0022EAC
:1009100010D0032E1AD0042E30D123E0002C02DD9B
:10092000FFF7B8FF01E0FFF7A9FFA9B2154800F0F3
:1009300088FE24E0002C02DD00F05EFB01E000F008
:100940004FFBA9B20F4800F07EFE18E0002C02DD3C
:10095000FFF77CFF01E0FFF76DFFA9B2094800F047
:1009600074FE0CE0002C02DD00F022FB01E000F040
:1009700013FBA9B2034800F06AFE00E000BF00BF0D
:1009800000BFBDE7003401400146002901DA4842BA
:1009900000E008467047704770B5002100230F2221
:1009A000C47804B3154C246804F4E064C4F5E0642E
:1009B000210AC1F10403CA40447804FA03F184789F
:1009C0001440214309010E4C0678A155047804F027
:1009D0001F050124AC4005786D11AD0005F1E0253F
:1009E000C5F8004109E0047804F01F050124AC407B
:1009F000044D0678761145F8264070BD0CED00E0F8
:100A000000E400E080E100E030B589B005460C4626
:100A10000121480300F0F8F90121102000F0F4F959
:100A20004020ADF8200018208DF8230003208DF819
:100A3000220008A94748FFF72AFE0121102000F0F4
:100A4000E3F98020ADF8200018208DF82300032062
:100A50008DF8220008A93F48FFF719FE0121102058
:100A600000F0D2F94FF48070ADF8200018208DF816
:100A7000230003208DF8220008A93648FFF707FE5F
:100A80000121102000F0C0F94FF40070ADF82000F3
:100A900018208DF8230003208DF8220008A92D4886
:100AA000FFF7F5FDADF81850ADF814400020ADF893
:100AB0001A00ADF8160005A9274800F0CBFD60200C
:100AC000ADF804000120ADF806000020ADF80A00E2
:100AD000ADF80C00ADF8100001A91F4800F056FC5D
:100AE00001A91D4800F0A8FC01A91B4800F004FD65
:100AF00001A9194800F05AFD0121174800F01CFC1B
:100B00000821154800F08EFC0821134800F0E6FC8F
:100B10000821114800F040FD08210F4800F084FD35
:100B200001210D4800F0EAFB01210B4800F0F8FB21
:100B30000021094800F085FD0021074800F083FDF1
:100B40000021054800F081FD0021034800F07FFDF1
:100B500009B030BD00100140003401402DE9F047DC
:100B600004460F4694F8009094F801A0A678BAF1D4
:100B7000030F52D1701D874206D03A46711D28A03E
:100B8000FFF74EFBBDE8F087304606EBD071C1F3AE
:100B900047012F4A117010460078242808DD2422CE
:100BA0002B4801782BA0FFF73BFB24202849087035
:100BB000002510E0032000EB450000F0FF0808F1DD
:100BC0000100205C14F8081040EA01202C4921F8AB
:100BD0001500681CC5B21E4800788542EADBB9F1F1
:100BE000010F09D0B9F1020F0AD0B9F1030F0BD0F0
:100BF000B9F1040F10D10BE00120224908700BE07D
:100C000002202049087007E003201E49087003E015
:100C100004201C49087000BF00BF00BFB2E70000FD
:100C200064617461206C656E677468206E6F7420F7
:100C300073616D6521207461726765743A20256463
:100C40002C20666163743A2025640D0A00000000C0
:100C500044000020636F756E74206F766572666C59
:100C60006F77206D61782120726563656976653ADA
:100C70002025642C206D61783A2025640D0A00003F
:100C8000FC0000204500002010B50246012901DBD0
:100C9000042901DD002010BD5088148840EA044377
:100CA000481E024C44F820301846F4E74802002061
:100CB000704700004748007800287CD00020454954
:100CC0000870454908704549087045490860486002
:100CD0008860C8600846006842494978084340492E
:100CE0000860084600683F49897840EA01203C498D
:100CF0000860084600683B49C97840EA0140384925
:100D00000860084600683749097940EA01603449BB
:100D100008600846406833494979084330494860CB
:100D2000084640682F49897940EA01202C494860EB
:100D3000084640682B49C97940EA01402849486083
:100D4000084640682749097A40EA0160244948601A
:100D5000084680682349497A084321498860084643
:100D600080682049897A40EA01201D498860084648
:100D700080681C49C97A40EA0140194988600846E0
:100D800080681849097B40EA016015498860084677
:100D9000C0681449497B08431149C8600846C068C7
:100DA0001049897B40EA01200D49C8600846C068A7
:100DB0000C49C97B00E00BE040EA01400849C860EB
:100DC0000846C0680749097C40EA01600449C860D8
:100DD000704700004D0000204B0000204C00002018
:100DE000820200209202002029B1064AD269024301
:100DF000044BDA6104E0034AD2698243014BDA61B1
:100E0000704700000010024029B1064A926902436F
:100E1000044B9A6104E0034A92698243014B9A6150
:100E2000704700000010024030B50021002200246D
:100E300000232D4D6D6805F00C0121B1042905D06A
:100E4000082923D105E0294D056022E0274D0560E2
:100E50001FE0254D6D6805F47012234D6D6805F493
:100E60008034022505EB92421CB9214D55430560A3
:100E70000BE01D4D6D6805F400351DB11C4D55434B
:100E8000056002E0194D5543056002E0174D05600D
:100E900000BF00BF144D6D6805F0F0010909154D44
:100EA0006B5C0568DD4045600F4D6D6805F4E061E1
:100EB000090A104D6B5C4568DD4085600A4D6D6820
:100EC00005F46051C90A0B4D6B5C4568DD40C56097
:100ED000054D6D6805F44041890B074D6B5CC56895
:100EE000B5FBF3F5056130BD0010024000127A0039
:100EF00000093D004E0000205E00002008B50121E1
:100F00002020FFF781FF8020ADF8000010208DF831
:100F1000030003208DF8020069460348FFF7B7FB82
:100F20000248006808BD0000001401409C81224274
:100F30002DE9FC4706460F4614461D46012014497C
:100F400008708DF800608DF8017020128DF8020095
:100F5000E0B28DF8030028128DF80400E8B28DF895
:100F6000050006216846FFF721FC8046C8F3072AE2
:100F700008F0FF098DF806A08DF807900821684653
:100F800000F090F80120034981F86600BDE8FC8775
:100F9000460000209400002010B540210348FFF7D0
:100FA00001FC80210148FFF7FFFB10BD001C014040
:100FB00010B540210348FFF7F7FB80210148FFF7F8
:100FC000F1FB10BD001C014010B540210348FFF7A4
:100FD000E9FB80210148FFF7E5FB10BD001C014043
:100FE00010B504210348FFF7DDFB08210148FFF796
:100FF000DBFB10BD001C014010B504210348FFF7C6
:10100000D3FB08210148FFF7CDFB10BD001C0140B8
:1010100010B504210348FFF7C5FB08210148FFF77D
:10102000C1FB10BD001C01407047000010B501203D
:1010300018490870FF2081F8290017480068C1F896
:10104000010015484068C1F8050013488068C1F8E0
:10105000090012480068C1F80D0010484068C1F846
:1010600011000E488068C1F815000D480068C1F8ED
:1010700019000B484068C1F81D0009488068C1F894
:1010800021000748C068C1F825002A21014800F066
:101090002FFC10BD58020020640000207C000020BE
:1010A0004802002070B505460E4601200F49086031
:1010B000052000F061FF00240CE0295D0C4800F0E1
:1010C00072FE00BF40210A4800F0A0FD0028F9D0C0
:1010D000601CC4B2B442F0DB052000F04DFF0020DC
:1010E000044981F864000149086070BD9C81224276
:1010F000004400409400002010B500F001F810BD3D
:101100000CB50020019000903348006840F4803016
:101110003149086000BF3048006800F4003000909A
:101120000198401C0190009818B90198B0F5A06F83
:10113000F1D12948006800F4003010B1012000907E
:1011400001E0002000900098012843D12348006866
:1011500040F01000214908600846006820F00300B4
:1011600008600846006840F0020008601A484068BD
:10117000194948600846406848600846406840F49D
:10118000806048600846406820F47C10486008464B
:10119000406840F4E81048600846006840F08070FD
:1011A000086000BF0C48006800F000700028F9D00B
:1011B0000948406820F00300074948600846406835
:1011C00040F00200486000BF0348406800F00C0097
:1011D0000828F9D10CBD0000001002400020024098
:1011E000042808D14FF0E021096941F004014FF0D3
:1011F000E022116107E04FF0E021096921F00401CC
:101200004FF0E022116170477047000010B513489D
:10121000006840F001001149086008464068104924
:1012200008400E494860084600680E4908400B49CE
:1012300008600846006820F480200860084640687E
:1012400020F4FE0048604FF41F008860FFF754FF51
:101250004FF000600449086010BD0000001002401B
:101260000000FFF8FFFFF6FE08ED00E010B50121D9
:101270001C4800F070F8002833D0012000F01CFE5C
:1012800019480078401C1849087018480078401C1C
:1012900016490870144800780A2814DB0020124907
:1012A000087013480078401C1149087008460078FF
:1012B000042801DD012001E00D4800780C49087088
:1012C00001200C49087009480078292805DB002016
:1012D000064908700120084908700121014800F002
:1012E0001CF810BD002C01403F00002040000020F1
:1012F0003E0000203C0000203D00002021B102887B
:1013000042F08002028004E002884FF67F731A40A8
:1013100002807047CA4302827047CA430282704704
:1013200021B1028842F00102028004E002884FF6F7
:10133000FE731A400280704731B1B0F8442042F485
:101340000042A0F8442005E0B0F84420C2F30E02A9
:10135000A0F84420704730B5024600200023002446
:10136000158A05EA0103958905EA010413B10CB158
:10137000012000E0002030BD1AB183890B43838136
:1013800002E083898B4383817047000070B500249D
:1013900000220023058C4FF6FE7635400584028C32
:1013A0008388048B4FF68F752C40B51E2C400D881A
:1013B0002C43751E2A400D892A434D882A43144D1B
:1013C000A8420BD0134DA84208D0134DA84205D017
:1013D000124DA84202D0124DA84213D14FF6F77514
:1013E0002A404D892A434FF6FB752A408D882A43AF
:1013F0004FF6FF652B404FF6FF552B408D892B4351
:10140000CD892B4383800483CD888586028470BD7B
:10141000002C0140003401400040014000440140E4
:10142000004801400A460021018B4FF6F77319402E
:10143000114301837047000070B50024002200238F
:10144000058C4FF6EF7635400584028C8388048B3B
:1014500048F6FF752C404FF6FF452C400D884FF69F
:10146000FF7606EA05252C434FF6DF752A400D89E5
:1014700006EA05152A434D8806EA05152A43154D47
:10148000A84202D0144DA8421DD14FF67F752A40C4
:101490004D894FF6FF7606EA05152A434FF6BF75CC
:1014A0002A408D8806EA05152A434FF6FF352B4062
:1014B0004FF2FF752B408D8906EA85052B43CD89B8
:1014C00006EA85052B4383800483CD880587028443
:1014D00070BD0000002C0140003401400A4600218C
:1014E000018B4FF2FF7319404FF6FF7303EA02239B
:1014F000194301837047000070B5002400220023C7
:10150000058C4FF6FF6635400584028C8388848BFA
:101510004FF68F752C404FF6FC752C400D882C43F0
:101520004FF6FF552A400D894FF6FF7606EA05254E
:101530002A434D8806EA05252A43154DA84202D0C4
:10154000144DA8421DD14FF2FF752A404D894FF628
:10155000FF7606EA05252A434FF6FF352A408D8897
:1015600006EA05252A434EF6FF752B404DF6FF751A
:101570002B408D8906EA05152B43CD8906EA051512
:101580002B4383808483CD888587028470BD0000CF
:10159000002C0140003401400A460021818B4FF6A7
:1015A000F7731940114381837047000070B5002222
:1015B00000230024058C4EF6FF7635400584038C0D
:1015C0008488828B48F6FF752A404FF6FF452A40F3
:1015D0000D884FF6FF7606EA05252A434DF6FF757E
:1015E0002B400D8906EA05352B434D8806EA053563
:1015F0002B430B4DA84202D00A4DA84208D14BF60E
:10160000FF752C408D894FF6FF7606EA85152C4331
:1016100084808283CD88A0F84050038470BD000090
:10162000002C0140003401400A460021818B4FF21A
:10163000FF7319404FF6FF7303EA022319438183B6
:101640007047818670470187704781877047A0F88F
:1016500040107047002202881D4B98420ED01D4B4F
:1016600098420BD0B0F1804F08D01B4B984205D068
:101670001A4B984202D01A4B984204D14FF68F73FE
:101680001A404B881A43174B984207D0164B984282
:1016900004D04FF6FF431A40CB881A4302808B8850
:1016A00083850B8803850A4B98420BD0094B9842DF
:1016B00008D00E4B984205D00D4B984202D00D4BEE
:1016C000984201D10B7A0386012383827047000080
:1016D000002C01400034014000040040000800409C
:1016E000000C004000100040001400400040014089
:1016F00000440140004801407FB504460D460121E9
:10170000C802FFF781FBADF80840681E80B2ADF853
:1017100004000020ADF80A00ADF806008DF80C00BA
:1017200001A91048FFF796FF01210E48FFF7F2FDCF
:10173000012241210B48FFF71FFE19208DF8000000
:1017400001208DF8010003208DF8020001208DF8A2
:1017500003006846FFF720F901210248FFF7E0FD8A
:101760007FBD0000002C014010B540F225510A4811
:1017700000F059FA012808D140F22551064800F03E
:1017800021FA054800F00AFBC4B240F22551024894
:1017900000F018FA10BD00000050004010B540F2F3
:1017A0002551244800F03FFA00283CD0214800F0A1
:1017B000F5FAC4B22048007810B1012832D109E00E
:1017C000012C06D11D48047001201D4908701A49DA
:1017D000087027E01A48007814281DDA17481849BD
:1017E0000978445416480078401C1549087008468A
:1017F0000078122815DB1148407CFF2806D1012013
:101800001049087000200C4908700AE000200A49BD
:1018100008700B49087004E0002007490870084967
:10182000087000BF00BF40F22551024800F0D3F914
:1018300010BD0000003801404B0000209202002043
:101840004C0000204D00002010B586B00446012158
:1018500044F20400FFF7D8FA01210846FFF7D4FA52
:101860004FF40070ADF8140003208DF81600182016
:101870008DF8170005A91C48FEF709FF4FF480609A
:10188000ADF8140004208DF8170005A91648FEF7DE
:10189000FEFE25208DF8000001208DF801008DF856
:1018A00002008DF803006846FFF776F801940020E7
:1018B000ADF80800ADF80A00ADF80C00ADF8100066
:1018C0000C20ADF80E0001A9084800F0FBF9012238
:1018D00040F22551054800F0D0F90121034800F0FD
:1018E00089F906B010BD0000000801400038014031
:1018F00070B505460E46002400BF0CE0295D074880
:1019000000F051FA00BF8021044800F07FF9002860
:10191000F9D0601C84B2B442F0DB70BD00380140E5
:1019200010B540F225510F4800F07DF9C0B10D48C7
:1019300000F034FAC4B240F225510A4800F04BF9E5
:10194000094890F8640064280ADA074890F86400AF
:1019500005490C54084690F86400401C81F8640066
:1019600010BD0000004400409400002010B586B077
:10197000044601210420FFF747FA01214804FFF73C
:1019800033FA0420ADF8140003208DF81600182057
:101990008DF8170005A91C48FEF779FE0820ADF860
:1019A000140004208DF8170005A91748FEF76FFEF4
:1019B00026208DF8000000208DF8010001208DF810
:1019C00002008DF803006846FEF7E6FF0194002050
:1019D000ADF80800ADF80A00ADF80C00ADF8100045
:1019E0000C20ADF80E0001A9084800F06BF90122A7
:1019F00040F22551054800F040F90121034800F06C
:101A0000F9F806B010BD0000000801400044004095
:101A100010B540F22551134800F005F900B3114804
:101A200000F0BCF9C4B21048007810B9552C00D0B1
:101A300010BD0D4801780078401C0B4A10700B480F
:101A40004454104600780B2805D10120084908703D
:101A500000201146087040F22551024800F0B2F80B
:101A600000BFE5E700480040340000208800002067
:101A70002C00002010B586B0044601210820FFF795
:101A8000C3F901218804FFF7AFF94FF48060ADF886
:101A9000140003208DF8160018208DF8170005A9F2
:101AA0001C48FEF7F4FD4FF40060ADF8140004206C
:101AB0008DF8170005A91748FEF7E9FD27208DF8D6
:101AC000000003208DF801008DF8020001208DF840
:101AD00003006846FEF760FF01940020ADF808009F
:101AE000ADF80A00ADF80C00ADF810000C20ADF810
:101AF0000E0001A9084800F0E5F8012240F2255146
:101B0000054800F0BAF80121034800F073F806B068
:101B100010BD0000000C01400048004010B586B028
:101B2000044601211020FFF76FF90121C804FFF7D7
:101B30005BF94FF48060ADF8140003208DF81600B7
:101B400018208DF8170005A91C48FEF7A0FD4FF4DA
:101B50000060ADF8140004208DF8170005A917489F
:101B6000FEF795FD34208DF8000003208DF801006C
:101B70008DF8020001208DF803006846FEF70CFF87
:101B800001940020ADF80800ADF80A00ADF80C0093
:101B9000ADF810000C20ADF80E0001A9084800F0C7
:101BA00091F8012240F22551054800F066F8012124
:101BB000034800F01FF806B010BD000000100140FF
:101BC000004C004001F40072B2F5007F00D100BF6C
:101BD000CA430280704710B50022002340F66A1401
:101BE000A14200D100BF0A1201249440A3B2DC43F9
:101BF000048010BD21B1828942F40052828104E048
:101C000082894DF6FF731A40828170470246002098
:101C1000B1F5007F00D100BF13880B400BB101204C
:101C200000E00020704770B5024600240023002524
:101C3000002040F66A16B14200D100BFC1F3421540
:101C400001F01F03012606FA03F3012D02D1968944
:101C5000334006E0022D02D1168A334001E0968A15
:101C600033400C12012606FA04F41688344013B1EE
:101C70000CB1012000E0002070BDF0B50346002447
:101C800000260025002040F66A17B94200D100BFA7
:101C90001846C1F3421401F01F06012707FA06F5A2
:101CA000012C01D10C3004E0022C01D1103000E0F5
:101CB00014301AB107682F43076002E00768AF438A
:101CC0000760F0BD2DE9F04786B005460E460024BA
:101CD000A24600BFA1460027B08900B100BF2F4631
:101CE0002C8A4CF6FF700440F08804432C82AC89A7
:101CF0004EF6F3100440B0883189084371890843D7
:101D00000443AC81AC8A4FF6FF400440B0890443E1
:101D1000AC8201A8FFF788F81F48874202D1DDF89E
:101D200010A001E0DDF80CA0A88900F4004040B14B
:101D30000AEBCA0000EB0A1031684900B0FBF1F869
:101D400007E00AEBCA0000EB0A1031688900B0FB1B
:101D5000F1F86420B8FBF0F004012009642101FBD4
:101D60001089A88900F4004040B1322000EBC9007E
:101D7000B0FBF1F000F00700044308E0322000EB74
:101D800009106421B0FBF1F000F00F0004432C8136
:101D900006B0BDE8F08700000038014001468888A1
:101DA000C0F308007047C1F308028280704700004A
:101DB000F8B5214890F8650001283CD100201E4963
:101DC00081F8650064211D4800F05AF81C4908702C
:101DD00008460078801EC1B21848FEF7E7FC0446AA
:101DE000C4F30725E6B216480078801E1349085C44
:101DF000A84211D112480078401E085CB0420BD1B5
:101E000000200D4981F866000E4908700C480178E1
:101E10000A48FEF7A3FE0EE009480078401E074975
:101E2000085C009006480078801E0B5C324629460C
:101E300005A0FEF7F5F9F8BD94000020840100200C
:101E40004A000020460000204352432D6572726F05
:101E500072206E6F772D4352433A20253032582539
:101E60003032582C20726563656976652D43524384
:101E70003A2025303258253032580D0A0000000033
:101E800010B503460B4890F86400884202DA09480E
:101E900090F86410002205E00648805C18705B1C16
:101EA000501CC2B28A42F7DB0020024C84F8640066
:101EB000084610BD94000020154991F864100029CF
:101EC00021DD134991F86410124A1278914208D02A
:101ED0000F4991F864100F4A117000210E4A1170D9
:101EE00014E00D490978012910DA0B4909780144F9
:101EF000094A117011460978012907DB0121044ABA
:101F000082F8651002E00021024A1170704700005B
:101F100094000020470000204800002000BFFEE79A
:101F200030380A2801D2012070470020704700BFD6
:101F30007047000010B56FF00400FFF751F90A4830
:101F400000680A49B0FBF1F00949087008460078BA
:101F500000EB4001C1EBC0104FF6FF7101EAC00079
:101F60000449088010BD00000000002000127A0023
:101F700014000020160000200146114A12784A433E
:101F80004FF0E0235A6100229A611A46126942F02A
:101F900001021A6100BF4FF0E022106900F0010257
:101FA0001AB100F48032002AF5D04FF0E022126915
:101FB00022F001024FF0E0231A6100229A6170477B
:101FC0001400002070B504460D46E1B20548FFF745
:101FD000EAFE00BF80210348FFF718FE0028F9D071
:101FE000204670BD004C0040FFF7A4FFFEF7FCFB4D
:101FF0004FF4E130FFF728FC4FF4E130FFF7B6FC77
:10200000FEF77CFF4FF4E130FFF734FD4FF4E13091
:10201000FFF784FD142140F60F60FFF76DFBFEF71C
:102020001DFB00214FF4E150FEF7EEFC03E000F051
:1020300049F900F061F9FAE72DE9FC4782469AF880
:102040000000552801D0BDE8FC879AF8010051280E
:102050007DD19AF80200854908709AF803008449F6
:102060000870084600788149097840EA012000B2EA
:10207000804908800846B0F9000000F025FB0022E6
:102080007D4BCDE9000100F0C7F9804600227B4B73
:1020900000F032FB06467A4A7A4B00F02DFB0446EC
:1020A00000F088F9784908609AF8040077490870C8
:1020B0009AF805007649087008460078734909784F
:1020C00040EA012000B26B4908800846B0F90000E0
:1020D00000F0FAFA80460022674B00F09DF90022DA
:1020E000664BCDE9000100F007FB0646644A654BEC
:1020F00000F002FB044600F05DF9634948609AF87D
:102100000600644908709AF8070063490870084699
:1021100000786049097840EA012000B255490880FA
:102120000846B0F9000000F0CFFA06460022524BF4
:1021300000F072F980460022504B00F0DDFA0446B0
:102140004F4A504B00F0D8FACDE9000100E017E00B
:1021500000F030F94C4988609AF809109AF8082084
:1021600041EA022108B200F0AFFA064600224B4BCA
:1021700000F052F9044600F01DF94949086072E088
:102180009AF8010053286ED19AF802004549087068
:102190009AF80300444908700846007841490978D4
:1021A00040EA012000B2334908800846B0F9000037
:1021B00000F08AFA804600222F4B00F02DF90646E7
:1021C00000223A4B00F098FA044600F0F3F8384940
:1021D00008609AF80400374908709AF805003649F3
:1021E0000870084600783349097840EA012000B2B7
:1021F000204908800846B0F9000000F065FA8046E2
:1022000000221D4B00F008F906460022274B00F083
:1022100073FA044600F0CEF8254948609AF80600A3
:10222000264908709AF80700254908700846007882
:102230002249097840EA012000B20E490880084688
:10224000B0F9000000F040FA804600220A4B00F08E
:10225000E3F806460022154B00F04EFA044600F063
:10226000A9F81349886000BFEDE6000019000020BE
:10227000180000202A0000200000E040000030404C
:102280009A99999999992340640000201B00002095
:102290001A0000201D0000201C00002000005940F2
:1022A000300000202500002024000020008066402F
:1022B0007C000020270000202600002029000020AC
:1022C0002800002010B5FEF7F5FC0A48016801203F
:1022D000FEF7FAFA074841680220FEF7F5FA0548CA
:1022E00081680320FEF7F0FA0248C1680420FEF777
:1022F000EBFA10BD8202002010B5FFF759FD264809
:102300000078002807DD244801782448FEF7BCFC4B
:102310000020214908702248007850B321480078F5
:10232000012806D002280BD0032810D004281CD185
:1023300014E002231E2203210120FEF7F9FD14E020
:1023400002231E2203211846FEF7F2FD0DE00223B0
:102350001E2203210846FEF7EBFD06E002231E22A3
:1023600003210420FEF7E4FD00BF00BF00200C495C
:1023700008700D48007820B1FEF758FE00200A4989
:1023800008700A48007828B10948FFF755FE002078
:102390000649087010BD000045000020FC00002028
:1023A0003C0000203E0000203D0000202C000020CA
:1023B0008800002021F00042A2F16052B2F5801F97
:1023C00001F0004328BFD2F17F6C0BD95FEA001CFB
:1023D00043EAC20242EB507018BF704728BF20F09A
:1023E00001007047B2F5801FBCBF184670474FEA26
:1023F000410C1CF5001F02D2084600F07BBA70B5F4
:1024000000F024FA00000089FFF7F6BF4FF000400B
:10241000A0F58000704700002DE9C04130B4DFF81E
:10242000A0C23CEA111418BF3CEA131400F0EC807F
:1024300081EA03051CEA111444EAD57418BF1CEAAA
:10244000131500F0C780A4EB05044FF0004545EAE2
:10245000C12145EAC32341EA505143EA525304F1F2
:102460007F74994204F500344FEAC0204FEAC2223B
:1024700008BF904200F09C804FEA13650FF24016AF
:10248000765D4FEA134506FB05F7C7F1807706FB3B
:1024900007F74FEAD737A7FB03687642C8F58038BD
:1024A000A7FB06CE38BFA8F1010807FB08E64FF0EE
:1024B000000EA6FB028CE6FB03CEDCF1000CCEF195
:1024C000004E38BFAEF1010EA6FB0C584FF00007CE
:1024D0004FF00005E6FB0E87A1FB08C6A0FB07CE68
:1024E00016EB0E0645F10005E1FB076515F1E04E20
:1024F0007EBFA4F580345FEA46066D4116F1800781
:1025000045F100054FEA17274FEA066647EA0567D7
:10251000A6F1DE46B6F1805F4FEA15251FD9384691
:1025200024F0010C05EBC471BCF1FE6F01EB0C1142
:1025300002D8F0BCBDE8008124425CBF01F5801EDA
:102540009EEAC47F02D4F0BCBDE80081244238D4A6
:10255000F0BCA1F1C041BDE8004100F0C5B94FEAAF
:10256000D22242EA43524FEAD323A7FB02864FEA24
:10257000D02040EA415007FB03661EEA0E0F4FEAE7
:10258000D12105FB026658BFA6EB0056B6EB0056FC
:102590004FEA520E4EEAC37E18EB0E0E56EB530E68
:1025A000BDD518EB02085E417F1C55F10005B6E76A
:1025B0004FF480154FF000074FF000064FF0000871
:1025C000ADE7F0BC4FF0000001F1C04101F0004167
:1025D000BDE8008111EA0C1F0CEA131500D00CE0D5
:1025E00013EA0C1F00F025804FF00000F0BC81EAD8
:1025F000030101F00041BDE80081F0BCBDE80041ED
:1026000081EA030100F070B9F0BCBDE8004170B58B
:1026100000F01CF9097EFC3E00F007B881EA0301D6
:102620004FF0000001F00041704781EA030100F023
:102630005BB9F0BCBDE800414FF000002149704794
:10264000FFFDFBF9F7F5F4F2F0EEEDEBE9E8E6E477
:10265000E3E1E0DEDDDBDAD8D7D5D4D3D1D0CFCDFE
:10266000CCCBCAC8C7C6C5C4C2C1C0BFBEBDBCBB37
:10267000BAB9B8B7B6B5B4B3B2B1B0AFAEADACAB32
:10268000AAA9A8A8A7A6A5A4A3A3A2A1A09F9F9E0C
:102690009D9C9C9B9A9999989797969595949393BE
:1026A000929191908F8F8E8E8D8C8C8B8B8A898955
:1026B00088888787868585848483838282818180D8
:1026C0000000FF070000F87F10F0004248BF4042C2
:1026D000B0FA80F310FA03F10AD0C3F11D0303F539
:1026E00080634FEA415002EB035202EBD121704765
:1026F0004FF0000070470000DFF848C170B51CEAD9
:10270000111E1EBF1CEA13159EEA0C0F95EA0C0F52
:1027100000F06F8081EA030423EA4C134EEAD47E72
:1027200021EA4C1141F4801143F48013AE44A1FB23
:10273000024CA0FB0365AEF17F7E361955EB0C050C
:10274000A1FB034C4CF10003A0FB021C16EB0C0692
:10275000654153F10003094218BF46F0010613F426
:10276000007F0BD14FEA03314FEA0530340341EAD1
:10277000155140EA16506FF003020AE04FEAC321F8
:102780004FEAC520F40241EA555140EA56506FF035
:10279000020202EB2E4201EB025585EACE710AD00D
:1027A0005FEA440C18BF24F0004450F1000041F1EE
:1027B000000120EAD47040F2FE7C624500D270BD78
:1027C000A84214BF4FF080444FF04044002E08BF91
:1027D0000024BEF1806FA8BFA1F1C041BDE87040E8
:1027E00080F282804FF0000001F1C04101F0004111
:1027F00070479EEA0C0F0CEA131518BF95EA0C0FF0
:1028000006D04FF0000081EA030E0EF0004170BDCB
:1028100000F01CF88900013E00F007B800F009B88C
:102820004FEA430C5FEA5C5C08D081EA030100F0E8
:102830005BB84FEA410C5FEA5C5CF6D14FF00000F8
:10284000014970470000FF070000F87F0EF1020EFB
:102850002EF0030E5EF8046B364205D4012A43EBDA
:10286000030515F5001F12D8012841EB010C1CF5DA
:10287000001F0CD80ED14FEAD17C15F5001F0CEBD0
:102880004C0C0CF1020C08BF4CEBD37C04E04FF075
:10289000080C01E04FEAD37C0CEB4C0526FA05F658
:1028A00006F00706B6F1040C06D20EEB860CBDE866
:1028B00070404CF0010C6047DFE80CF0090B02029D
:1028C0004FF000414FF00000A1F5002170BD194606
:1028D0001046012851EB010418BFD4F5001484BF41
:1028E000002001F0004170BD0808A0F500114FEA7A
:1028F00031017047FF2141EAD050C005704700C147
:10290000814001C0804101C0804100C1814001C0BF
:10291000804100C1814000C1814001C0804101C0AF
:10292000804100C1814000C1814001C0804100C19F
:10293000814001C0804101C0804100C1814001C08F
:10294000804100C1814000C1814001C0804100C17F
:10295000814001C0804101C0804100C1814000C16F
:10296000814001C0804101C0804100C1814001C05F
:10297000804100C1814000C1814001C0804101C04F
:10298000804100C1814000C1814001C0804100C13F
:10299000814001C0804101C0804100C1814000C12F
:1029A000814001C0804101C0804100C1814001C01F
:1029B000804100C1814000C1814001C0804100C10F
:1029C000814001C0804101C0804100C1814001C0FF
:1029D000804100C1814000C1814001C0804101C0EF
:1029E000804100C1814000C1814001C0804100C1DF
:1029F000814001C0804101C0804100C1814000C0D0
:102A0000C101C30302C2C60607C705C5C404CC0C76
:102A10000DCD0FCFCE0E0ACACB0BC90908C8D818E6
:102A200019D91BDBDA1A1EDEDF1FDD1D1CDC14D4F6
:102A3000D515D71716D6D21213D311D1D010F03026
:102A400031F133F3F23236F6F737F53534F43CFC36
:102A5000FD3DFF3F3EFEFA3A3BFB39F9F83828E8E6
:102A6000E929EB2B2AEAEE2E2FEF2DEDEC2CE424B6
:102A700025E527E7E62622E2E323E12120E0A06026
:102A800061A163A3A26266A6A767A56564A46CACF6
:102A9000AD6DAF6F6EAEAA6A6BAB69A9A86878B866
:102AA000B979BB7B7ABABE7E7FBF7DBDBC7CB47476
:102AB00075B577B7B67672B2B373B17170B0509026
:102AC00091519353529296565797559594549C5CB6
:102AD0005D9D5F9F9E5E5A9A9B5B99595898884866
:102AE00049894B8B8A4A4E8E8F4F8D4D4C8C448436
:102AF0008545874746868242438341818040303105
:102B00003233343536373839414243444546403014
:102B100058003031323334353637383961626364C6
:102B200065664030780004000008000000000000E6
:102B30000002000100001000582B000800000020D7
:102B4000640000006C010008BC2B00086400002039
:102B5000A40800008801000800A24A040000000048
:102B6000000000000102030406070809000000003D
:102B70000000000000000000000000000000000055
:102B80000000000000000000000000000000000045
:102B90000000000000000000000000000000000035
:102BA0000000000000000000000001020304010218
:0C2BB000030406070809020406080000E0
:04000005080001DD11
:00000001FF
